{
  "address": "0x9fE46736679d2D9a65F0992F2272dE9f3c7fa6e0",
  "abi": [
    {
      "inputs": [
        {
          "internalType": "string",
          "name": "_baseTokenURI",
          "type": "string"
        },
        {
          "internalType": "address",
          "name": "_sdusdTokenAddress",
          "type": "address"
        },
        {
          "internalType": "string",
          "name": "_nftName",
          "type": "string"
        },
        {
          "internalType": "string",
          "name": "_nftSymbol",
          "type": "string"
        }
      ],
      "stateMutability": "nonpayable",
      "type": "constructor"
    },
    {
      "inputs": [],
      "name": "CheckpointUnorderedInsertion",
      "type": "error"
    },
    {
      "inputs": [],
      "name": "ECDSAInvalidSignature",
      "type": "error"
    },
    {
      "inputs": [
        {
          "internalType": "uint256",
          "name": "length",
          "type": "uint256"
        }
      ],
      "name": "ECDSAInvalidSignatureLength",
      "type": "error"
    },
    {
      "inputs": [
        {
          "internalType": "bytes32",
          "name": "s",
          "type": "bytes32"
        }
      ],
      "name": "ECDSAInvalidSignatureS",
      "type": "error"
    },
    {
      "inputs": [
        {
          "internalType": "uint256",
          "name": "timepoint",
          "type": "uint256"
        },
        {
          "internalType": "uint48",
          "name": "clock",
          "type": "uint48"
        }
      ],
      "name": "ERC5805FutureLookup",
      "type": "error"
    },
    {
      "inputs": [],
      "name": "ERC6372InconsistentClock",
      "type": "error"
    },
    {
      "inputs": [
        {
          "internalType": "address",
          "name": "sender",
          "type": "address"
        },
        {
          "internalType": "uint256",
          "name": "tokenId",
          "type": "uint256"
        },
        {
          "internalType": "address",
          "name": "owner",
          "type": "address"
        }
      ],
      "name": "ERC721IncorrectOwner",
      "type": "error"
    },
    {
      "inputs": [
        {
          "internalType": "address",
          "name": "operator",
          "type": "address"
        },
        {
          "internalType": "uint256",
          "name": "tokenId",
          "type": "uint256"
        }
      ],
      "name": "ERC721InsufficientApproval",
      "type": "error"
    },
    {
      "inputs": [
        {
          "internalType": "address",
          "name": "approver",
          "type": "address"
        }
      ],
      "name": "ERC721InvalidApprover",
      "type": "error"
    },
    {
      "inputs": [
        {
          "internalType": "address",
          "name": "operator",
          "type": "address"
        }
      ],
      "name": "ERC721InvalidOperator",
      "type": "error"
    },
    {
      "inputs": [
        {
          "internalType": "address",
          "name": "owner",
          "type": "address"
        }
      ],
      "name": "ERC721InvalidOwner",
      "type": "error"
    },
    {
      "inputs": [
        {
          "internalType": "address",
          "name": "receiver",
          "type": "address"
        }
      ],
      "name": "ERC721InvalidReceiver",
      "type": "error"
    },
    {
      "inputs": [
        {
          "internalType": "address",
          "name": "sender",
          "type": "address"
        }
      ],
      "name": "ERC721InvalidSender",
      "type": "error"
    },
    {
      "inputs": [
        {
          "internalType": "uint256",
          "name": "tokenId",
          "type": "uint256"
        }
      ],
      "name": "ERC721NonexistentToken",
      "type": "error"
    },
    {
      "inputs": [
        {
          "internalType": "address",
          "name": "account",
          "type": "address"
        },
        {
          "internalType": "uint256",
          "name": "currentNonce",
          "type": "uint256"
        }
      ],
      "name": "InvalidAccountNonce",
      "type": "error"
    },
    {
      "inputs": [],
      "name": "InvalidShortString",
      "type": "error"
    },
    {
      "inputs": [],
      "name": "SDNFT__NotEnoughETH",
      "type": "error"
    },
    {
      "inputs": [
        {
          "internalType": "uint8",
          "name": "bits",
          "type": "uint8"
        },
        {
          "internalType": "uint256",
          "name": "value",
          "type": "uint256"
        }
      ],
      "name": "SafeCastOverflowedUintDowncast",
      "type": "error"
    },
    {
      "inputs": [
        {
          "internalType": "string",
          "name": "str",
          "type": "string"
        }
      ],
      "name": "StringTooLong",
      "type": "error"
    },
    {
      "inputs": [
        {
          "internalType": "uint256",
          "name": "expiry",
          "type": "uint256"
        }
      ],
      "name": "VotesExpiredSignature",
      "type": "error"
    },
    {
      "anonymous": false,
      "inputs": [
        {
          "indexed": true,
          "internalType": "address",
          "name": "owner",
          "type": "address"
        },
        {
          "indexed": true,
          "internalType": "address",
          "name": "approved",
          "type": "address"
        },
        {
          "indexed": true,
          "internalType": "uint256",
          "name": "tokenId",
          "type": "uint256"
        }
      ],
      "name": "Approval",
      "type": "event"
    },
    {
      "anonymous": false,
      "inputs": [
        {
          "indexed": true,
          "internalType": "address",
          "name": "owner",
          "type": "address"
        },
        {
          "indexed": true,
          "internalType": "address",
          "name": "operator",
          "type": "address"
        },
        {
          "indexed": false,
          "internalType": "bool",
          "name": "approved",
          "type": "bool"
        }
      ],
      "name": "ApprovalForAll",
      "type": "event"
    },
    {
      "anonymous": false,
      "inputs": [
        {
          "indexed": true,
          "internalType": "address",
          "name": "delegator",
          "type": "address"
        },
        {
          "indexed": true,
          "internalType": "address",
          "name": "fromDelegate",
          "type": "address"
        },
        {
          "indexed": true,
          "internalType": "address",
          "name": "toDelegate",
          "type": "address"
        }
      ],
      "name": "DelegateChanged",
      "type": "event"
    },
    {
      "anonymous": false,
      "inputs": [
        {
          "indexed": true,
          "internalType": "address",
          "name": "delegate",
          "type": "address"
        },
        {
          "indexed": false,
          "internalType": "uint256",
          "name": "previousVotes",
          "type": "uint256"
        },
        {
          "indexed": false,
          "internalType": "uint256",
          "name": "newVotes",
          "type": "uint256"
        }
      ],
      "name": "DelegateVotesChanged",
      "type": "event"
    },
    {
      "anonymous": false,
      "inputs": [],
      "name": "EIP712DomainChanged",
      "type": "event"
    },
    {
      "anonymous": false,
      "inputs": [
        {
          "indexed": true,
          "internalType": "address",
          "name": "from",
          "type": "address"
        },
        {
          "indexed": true,
          "internalType": "address",
          "name": "to",
          "type": "address"
        },
        {
          "indexed": true,
          "internalType": "uint256",
          "name": "tokenId",
          "type": "uint256"
        }
      ],
      "name": "Transfer",
      "type": "event"
    },
    {
      "inputs": [],
      "name": "CLOCK_MODE",
      "outputs": [
        {
          "internalType": "string",
          "name": "",
          "type": "string"
        }
      ],
      "stateMutability": "view",
      "type": "function"
    },
    {
      "inputs": [
        {
          "internalType": "address",
          "name": "to",
          "type": "address"
        },
        {
          "internalType": "uint256",
          "name": "tokenId",
          "type": "uint256"
        }
      ],
      "name": "approve",
      "outputs": [],
      "stateMutability": "nonpayable",
      "type": "function"
    },
    {
      "inputs": [
        {
          "internalType": "address",
          "name": "owner",
          "type": "address"
        }
      ],
      "name": "balanceOf",
      "outputs": [
        {
          "internalType": "uint256",
          "name": "",
          "type": "uint256"
        }
      ],
      "stateMutability": "view",
      "type": "function"
    },
    {
      "inputs": [],
      "name": "baseTokenURI",
      "outputs": [
        {
          "internalType": "string",
          "name": "",
          "type": "string"
        }
      ],
      "stateMutability": "view",
      "type": "function"
    },
    {
      "inputs": [],
      "name": "buyNft",
      "outputs": [],
      "stateMutability": "payable",
      "type": "function"
    },
    {
      "inputs": [],
      "name": "clock",
      "outputs": [
        {
          "internalType": "uint48",
          "name": "",
          "type": "uint48"
        }
      ],
      "stateMutability": "view",
      "type": "function"
    },
    {
      "inputs": [],
      "name": "counter",
      "outputs": [
        {
          "internalType": "uint256",
          "name": "",
          "type": "uint256"
        }
      ],
      "stateMutability": "view",
      "type": "function"
    },
    {
      "inputs": [
        {
          "internalType": "address",
          "name": "delegatee",
          "type": "address"
        }
      ],
      "name": "delegate",
      "outputs": [],
      "stateMutability": "nonpayable",
      "type": "function"
    },
    {
      "inputs": [
        {
          "internalType": "address",
          "name": "delegatee",
          "type": "address"
        },
        {
          "internalType": "uint256",
          "name": "nonce",
          "type": "uint256"
        },
        {
          "internalType": "uint256",
          "name": "expiry",
          "type": "uint256"
        },
        {
          "internalType": "uint8",
          "name": "v",
          "type": "uint8"
        },
        {
          "internalType": "bytes32",
          "name": "r",
          "type": "bytes32"
        },
        {
          "internalType": "bytes32",
          "name": "s",
          "type": "bytes32"
        }
      ],
      "name": "delegateBySig",
      "outputs": [],
      "stateMutability": "nonpayable",
      "type": "function"
    },
    {
      "inputs": [
        {
          "internalType": "address",
          "name": "account",
          "type": "address"
        }
      ],
      "name": "delegates",
      "outputs": [
        {
          "internalType": "address",
          "name": "",
          "type": "address"
        }
      ],
      "stateMutability": "view",
      "type": "function"
    },
    {
      "inputs": [],
      "name": "eip712Domain",
      "outputs": [
        {
          "internalType": "bytes1",
          "name": "fields",
          "type": "bytes1"
        },
        {
          "internalType": "string",
          "name": "name",
          "type": "string"
        },
        {
          "internalType": "string",
          "name": "version",
          "type": "string"
        },
        {
          "internalType": "uint256",
          "name": "chainId",
          "type": "uint256"
        },
        {
          "internalType": "address",
          "name": "verifyingContract",
          "type": "address"
        },
        {
          "internalType": "bytes32",
          "name": "salt",
          "type": "bytes32"
        },
        {
          "internalType": "uint256[]",
          "name": "extensions",
          "type": "uint256[]"
        }
      ],
      "stateMutability": "view",
      "type": "function"
    },
    {
      "inputs": [
        {
          "internalType": "uint256",
          "name": "tokenId",
          "type": "uint256"
        }
      ],
      "name": "getApproved",
      "outputs": [
        {
          "internalType": "address",
          "name": "",
          "type": "address"
        }
      ],
      "stateMutability": "view",
      "type": "function"
    },
    {
      "inputs": [],
      "name": "getIndex",
      "outputs": [
        {
          "internalType": "uint256",
          "name": "",
          "type": "uint256"
        }
      ],
      "stateMutability": "view",
      "type": "function"
    },
    {
      "inputs": [
        {
          "internalType": "uint256",
          "name": "timepoint",
          "type": "uint256"
        }
      ],
      "name": "getPastTotalSupply",
      "outputs": [
        {
          "internalType": "uint256",
          "name": "",
          "type": "uint256"
        }
      ],
      "stateMutability": "view",
      "type": "function"
    },
    {
      "inputs": [
        {
          "internalType": "address",
          "name": "account",
          "type": "address"
        },
        {
          "internalType": "uint256",
          "name": "timepoint",
          "type": "uint256"
        }
      ],
      "name": "getPastVotes",
      "outputs": [
        {
          "internalType": "uint256",
          "name": "",
          "type": "uint256"
        }
      ],
      "stateMutability": "view",
      "type": "function"
    },
    {
      "inputs": [],
      "name": "getPrice",
      "outputs": [
        {
          "internalType": "uint256",
          "name": "",
          "type": "uint256"
        }
      ],
      "stateMutability": "view",
      "type": "function"
    },
    {
      "inputs": [
        {
          "internalType": "address",
          "name": "account",
          "type": "address"
        }
      ],
      "name": "getVotes",
      "outputs": [
        {
          "internalType": "uint256",
          "name": "",
          "type": "uint256"
        }
      ],
      "stateMutability": "view",
      "type": "function"
    },
    {
      "inputs": [
        {
          "internalType": "address",
          "name": "owner",
          "type": "address"
        },
        {
          "internalType": "address",
          "name": "operator",
          "type": "address"
        }
      ],
      "name": "isApprovedForAll",
      "outputs": [
        {
          "internalType": "bool",
          "name": "",
          "type": "bool"
        }
      ],
      "stateMutability": "view",
      "type": "function"
    },
    {
      "inputs": [],
      "name": "name",
      "outputs": [
        {
          "internalType": "string",
          "name": "",
          "type": "string"
        }
      ],
      "stateMutability": "view",
      "type": "function"
    },
    {
      "inputs": [
        {
          "internalType": "address",
          "name": "owner",
          "type": "address"
        }
      ],
      "name": "nonces",
      "outputs": [
        {
          "internalType": "uint256",
          "name": "",
          "type": "uint256"
        }
      ],
      "stateMutability": "view",
      "type": "function"
    },
    {
      "inputs": [
        {
          "internalType": "uint256",
          "name": "tokenId",
          "type": "uint256"
        }
      ],
      "name": "ownerOf",
      "outputs": [
        {
          "internalType": "address",
          "name": "",
          "type": "address"
        }
      ],
      "stateMutability": "view",
      "type": "function"
    },
    {
      "inputs": [
        {
          "internalType": "address",
          "name": "from",
          "type": "address"
        },
        {
          "internalType": "address",
          "name": "to",
          "type": "address"
        },
        {
          "internalType": "uint256",
          "name": "tokenId",
          "type": "uint256"
        }
      ],
      "name": "safeTransferFrom",
      "outputs": [],
      "stateMutability": "nonpayable",
      "type": "function"
    },
    {
      "inputs": [
        {
          "internalType": "address",
          "name": "from",
          "type": "address"
        },
        {
          "internalType": "address",
          "name": "to",
          "type": "address"
        },
        {
          "internalType": "uint256",
          "name": "tokenId",
          "type": "uint256"
        },
        {
          "internalType": "bytes",
          "name": "data",
          "type": "bytes"
        }
      ],
      "name": "safeTransferFrom",
      "outputs": [],
      "stateMutability": "nonpayable",
      "type": "function"
    },
    {
      "inputs": [
        {
          "internalType": "address",
          "name": "operator",
          "type": "address"
        },
        {
          "internalType": "bool",
          "name": "approved",
          "type": "bool"
        }
      ],
      "name": "setApprovalForAll",
      "outputs": [],
      "stateMutability": "nonpayable",
      "type": "function"
    },
    {
      "inputs": [
        {
          "internalType": "bytes4",
          "name": "interfaceId",
          "type": "bytes4"
        }
      ],
      "name": "supportsInterface",
      "outputs": [
        {
          "internalType": "bool",
          "name": "",
          "type": "bool"
        }
      ],
      "stateMutability": "view",
      "type": "function"
    },
    {
      "inputs": [],
      "name": "symbol",
      "outputs": [
        {
          "internalType": "string",
          "name": "",
          "type": "string"
        }
      ],
      "stateMutability": "view",
      "type": "function"
    },
    {
      "inputs": [
        {
          "internalType": "uint256",
          "name": "tokenId",
          "type": "uint256"
        }
      ],
      "name": "tokenURI",
      "outputs": [
        {
          "internalType": "string",
          "name": "",
          "type": "string"
        }
      ],
      "stateMutability": "view",
      "type": "function"
    },
    {
      "inputs": [
        {
          "internalType": "address",
          "name": "from",
          "type": "address"
        },
        {
          "internalType": "address",
          "name": "to",
          "type": "address"
        },
        {
          "internalType": "uint256",
          "name": "tokenId",
          "type": "uint256"
        }
      ],
      "name": "transferFrom",
      "outputs": [],
      "stateMutability": "nonpayable",
      "type": "function"
    },
    {
      "stateMutability": "payable",
      "type": "receive"
    }
  ],
  "transactionHash": "0x961aa28dc7d11eb5bfaae2fe48587ad96903e40214812d1f8a4782731b685d41",
  "args": [
    "ipfs://QmeSjSinHpPnmXmspMjwiXyN6zS4E9zccariGR3jxcaWtq/",
    "0xe7f1725E7734CE288F8367e1Bb143E90bb3F0512",
    "Simple Decentralized NFT",
    "SDNFT"
  ],
  "numDeployments": 1,
  "solcInputHash": "fdec8d8b19d7c9bf234675983bd5a552",
  "bytecode": "0x61016060405267016345785d8a0000600d556000600e5534801561002257600080fd5b50604051614f5b380380614f5b83398181016040528101906100449190610493565b816040518060400160405280600181526020017f31000000000000000000000000000000000000000000000000000000000000008152508383816000908161008c919061076f565b50806001908161009c919061076f565b5050506100b36006836101a360201b90919060201c565b61012081815250506100cf6007826101a360201b90919060201c565b6101408181525050818051906020012060e08181525050808051906020012061010081815250504660a0818152505061010c6101f360201b60201c565b608081815250503073ffffffffffffffffffffffffffffffffffffffff1660c08173ffffffffffffffffffffffffffffffffffffffff1681525050505083600c9081610158919061076f565b5082600f60006101000a81548173ffffffffffffffffffffffffffffffffffffffff021916908373ffffffffffffffffffffffffffffffffffffffff160217905550505050506109ce565b60006020835110156101c5576101be8361024e60201b60201c565b90506101ed565b826101d5836102b660201b60201c565b60000190816101e4919061076f565b5060ff60001b90505b92915050565b60007f8b73c3c69bb8fe3d512ecc4cf759cc79239f7b179b0ffacaa9a75d522b39400f60e051610100514630604051602001610233959493929190610878565b60405160208183030381529060405280519060200120905090565b600080829050601f8151111561029b57826040517f305a27a90000000000000000000000000000000000000000000000000000000081526004016102929190610915565b60405180910390fd5b8051816102a790610967565b60001c1760001b915050919050565b6000819050919050565b6000604051905090565b600080fd5b600080fd5b600080fd5b600080fd5b6000601f19601f8301169050919050565b7f4e487b7100000000000000000000000000000000000000000000000000000000600052604160045260246000fd5b610327826102de565b810181811067ffffffffffffffff82111715610346576103456102ef565b5b80604052505050565b60006103596102c0565b9050610365828261031e565b919050565b600067ffffffffffffffff821115610385576103846102ef565b5b61038e826102de565b9050602081019050919050565b60005b838110156103b957808201518184015260208101905061039e565b60008484015250505050565b60006103d86103d38461036a565b61034f565b9050828152602081018484840111156103f4576103f36102d9565b5b6103ff84828561039b565b509392505050565b600082601f83011261041c5761041b6102d4565b5b815161042c8482602086016103c5565b91505092915050565b600073ffffffffffffffffffffffffffffffffffffffff82169050919050565b600061046082610435565b9050919050565b61047081610455565b811461047b57600080fd5b50565b60008151905061048d81610467565b92915050565b600080600080608085870312156104ad576104ac6102ca565b5b600085015167ffffffffffffffff8111156104cb576104ca6102cf565b5b6104d787828801610407565b94505060206104e88782880161047e565b935050604085015167ffffffffffffffff811115610509576105086102cf565b5b61051587828801610407565b925050606085015167ffffffffffffffff811115610536576105356102cf565b5b61054287828801610407565b91505092959194509250565b600081519050919050565b7f4e487b7100000000000000000000000000000000000000000000000000000000600052602260045260246000fd5b600060028204905060018216806105a057607f821691505b6020821081036105b3576105b2610559565b5b50919050565b60008190508160005260206000209050919050565b60006020601f8301049050919050565b600082821b905092915050565b60006008830261061b7fffffffffffffffffffffffffffffffffffffffffffffffffffffffffffffffff826105de565b61062586836105de565b95508019841693508086168417925050509392505050565b6000819050919050565b6000819050919050565b600061066c6106676106628461063d565b610647565b61063d565b9050919050565b6000819050919050565b61068683610651565b61069a61069282610673565b8484546105eb565b825550505050565b600090565b6106af6106a2565b6106ba81848461067d565b505050565b5b818110156106de576106d36000826106a7565b6001810190506106c0565b5050565b601f821115610723576106f4816105b9565b6106fd846105ce565b8101602085101561070c578190505b610720610718856105ce565b8301826106bf565b50505b505050565b600082821c905092915050565b600061074660001984600802610728565b1980831691505092915050565b600061075f8383610735565b9150826002028217905092915050565b6107788261054e565b67ffffffffffffffff811115610791576107906102ef565b5b61079b8254610588565b6107a68282856106e2565b600060209050601f8311600181146107d957600084156107c7578287015190505b6107d18582610753565b865550610839565b601f1984166107e7866105b9565b60005b8281101561080f578489015182556001820191506020850194506020810190506107ea565b8683101561082c5784890151610828601f891682610735565b8355505b6001600288020188555050505b505050505050565b6000819050919050565b61085481610841565b82525050565b6108638161063d565b82525050565b61087281610455565b82525050565b600060a08201905061088d600083018861084b565b61089a602083018761084b565b6108a7604083018661084b565b6108b4606083018561085a565b6108c16080830184610869565b9695505050505050565b600082825260208201905092915050565b60006108e78261054e565b6108f181856108cb565b935061090181856020860161039b565b61090a816102de565b840191505092915050565b6000602082019050818103600083015261092f81846108dc565b905092915050565b600081519050919050565b6000819050602082019050919050565b600061095e8251610841565b80915050919050565b600061097282610937565b8261097c84610942565b905061098781610952565b925060208210156109c7576109c27fffffffffffffffffffffffffffffffffffffffffffffffffffffffffffffffff836020036008026105de565b831692505b5050919050565b60805160a05160c05160e051610100516101205161014051614533610a2860003960006117740152600061173901526000612e9501526000612e74015260006124e1015260006125370152600061256001526145336000f3fe6080604052600436106101bb5760003560e01c806381045ead116100ec578063a22cb4651161008a578063c87b56dd11610064578063c87b56dd14610737578063d547cfb714610774578063e69257c21461079f578063e985e9c5146107a957610290565b8063a22cb465146106bc578063b88d4fde146106e5578063c3cda5201461070e57610290565b806391ddadf4116100c657806391ddadf4146105fe57806395d89b411461062957806398d5fdca146106545780639ab24eb01461067f57610290565b806381045ead1461056557806384b0196e146105905780638e539e8c146105c157610290565b80634bf5d7e91161015957806361bc221a1161013357806361bc221a146104835780636352211e146104ae57806370a08231146104eb5780637ecebe001461052857610290565b80634bf5d7e9146103f2578063587cde1e1461041d5780635c19a95c1461045a57610290565b8063095ea7b311610195578063095ea7b31461033a57806323b872dd146103635780633a46b1a81461038c57806342842e0e146103c957610290565b806301ffc9a71461029557806306fdde03146102d2578063081812fc146102fd57610290565b36610290576000600f60009054906101000a900473ffffffffffffffffffffffffffffffffffffffff1673ffffffffffffffffffffffffffffffffffffffff16346040516102089061350e565b60006040518083038185875af1925050503d8060008114610245576040519150601f19603f3d011682016040523d82523d6000602084013e61024a565b606091505b505090508061028e576040517f08c379a0000000000000000000000000000000000000000000000000000000008152600401610285906135a6565b60405180910390fd5b005b600080fd5b3480156102a157600080fd5b506102bc60048036038101906102b79190613632565b6107e6565b6040516102c9919061367a565b60405180910390f35b3480156102de57600080fd5b506102e76108c8565b6040516102f49190613714565b60405180910390f35b34801561030957600080fd5b50610324600480360381019061031f919061376c565b61095a565b60405161033191906137da565b60405180910390f35b34801561034657600080fd5b50610361600480360381019061035c9190613821565b610976565b005b34801561036f57600080fd5b5061038a60048036038101906103859190613861565b61098c565b005b34801561039857600080fd5b506103b360048036038101906103ae9190613821565b610a8e565b6040516103c091906138c3565b60405180910390f35b3480156103d557600080fd5b506103f060048036038101906103eb9190613861565b610b67565b005b3480156103fe57600080fd5b50610407610b87565b6040516104149190613714565b60405180910390f35b34801561042957600080fd5b50610444600480360381019061043f91906138de565b610c1b565b60405161045191906137da565b60405180910390f35b34801561046657600080fd5b50610481600480360381019061047c91906138de565b610c84565b005b34801561048f57600080fd5b50610498610c9e565b6040516104a591906138c3565b60405180910390f35b3480156104ba57600080fd5b506104d560048036038101906104d0919061376c565b610ca4565b6040516104e291906137da565b60405180910390f35b3480156104f757600080fd5b50610512600480360381019061050d91906138de565b610cb6565b60405161051f91906138c3565b60405180910390f35b34801561053457600080fd5b5061054f600480360381019061054a91906138de565b610d70565b60405161055c91906138c3565b60405180910390f35b34801561057157600080fd5b5061057a610db9565b60405161058791906138c3565b60405180910390f35b34801561059c57600080fd5b506105a5610dc3565b6040516105b89796959493929190613a1d565b60405180910390f35b3480156105cd57600080fd5b506105e860048036038101906105e3919061376c565b610e6d565b6040516105f591906138c3565b60405180910390f35b34801561060a57600080fd5b50610613610f08565b6040516106209190613ac2565b60405180910390f35b34801561063557600080fd5b5061063e610f17565b60405161064b9190613714565b60405180910390f35b34801561066057600080fd5b50610669610fa9565b60405161067691906138c3565b60405180910390f35b34801561068b57600080fd5b506106a660048036038101906106a191906138de565b610fb3565b6040516106b391906138c3565b60405180910390f35b3480156106c857600080fd5b506106e360048036038101906106de9190613b09565b61101f565b005b3480156106f157600080fd5b5061070c60048036038101906107079190613c7e565b611035565b005b34801561071a57600080fd5b5061073560048036038101906107309190613d66565b61105a565b005b34801561074357600080fd5b5061075e6004803603810190610759919061376c565b611120565b60405161076b9190613714565b60405180910390f35b34801561078057600080fd5b50610789611189565b6040516107969190613714565b60405180910390f35b6107a7611217565b005b3480156107b557600080fd5b506107d060048036038101906107cb9190613df3565b6112c5565b6040516107dd919061367a565b60405180910390f35b60007f80ac58cd000000000000000000000000000000000000000000000000000000007bffffffffffffffffffffffffffffffffffffffffffffffffffffffff1916827bffffffffffffffffffffffffffffffffffffffffffffffffffffffff191614806108b157507f5b5e139f000000000000000000000000000000000000000000000000000000007bffffffffffffffffffffffffffffffffffffffffffffffffffffffff1916827bffffffffffffffffffffffffffffffffffffffffffffffffffffffff1916145b806108c157506108c082611359565b5b9050919050565b6060600080546108d790613e62565b80601f016020809104026020016040519081016040528092919081815260200182805461090390613e62565b80156109505780601f1061092557610100808354040283529160200191610950565b820191906000526020600020905b81548152906001019060200180831161093357829003601f168201915b5050505050905090565b6000610965826113c3565b5061096f8261144b565b9050919050565b6109888282610983611488565b611490565b5050565b600073ffffffffffffffffffffffffffffffffffffffff168273ffffffffffffffffffffffffffffffffffffffff16036109fe5760006040517f64a0ae920000000000000000000000000000000000000000000000000000000081526004016109f591906137da565b60405180910390fd5b6000610a128383610a0d611488565b6114a2565b90508373ffffffffffffffffffffffffffffffffffffffff168173ffffffffffffffffffffffffffffffffffffffff1614610a88578382826040517f64283d7b000000000000000000000000000000000000000000000000000000008152600401610a7f93929190613e93565b60405180910390fd5b50505050565b600080610a99610f08565b90508065ffffffffffff168310610ae95782816040517fecd3f81e000000000000000000000000000000000000000000000000000000008152600401610ae0929190613eca565b60405180910390fd5b610b42610af5846114b8565b600a60008773ffffffffffffffffffffffffffffffffffffffff1673ffffffffffffffffffffffffffffffffffffffff16815260200190815260200160002061151290919063ffffffff16565b79ffffffffffffffffffffffffffffffffffffffffffffffffffff1691505092915050565b610b8283838360405180602001604052806000815250611035565b505050565b6060610b9161160c565b65ffffffffffff16610ba1610f08565b65ffffffffffff1614610be0576040517f6ff0714000000000000000000000000000000000000000000000000000000000815260040160405180910390fd5b6040518060400160405280601d81526020017f6d6f64653d626c6f636b6e756d6265722666726f6d3d64656661756c74000000815250905090565b6000600960008373ffffffffffffffffffffffffffffffffffffffff1673ffffffffffffffffffffffffffffffffffffffff16815260200190815260200160002060009054906101000a900473ffffffffffffffffffffffffffffffffffffffff169050919050565b6000610c8e611488565b9050610c9a818361161c565b5050565b600e5481565b6000610caf826113c3565b9050919050565b60008073ffffffffffffffffffffffffffffffffffffffff168273ffffffffffffffffffffffffffffffffffffffff1603610d295760006040517f89c62b64000000000000000000000000000000000000000000000000000000008152600401610d2091906137da565b60405180910390fd5b600360008373ffffffffffffffffffffffffffffffffffffffff1673ffffffffffffffffffffffffffffffffffffffff168152602001908152602001600020549050919050565b6000600860008373ffffffffffffffffffffffffffffffffffffffff1673ffffffffffffffffffffffffffffffffffffffff168152602001908152602001600020549050919050565b6000600e54905090565b600060608060008060006060610dd7611730565b610ddf61176b565b46306000801b600067ffffffffffffffff811115610e0057610dff613b53565b5b604051908082528060200260200182016040528015610e2e5781602001602082028036833780820191505090505b507f0f00000000000000000000000000000000000000000000000000000000000000959493929190965096509650965096509650965090919293949596565b600080610e78610f08565b90508065ffffffffffff168310610ec85782816040517fecd3f81e000000000000000000000000000000000000000000000000000000008152600401610ebf929190613eca565b60405180910390fd5b610ee4610ed4846114b8565b600b61151290919063ffffffff16565b79ffffffffffffffffffffffffffffffffffffffffffffffffffff16915050919050565b6000610f1261160c565b905090565b606060018054610f2690613e62565b80601f0160208091040260200160405190810160405280929190818152602001828054610f5290613e62565b8015610f9f5780601f10610f7457610100808354040283529160200191610f9f565b820191906000526020600020905b815481529060010190602001808311610f8257829003601f168201915b5050505050905090565b6000600d54905090565b6000610ffc600a60008473ffffffffffffffffffffffffffffffffffffffff1673ffffffffffffffffffffffffffffffffffffffff1681526020019081526020016000206117a6565b79ffffffffffffffffffffffffffffffffffffffffffffffffffff169050919050565b61103161102a611488565b838361180e565b5050565b61104084848461098c565b61105461104b611488565b8585858561197d565b50505050565b8342111561109f57836040517f4683af0e00000000000000000000000000000000000000000000000000000000815260040161109691906138c3565b60405180910390fd5b60006111016110f97fe48329057bfd03d55e49b547132e39cffd9c1820ad7b9d4c5307691425d15adf8989896040516020016110de9493929190613ef3565b60405160208183030381529060405280519060200120611b2e565b858585611b48565b905061110d8187611b78565b611117818861161c565b50505050505050565b606061112b826113c3565b506000611136611bd0565b905060008151116111565760405180602001604052806000815250611181565b8061116084611c62565b604051602001611171929190613f74565b6040516020818303038152906040525b915050919050565b600c805461119690613e62565b80601f01602080910402602001604051908101604052809291908181526020018280546111c290613e62565b801561120f5780601f106111e45761010080835404028352916020019161120f565b820191906000526020600020905b8154815290600101906020018083116111f257829003601f168201915b505050505081565b600d54341015611253576040517fc3b2785500000000000000000000000000000000000000000000000000000000815260040160405180910390fd5b612710600e5410611299576040517f08c379a000000000000000000000000000000000000000000000000000000000815260040161129090613fe4565b60405180910390fd5b6000600e5490506112aa3382611d30565b600e60008154809291906112bd90614033565b919050555050565b6000600560008473ffffffffffffffffffffffffffffffffffffffff1673ffffffffffffffffffffffffffffffffffffffff16815260200190815260200160002060008373ffffffffffffffffffffffffffffffffffffffff1673ffffffffffffffffffffffffffffffffffffffff16815260200190815260200160002060009054906101000a900460ff16905092915050565b60007f01ffc9a7000000000000000000000000000000000000000000000000000000007bffffffffffffffffffffffffffffffffffffffffffffffffffffffff1916827bffffffffffffffffffffffffffffffffffffffffffffffffffffffff1916149050919050565b6000806113cf83611d4e565b9050600073ffffffffffffffffffffffffffffffffffffffff168173ffffffffffffffffffffffffffffffffffffffff160361144257826040517f7e27328900000000000000000000000000000000000000000000000000000000815260040161143991906138c3565b60405180910390fd5b80915050919050565b60006004600083815260200190815260200160002060009054906101000a900473ffffffffffffffffffffffffffffffffffffffff169050919050565b600033905090565b61149d8383836001611d8b565b505050565b60006114af848484611f50565b90509392505050565b600065ffffffffffff801682111561150a576030826040517f6dfcc6500000000000000000000000000000000000000000000000000000000081526004016115019291906140c0565b60405180910390fd5b819050919050565b60008083600001805490509050600080829050600583111561159a57600061153984611f77565b8461154491906140e9565b90506115538760000182612114565b60000160009054906101000a900465ffffffffffff1665ffffffffffff168665ffffffffffff16101561158857809150611598565b600181611595919061411d565b92505b505b60006115ab87600001878585612129565b9050600081146115fd576115ce876000016001836115c991906140e9565b612114565b60000160069054906101000a900479ffffffffffffffffffffffffffffffffffffffffffffffffffff16611600565b60005b94505050505092915050565b6000611617436114b8565b905090565b600061162783610c1b565b905081600960008573ffffffffffffffffffffffffffffffffffffffff1673ffffffffffffffffffffffffffffffffffffffff16815260200190815260200160002060006101000a81548173ffffffffffffffffffffffffffffffffffffffff021916908373ffffffffffffffffffffffffffffffffffffffff1602179055508173ffffffffffffffffffffffffffffffffffffffff168173ffffffffffffffffffffffffffffffffffffffff168473ffffffffffffffffffffffffffffffffffffffff167f3134e8a2e6d97e929a7e54011ea5485d7d196dd5f0ba4d4ef95803e8e3fc257f60405160405180910390a461172b8183611726866121a2565b6121b4565b505050565b606061176660067f000000000000000000000000000000000000000000000000000000000000000061242d90919063ffffffff16565b905090565b60606117a160077f000000000000000000000000000000000000000000000000000000000000000061242d90919063ffffffff16565b905090565b6000808260000180549050905060008114611803576117d4836000016001836117cf91906140e9565b612114565b60000160069054906101000a900479ffffffffffffffffffffffffffffffffffffffffffffffffffff16611806565b60005b915050919050565b600073ffffffffffffffffffffffffffffffffffffffff168273ffffffffffffffffffffffffffffffffffffffff160361187f57816040517f5b08ba1800000000000000000000000000000000000000000000000000000000815260040161187691906137da565b60405180910390fd5b80600560008573ffffffffffffffffffffffffffffffffffffffff1673ffffffffffffffffffffffffffffffffffffffff16815260200190815260200160002060008473ffffffffffffffffffffffffffffffffffffffff1673ffffffffffffffffffffffffffffffffffffffff16815260200190815260200160002060006101000a81548160ff0219169083151502179055508173ffffffffffffffffffffffffffffffffffffffff168373ffffffffffffffffffffffffffffffffffffffff167f17307eab39ab6107e8899845ad3d59bd9653f200f220920489ca2b5937696c3183604051611970919061367a565b60405180910390a3505050565b60008373ffffffffffffffffffffffffffffffffffffffff163b1115611b27578273ffffffffffffffffffffffffffffffffffffffff1663150b7a02868685856040518563ffffffff1660e01b81526004016119dc94939291906141a6565b6020604051808303816000875af1925050508015611a1857506040513d601f19601f82011682018060405250810190611a159190614207565b60015b611a9c573d8060008114611a48576040519150601f19603f3d011682016040523d82523d6000602084013e611a4d565b606091505b506000815103611a9457836040517f64a0ae92000000000000000000000000000000000000000000000000000000008152600401611a8b91906137da565b60405180910390fd5b805181602001fd5b63150b7a0260e01b7bffffffffffffffffffffffffffffffffffffffffffffffffffffffff1916817bffffffffffffffffffffffffffffffffffffffffffffffffffffffff191614611b2557836040517f64a0ae92000000000000000000000000000000000000000000000000000000008152600401611b1c91906137da565b60405180910390fd5b505b5050505050565b6000611b41611b3b6124dd565b83612594565b9050919050565b600080600080611b5a888888886125d5565b925092509250611b6a82826126c9565b829350505050949350505050565b6000611b838361282d565b9050808214611bcb5782816040517f752d88c0000000000000000000000000000000000000000000000000000000008152600401611bc2929190614234565b60405180910390fd5b505050565b6060600c8054611bdf90613e62565b80601f0160208091040260200160405190810160405280929190818152602001828054611c0b90613e62565b8015611c585780601f10611c2d57610100808354040283529160200191611c58565b820191906000526020600020905b815481529060010190602001808311611c3b57829003601f168201915b5050505050905090565b606060006001611c7184612884565b01905060008167ffffffffffffffff811115611c9057611c8f613b53565b5b6040519080825280601f01601f191660200182016040528015611cc25781602001600182028036833780820191505090505b509050600082602001820190505b600115611d25578080600190039150507f3031323334353637383961626364656600000000000000000000000000000000600a86061a8153600a8581611d1957611d1861425d565b5b04945060008503611cd0575b819350505050919050565b611d4a8282604051806020016040528060008152506129d7565b5050565b60006002600083815260200190815260200160002060009054906101000a900473ffffffffffffffffffffffffffffffffffffffff169050919050565b8080611dc45750600073ffffffffffffffffffffffffffffffffffffffff168273ffffffffffffffffffffffffffffffffffffffff1614155b15611ef8576000611dd4846113c3565b9050600073ffffffffffffffffffffffffffffffffffffffff168373ffffffffffffffffffffffffffffffffffffffff1614158015611e3f57508273ffffffffffffffffffffffffffffffffffffffff168173ffffffffffffffffffffffffffffffffffffffff1614155b8015611e525750611e5081846112c5565b155b15611e9457826040517fa9fbf51f000000000000000000000000000000000000000000000000000000008152600401611e8b91906137da565b60405180910390fd5b8115611ef657838573ffffffffffffffffffffffffffffffffffffffff168273ffffffffffffffffffffffffffffffffffffffff167f8c5be1e5ebec7d5bd14f71427d1e84f3dd0314c0f7b2291e5b200ac8c7c3b92560405160405180910390a45b505b836004600085815260200190815260200160002060006101000a81548173ffffffffffffffffffffffffffffffffffffffff021916908373ffffffffffffffffffffffffffffffffffffffff16021790555050505050565b600080611f5e8585856129fb565b9050611f6c81866001612c15565b809150509392505050565b600060018211611f895781905061210f565b60008290506000600190507001000000000000000000000000000000008210611fbb57608082901c9150604081901b90505b680100000000000000008210611fda57604082901c9150602081901b90505b6401000000008210611ff557602082901c9150601081901b90505b62010000821061200e57601082901c9150600881901b90505b610100821061202657600882901c9150600481901b90505b6010821061203d57600482901c9150600281901b90505b6004821061204d57600181901b90505b600181600302901c905060018185816120695761206861425d565b5b048201901c905060018185816120825761208161425d565b5b048201901c9050600181858161209b5761209a61425d565b5b048201901c905060018185816120b4576120b361425d565b5b048201901c905060018185816120cd576120cc61425d565b5b048201901c905060018185816120e6576120e561425d565b5b048201901c9050612108818581612100576120ff61425d565b5b048211612ccf565b8103925050505b919050565b60008260005281602060002001905092915050565b60005b818310156121975760006121408484612cdb565b90508465ffffffffffff166121558783612114565b60000160009054906101000a900465ffffffffffff1665ffffffffffff16111561218157809250612191565b60018161218e919061411d565b93505b5061212c565b819050949350505050565b60006121ad82610cb6565b9050919050565b8173ffffffffffffffffffffffffffffffffffffffff168373ffffffffffffffffffffffffffffffffffffffff16141580156121f05750600081115b1561242857600073ffffffffffffffffffffffffffffffffffffffff168373ffffffffffffffffffffffffffffffffffffffff161461230e5760008061227f600a60008773ffffffffffffffffffffffffffffffffffffffff1673ffffffffffffffffffffffffffffffffffffffff168152602001908152602001600020612d0161227a86612d17565b612d85565b79ffffffffffffffffffffffffffffffffffffffffffffffffffff16915079ffffffffffffffffffffffffffffffffffffffffffffffffffff1691508473ffffffffffffffffffffffffffffffffffffffff167fdec2bacdd2f05b59de34da9b523dff8be42e5e38e818c82fdb0bae774387a724838360405161230392919061428c565b60405180910390a250505b600073ffffffffffffffffffffffffffffffffffffffff168273ffffffffffffffffffffffffffffffffffffffff161461242757600080612398600a60008673ffffffffffffffffffffffffffffffffffffffff1673ffffffffffffffffffffffffffffffffffffffff168152602001908152602001600020612dc561239386612d17565b612d85565b79ffffffffffffffffffffffffffffffffffffffffffffffffffff16915079ffffffffffffffffffffffffffffffffffffffffffffffffffff1691508373ffffffffffffffffffffffffffffffffffffffff167fdec2bacdd2f05b59de34da9b523dff8be42e5e38e818c82fdb0bae774387a724838360405161241c92919061428c565b60405180910390a250505b5b505050565b606060ff60001b831461244a5761244383612ddb565b90506124d7565b81805461245690613e62565b80601f016020809104026020016040519081016040528092919081815260200182805461248290613e62565b80156124cf5780601f106124a4576101008083540402835291602001916124cf565b820191906000526020600020905b8154815290600101906020018083116124b257829003601f168201915b505050505090505b92915050565b60007f000000000000000000000000000000000000000000000000000000000000000073ffffffffffffffffffffffffffffffffffffffff163073ffffffffffffffffffffffffffffffffffffffff1614801561255957507f000000000000000000000000000000000000000000000000000000000000000046145b15612586577f00000000000000000000000000000000000000000000000000000000000000009050612591565b61258e612e4f565b90505b90565b60006040517f190100000000000000000000000000000000000000000000000000000000000081528360028201528260228201526042812091505092915050565b60008060007f7fffffffffffffffffffffffffffffff5d576e7357a4501ddfe92f46681b20a08460001c11156126155760006003859250925092506126bf565b60006001888888886040516000815260200160405260405161263a94939291906142c4565b6020604051602081039080840390855afa15801561265c573d6000803e3d6000fd5b505050602060405103519050600073ffffffffffffffffffffffffffffffffffffffff168173ffffffffffffffffffffffffffffffffffffffff16036126b057600060016000801b935093509350506126bf565b8060008060001b935093509350505b9450945094915050565b600060038111156126dd576126dc614309565b5b8260038111156126f0576126ef614309565b5b0315612829576001600381111561270a57612709614309565b5b82600381111561271d5761271c614309565b5b03612754576040517ff645eedf00000000000000000000000000000000000000000000000000000000815260040160405180910390fd5b6002600381111561276857612767614309565b5b82600381111561277b5761277a614309565b5b036127c0578060001c6040517ffce698f70000000000000000000000000000000000000000000000000000000081526004016127b791906138c3565b60405180910390fd5b6003808111156127d3576127d2614309565b5b8260038111156127e6576127e5614309565b5b0361282857806040517fd78bce0c00000000000000000000000000000000000000000000000000000000815260040161281f9190614338565b60405180910390fd5b5b5050565b6000600860008373ffffffffffffffffffffffffffffffffffffffff1673ffffffffffffffffffffffffffffffffffffffff1681526020019081526020016000206000815480929190600101919050559050919050565b600080600090507a184f03e93ff9f4daa797ed6e38ed64bf6a1f01000000000000000083106128e2577a184f03e93ff9f4daa797ed6e38ed64bf6a1f01000000000000000083816128d8576128d761425d565b5b0492506040810190505b6d04ee2d6d415b85acef8100000000831061291f576d04ee2d6d415b85acef810000000083816129155761291461425d565b5b0492506020810190505b662386f26fc10000831061294e57662386f26fc1000083816129445761294361425d565b5b0492506010810190505b6305f5e1008310612977576305f5e100838161296d5761296c61425d565b5b0492506008810190505b612710831061299c5761271083816129925761299161425d565b5b0492506004810190505b606483106129bf57606483816129b5576129b461425d565b5b0492506002810190505b600a83106129ce576001810190505b80915050919050565b6129e18383612ee5565b6129f66129ec611488565b600085858561197d565b505050565b600080612a0784611d4e565b9050600073ffffffffffffffffffffffffffffffffffffffff168373ffffffffffffffffffffffffffffffffffffffff1614612a4957612a48818486612fde565b5b600073ffffffffffffffffffffffffffffffffffffffff168173ffffffffffffffffffffffffffffffffffffffff1614612ada57612a8b600085600080611d8b565b6001600360008373ffffffffffffffffffffffffffffffffffffffff1673ffffffffffffffffffffffffffffffffffffffff168152602001908152602001600020600082825403925050819055505b600073ffffffffffffffffffffffffffffffffffffffff168573ffffffffffffffffffffffffffffffffffffffff1614612b5d576001600360008773ffffffffffffffffffffffffffffffffffffffff1673ffffffffffffffffffffffffffffffffffffffff168152602001908152602001600020600082825401925050819055505b846002600086815260200190815260200160002060006101000a81548173ffffffffffffffffffffffffffffffffffffffff021916908373ffffffffffffffffffffffffffffffffffffffff160217905550838573ffffffffffffffffffffffffffffffffffffffff168273ffffffffffffffffffffffffffffffffffffffff167fddf252ad1be2c89b69c2b068fc378daa952ba7f163c4a11628f55a4df523b3ef60405160405180910390a4809150509392505050565b600073ffffffffffffffffffffffffffffffffffffffff168373ffffffffffffffffffffffffffffffffffffffff1603612c6257612c5f600b612dc5612c5a84612d17565b612d85565b50505b600073ffffffffffffffffffffffffffffffffffffffff168273ffffffffffffffffffffffffffffffffffffffff1603612caf57612cac600b612d01612ca784612d17565b612d85565b50505b612cca612cbb84610c1b565b612cc484610c1b565b836121b4565b505050565b60008115159050919050565b60006002828418612cec9190614353565b828416612cf9919061411d565b905092915050565b60008183612d0f91906143aa565b905092915050565b600079ffffffffffffffffffffffffffffffffffffffffffffffffffff8016821115612d7d5760d0826040517f6dfcc650000000000000000000000000000000000000000000000000000000008152600401612d74929190614433565b60405180910390fd5b819050919050565b600080612db9612d93610f08565b612da9612d9f886117a6565b868863ffffffff16565b876130a29092919063ffffffff16565b91509150935093915050565b60008183612dd3919061445c565b905092915050565b60606000612de8836130bf565b90506000602067ffffffffffffffff811115612e0757612e06613b53565b5b6040519080825280601f01601f191660200182016040528015612e395781602001600182028036833780820191505090505b5090508181528360208201528092505050919050565b60007f8b73c3c69bb8fe3d512ecc4cf759cc79239f7b179b0ffacaa9a75d522b39400f7f00000000000000000000000000000000000000000000000000000000000000007f00000000000000000000000000000000000000000000000000000000000000004630604051602001612eca9594939291906144aa565b60405160208183030381529060405280519060200120905090565b600073ffffffffffffffffffffffffffffffffffffffff168273ffffffffffffffffffffffffffffffffffffffff1603612f575760006040517f64a0ae92000000000000000000000000000000000000000000000000000000008152600401612f4e91906137da565b60405180910390fd5b6000612f65838360006114a2565b9050600073ffffffffffffffffffffffffffffffffffffffff168173ffffffffffffffffffffffffffffffffffffffff1614612fd95760006040517f73c6ac6e000000000000000000000000000000000000000000000000000000008152600401612fd091906137da565b60405180910390fd5b505050565b612fe983838361310f565b61309d57600073ffffffffffffffffffffffffffffffffffffffff168373ffffffffffffffffffffffffffffffffffffffff160361305e57806040517f7e27328900000000000000000000000000000000000000000000000000000000815260040161305591906138c3565b60405180910390fd5b81816040517f177e802f000000000000000000000000000000000000000000000000000000008152600401613094929190614234565b60405180910390fd5b505050565b6000806130b38560000185856131d0565b91509150935093915050565b60008060ff8360001c169050601f811115613106576040517fb3512b0c00000000000000000000000000000000000000000000000000000000815260040160405180910390fd5b80915050919050565b60008073ffffffffffffffffffffffffffffffffffffffff168373ffffffffffffffffffffffffffffffffffffffff16141580156131c757508273ffffffffffffffffffffffffffffffffffffffff168473ffffffffffffffffffffffffffffffffffffffff161480613188575061318784846112c5565b5b806131c657508273ffffffffffffffffffffffffffffffffffffffff166131ae8361144b565b73ffffffffffffffffffffffffffffffffffffffff16145b5b90509392505050565b60008060008580549050905060008111156133ed5760006131fd876001846131f891906140e9565b612114565b905060008160000160009054906101000a900465ffffffffffff16905060008260000160069054906101000a900479ffffffffffffffffffffffffffffffffffffffffffffffffffff1690508765ffffffffffff168265ffffffffffff161115613293576040517f2520601d00000000000000000000000000000000000000000000000000000000815260040160405180910390fd5b8765ffffffffffff168265ffffffffffff16036132fe57868360000160066101000a81548179ffffffffffffffffffffffffffffffffffffffffffffffffffff021916908379ffffffffffffffffffffffffffffffffffffffffffffffffffff1602179055506133de565b8860405180604001604052808a65ffffffffffff1681526020018979ffffffffffffffffffffffffffffffffffffffffffffffffffff168152509080600181540180825580915050600190039060005260206000200160009091909190915060008201518160000160006101000a81548165ffffffffffff021916908365ffffffffffff16021790555060208201518160000160066101000a81548179ffffffffffffffffffffffffffffffffffffffffffffffffffff021916908379ffffffffffffffffffffffffffffffffffffffffffffffffffff16021790555050505b808795509550505050506134d5565b8560405180604001604052808765ffffffffffff1681526020018679ffffffffffffffffffffffffffffffffffffffffffffffffffff168152509080600181540180825580915050600190039060005260206000200160009091909190915060008201518160000160006101000a81548165ffffffffffff021916908365ffffffffffff16021790555060208201518160000160066101000a81548179ffffffffffffffffffffffffffffffffffffffffffffffffffff021916908379ffffffffffffffffffffffffffffffffffffffffffffffffffff160217905550505060008492509250505b935093915050565b600081905092915050565b50565b60006134f86000836134dd565b9150613503826134e8565b600082019050919050565b6000613519826134eb565b9150819050919050565b600082825260208201905092915050565b7f4661696c656420746f20666f72776172642045544820746f205344555344206360008201527f6f6e747261637400000000000000000000000000000000000000000000000000602082015250565b6000613590602783613523565b915061359b82613534565b604082019050919050565b600060208201905081810360008301526135bf81613583565b9050919050565b6000604051905090565b600080fd5b600080fd5b60007fffffffff0000000000000000000000000000000000000000000000000000000082169050919050565b61360f816135da565b811461361a57600080fd5b50565b60008135905061362c81613606565b92915050565b600060208284031215613648576136476135d0565b5b60006136568482850161361d565b91505092915050565b60008115159050919050565b6136748161365f565b82525050565b600060208201905061368f600083018461366b565b92915050565b600081519050919050565b60005b838110156136be5780820151818401526020810190506136a3565b60008484015250505050565b6000601f19601f8301169050919050565b60006136e682613695565b6136f08185613523565b93506137008185602086016136a0565b613709816136ca565b840191505092915050565b6000602082019050818103600083015261372e81846136db565b905092915050565b6000819050919050565b61374981613736565b811461375457600080fd5b50565b60008135905061376681613740565b92915050565b600060208284031215613782576137816135d0565b5b600061379084828501613757565b91505092915050565b600073ffffffffffffffffffffffffffffffffffffffff82169050919050565b60006137c482613799565b9050919050565b6137d4816137b9565b82525050565b60006020820190506137ef60008301846137cb565b92915050565b6137fe816137b9565b811461380957600080fd5b50565b60008135905061381b816137f5565b92915050565b60008060408385031215613838576138376135d0565b5b60006138468582860161380c565b925050602061385785828601613757565b9150509250929050565b60008060006060848603121561387a576138796135d0565b5b60006138888682870161380c565b93505060206138998682870161380c565b92505060406138aa86828701613757565b9150509250925092565b6138bd81613736565b82525050565b60006020820190506138d860008301846138b4565b92915050565b6000602082840312156138f4576138f36135d0565b5b60006139028482850161380c565b91505092915050565b60007fff0000000000000000000000000000000000000000000000000000000000000082169050919050565b6139408161390b565b82525050565b6000819050919050565b61395981613946565b82525050565b600081519050919050565b600082825260208201905092915050565b6000819050602082019050919050565b61399481613736565b82525050565b60006139a6838361398b565b60208301905092915050565b6000602082019050919050565b60006139ca8261395f565b6139d4818561396a565b93506139df8361397b565b8060005b83811015613a105781516139f7888261399a565b9750613a02836139b2565b9250506001810190506139e3565b5085935050505092915050565b600060e082019050613a32600083018a613937565b8181036020830152613a4481896136db565b90508181036040830152613a5881886136db565b9050613a6760608301876138b4565b613a7460808301866137cb565b613a8160a0830185613950565b81810360c0830152613a9381846139bf565b905098975050505050505050565b600065ffffffffffff82169050919050565b613abc81613aa1565b82525050565b6000602082019050613ad76000830184613ab3565b92915050565b613ae68161365f565b8114613af157600080fd5b50565b600081359050613b0381613add565b92915050565b60008060408385031215613b2057613b1f6135d0565b5b6000613b2e8582860161380c565b9250506020613b3f85828601613af4565b9150509250929050565b600080fd5b600080fd5b7f4e487b7100000000000000000000000000000000000000000000000000000000600052604160045260246000fd5b613b8b826136ca565b810181811067ffffffffffffffff82111715613baa57613ba9613b53565b5b80604052505050565b6000613bbd6135c6565b9050613bc98282613b82565b919050565b600067ffffffffffffffff821115613be957613be8613b53565b5b613bf2826136ca565b9050602081019050919050565b82818337600083830152505050565b6000613c21613c1c84613bce565b613bb3565b905082815260208101848484011115613c3d57613c3c613b4e565b5b613c48848285613bff565b509392505050565b600082601f830112613c6557613c64613b49565b5b8135613c75848260208601613c0e565b91505092915050565b60008060008060808587031215613c9857613c976135d0565b5b6000613ca68782880161380c565b9450506020613cb78782880161380c565b9350506040613cc887828801613757565b925050606085013567ffffffffffffffff811115613ce957613ce86135d5565b5b613cf587828801613c50565b91505092959194509250565b600060ff82169050919050565b613d1781613d01565b8114613d2257600080fd5b50565b600081359050613d3481613d0e565b92915050565b613d4381613946565b8114613d4e57600080fd5b50565b600081359050613d6081613d3a565b92915050565b60008060008060008060c08789031215613d8357613d826135d0565b5b6000613d9189828a0161380c565b9650506020613da289828a01613757565b9550506040613db389828a01613757565b9450506060613dc489828a01613d25565b9350506080613dd589828a01613d51565b92505060a0613de689828a01613d51565b9150509295509295509295565b60008060408385031215613e0a57613e096135d0565b5b6000613e188582860161380c565b9250506020613e298582860161380c565b9150509250929050565b7f4e487b7100000000000000000000000000000000000000000000000000000000600052602260045260246000fd5b60006002820490506001821680613e7a57607f821691505b602082108103613e8d57613e8c613e33565b5b50919050565b6000606082019050613ea860008301866137cb565b613eb560208301856138b4565b613ec260408301846137cb565b949350505050565b6000604082019050613edf60008301856138b4565b613eec6020830184613ab3565b9392505050565b6000608082019050613f086000830187613950565b613f1560208301866137cb565b613f2260408301856138b4565b613f2f60608301846138b4565b95945050505050565b600081905092915050565b6000613f4e82613695565b613f588185613f38565b9350613f688185602086016136a0565b80840191505092915050565b6000613f808285613f43565b9150613f8c8284613f43565b91508190509392505050565b7f536f6c64206f7574000000000000000000000000000000000000000000000000600082015250565b6000613fce600883613523565b9150613fd982613f98565b602082019050919050565b60006020820190508181036000830152613ffd81613fc1565b9050919050565b7f4e487b7100000000000000000000000000000000000000000000000000000000600052601160045260246000fd5b600061403e82613736565b91507fffffffffffffffffffffffffffffffffffffffffffffffffffffffffffffffff82036140705761406f614004565b5b600182019050919050565b6000819050919050565b6000819050919050565b60006140aa6140a56140a08461407b565b614085565b613d01565b9050919050565b6140ba8161408f565b82525050565b60006040820190506140d560008301856140b1565b6140e260208301846138b4565b9392505050565b60006140f482613736565b91506140ff83613736565b925082820390508181111561411757614116614004565b5b92915050565b600061412882613736565b915061413383613736565b925082820190508082111561414b5761414a614004565b5b92915050565b600081519050919050565b600082825260208201905092915050565b600061417882614151565b614182818561415c565b93506141928185602086016136a0565b61419b816136ca565b840191505092915050565b60006080820190506141bb60008301876137cb565b6141c860208301866137cb565b6141d560408301856138b4565b81810360608301526141e7818461416d565b905095945050505050565b60008151905061420181613606565b92915050565b60006020828403121561421d5761421c6135d0565b5b600061422b848285016141f2565b91505092915050565b600060408201905061424960008301856137cb565b61425660208301846138b4565b9392505050565b7f4e487b7100000000000000000000000000000000000000000000000000000000600052601260045260246000fd5b60006040820190506142a160008301856138b4565b6142ae60208301846138b4565b9392505050565b6142be81613d01565b82525050565b60006080820190506142d96000830187613950565b6142e660208301866142b5565b6142f36040830185613950565b6143006060830184613950565b95945050505050565b7f4e487b7100000000000000000000000000000000000000000000000000000000600052602160045260246000fd5b600060208201905061434d6000830184613950565b92915050565b600061435e82613736565b915061436983613736565b9250826143795761437861425d565b5b828204905092915050565b600079ffffffffffffffffffffffffffffffffffffffffffffffffffff82169050919050565b60006143b582614384565b91506143c083614384565b9250828203905079ffffffffffffffffffffffffffffffffffffffffffffffffffff8111156143f2576143f1614004565b5b92915050565b6000819050919050565b600061441d614418614413846143f8565b614085565b613d01565b9050919050565b61442d81614402565b82525050565b60006040820190506144486000830185614424565b61445560208301846138b4565b9392505050565b600061446782614384565b915061447283614384565b9250828201905079ffffffffffffffffffffffffffffffffffffffffffffffffffff8111156144a4576144a3614004565b5b92915050565b600060a0820190506144bf6000830188613950565b6144cc6020830187613950565b6144d96040830186613950565b6144e660608301856138b4565b6144f360808301846137cb565b969550505050505056fea26469706673582212202c410965409897d1eed3860d0f88a0497d55557cbad5148e24faf8d3b216a29564736f6c634300081b0033",
  "devdoc": {
    "errors": {
      "CheckpointUnorderedInsertion()": [
        {
          "details": "A value was attempted to be inserted on a past checkpoint."
        }
      ],
      "ECDSAInvalidSignature()": [
        {
          "details": "The signature derives the `address(0)`."
        }
      ],
      "ECDSAInvalidSignatureLength(uint256)": [
        {
          "details": "The signature has an invalid length."
        }
      ],
      "ECDSAInvalidSignatureS(bytes32)": [
        {
          "details": "The signature has an S value that is in the upper half order."
        }
      ],
      "ERC5805FutureLookup(uint256,uint48)": [
        {
          "details": "Lookup to future votes is not available."
        }
      ],
      "ERC6372InconsistentClock()": [
        {
          "details": "The clock was incorrectly modified."
        }
      ],
      "ERC721IncorrectOwner(address,uint256,address)": [
        {
          "details": "Indicates an error related to the ownership over a particular token. Used in transfers.",
          "params": {
            "owner": "Address of the current owner of a token.",
            "sender": "Address whose tokens are being transferred.",
            "tokenId": "Identifier number of a token."
          }
        }
      ],
      "ERC721InsufficientApproval(address,uint256)": [
        {
          "details": "Indicates a failure with the `operator`s approval. Used in transfers.",
          "params": {
            "operator": "Address that may be allowed to operate on tokens without being their owner.",
            "tokenId": "Identifier number of a token."
          }
        }
      ],
      "ERC721InvalidApprover(address)": [
        {
          "details": "Indicates a failure with the `approver` of a token to be approved. Used in approvals.",
          "params": {
            "approver": "Address initiating an approval operation."
          }
        }
      ],
      "ERC721InvalidOperator(address)": [
        {
          "details": "Indicates a failure with the `operator` to be approved. Used in approvals.",
          "params": {
            "operator": "Address that may be allowed to operate on tokens without being their owner."
          }
        }
      ],
      "ERC721InvalidOwner(address)": [
        {
          "details": "Indicates that an address can't be an owner. For example, `address(0)` is a forbidden owner in ERC-20. Used in balance queries.",
          "params": {
            "owner": "Address of the current owner of a token."
          }
        }
      ],
      "ERC721InvalidReceiver(address)": [
        {
          "details": "Indicates a failure with the token `receiver`. Used in transfers.",
          "params": {
            "receiver": "Address to which tokens are being transferred."
          }
        }
      ],
      "ERC721InvalidSender(address)": [
        {
          "details": "Indicates a failure with the token `sender`. Used in transfers.",
          "params": {
            "sender": "Address whose tokens are being transferred."
          }
        }
      ],
      "ERC721NonexistentToken(uint256)": [
        {
          "details": "Indicates a `tokenId` whose `owner` is the zero address.",
          "params": {
            "tokenId": "Identifier number of a token."
          }
        }
      ],
      "InvalidAccountNonce(address,uint256)": [
        {
          "details": "The nonce used for an `account` is not the expected current nonce."
        }
      ],
      "SafeCastOverflowedUintDowncast(uint8,uint256)": [
        {
          "details": "Value doesn't fit in an uint of `bits` size."
        }
      ],
      "VotesExpiredSignature(uint256)": [
        {
          "details": "The signature used has expired."
        }
      ]
    },
    "events": {
      "Approval(address,address,uint256)": {
        "details": "Emitted when `owner` enables `approved` to manage the `tokenId` token."
      },
      "ApprovalForAll(address,address,bool)": {
        "details": "Emitted when `owner` enables or disables (`approved`) `operator` to manage all of its assets."
      },
      "DelegateChanged(address,address,address)": {
        "details": "Emitted when an account changes their delegate."
      },
      "DelegateVotesChanged(address,uint256,uint256)": {
        "details": "Emitted when a token transfer or delegate change results in changes to a delegate's number of voting units."
      },
      "EIP712DomainChanged()": {
        "details": "MAY be emitted to signal that the domain could have changed."
      },
      "Transfer(address,address,uint256)": {
        "details": "Emitted when `tokenId` token is transferred from `from` to `to`."
      }
    },
    "kind": "dev",
    "methods": {
      "CLOCK_MODE()": {
        "details": "Machine-readable description of the clock as specified in ERC-6372."
      },
      "approve(address,uint256)": {
        "details": "See {IERC721-approve}."
      },
      "balanceOf(address)": {
        "details": "See {IERC721-balanceOf}."
      },
      "clock()": {
        "details": "Clock used for flagging checkpoints. Can be overridden to implement timestamp based checkpoints (and voting), in which case {CLOCK_MODE} should be overridden as well to match."
      },
      "delegate(address)": {
        "details": "Delegates votes from the sender to `delegatee`."
      },
      "delegateBySig(address,uint256,uint256,uint8,bytes32,bytes32)": {
        "details": "Delegates votes from signer to `delegatee`."
      },
      "delegates(address)": {
        "details": "Returns the delegate that `account` has chosen."
      },
      "eip712Domain()": {
        "details": "See {IERC-5267}."
      },
      "getApproved(uint256)": {
        "details": "See {IERC721-getApproved}."
      },
      "getPastTotalSupply(uint256)": {
        "details": "Returns the total supply of votes available at a specific moment in the past. If the `clock()` is configured to use block numbers, this will return the value at the end of the corresponding block. NOTE: This value is the sum of all available votes, which is not necessarily the sum of all delegated votes. Votes that have not been delegated are still part of total supply, even though they would not participate in a vote. Requirements: - `timepoint` must be in the past. If operating using block numbers, the block must be already mined."
      },
      "getPastVotes(address,uint256)": {
        "details": "Returns the amount of votes that `account` had at a specific moment in the past. If the `clock()` is configured to use block numbers, this will return the value at the end of the corresponding block. Requirements: - `timepoint` must be in the past. If operating using block numbers, the block must be already mined."
      },
      "getVotes(address)": {
        "details": "Returns the current amount of votes that `account` has."
      },
      "isApprovedForAll(address,address)": {
        "details": "See {IERC721-isApprovedForAll}."
      },
      "name()": {
        "details": "See {IERC721Metadata-name}."
      },
      "nonces(address)": {
        "details": "Returns the next unused nonce for an address."
      },
      "ownerOf(uint256)": {
        "details": "See {IERC721-ownerOf}."
      },
      "safeTransferFrom(address,address,uint256)": {
        "details": "See {IERC721-safeTransferFrom}."
      },
      "safeTransferFrom(address,address,uint256,bytes)": {
        "details": "See {IERC721-safeTransferFrom}."
      },
      "setApprovalForAll(address,bool)": {
        "details": "See {IERC721-setApprovalForAll}."
      },
      "supportsInterface(bytes4)": {
        "details": "See {IERC165-supportsInterface}."
      },
      "symbol()": {
        "details": "See {IERC721Metadata-symbol}."
      },
      "tokenURI(uint256)": {
        "details": "See {IERC721Metadata-tokenURI}."
      },
      "transferFrom(address,address,uint256)": {
        "details": "See {IERC721-transferFrom}."
      }
    },
    "version": 1
  },
  "userdoc": {
    "kind": "user",
    "methods": {},
    "version": 1
  },
  "storageLayout": {
    "storage": [
      {
        "astId": 6869,
        "contract": "contracts/SDNFT.sol:SDNFT",
        "label": "_name",
        "offset": 0,
        "slot": "0",
        "type": "t_string_storage"
      },
      {
        "astId": 6871,
        "contract": "contracts/SDNFT.sol:SDNFT",
        "label": "_symbol",
        "offset": 0,
        "slot": "1",
        "type": "t_string_storage"
      },
      {
        "astId": 6875,
        "contract": "contracts/SDNFT.sol:SDNFT",
        "label": "_owners",
        "offset": 0,
        "slot": "2",
        "type": "t_mapping(t_uint256,t_address)"
      },
      {
        "astId": 6879,
        "contract": "contracts/SDNFT.sol:SDNFT",
        "label": "_balances",
        "offset": 0,
        "slot": "3",
        "type": "t_mapping(t_address,t_uint256)"
      },
      {
        "astId": 6883,
        "contract": "contracts/SDNFT.sol:SDNFT",
        "label": "_tokenApprovals",
        "offset": 0,
        "slot": "4",
        "type": "t_mapping(t_uint256,t_address)"
      },
      {
        "astId": 6889,
        "contract": "contracts/SDNFT.sol:SDNFT",
        "label": "_operatorApprovals",
        "offset": 0,
        "slot": "5",
        "type": "t_mapping(t_address,t_mapping(t_address,t_bool))"
      },
      {
        "astId": 9689,
        "contract": "contracts/SDNFT.sol:SDNFT",
        "label": "_nameFallback",
        "offset": 0,
        "slot": "6",
        "type": "t_string_storage"
      },
      {
        "astId": 9691,
        "contract": "contracts/SDNFT.sol:SDNFT",
        "label": "_versionFallback",
        "offset": 0,
        "slot": "7",
        "type": "t_string_storage"
      },
      {
        "astId": 8468,
        "contract": "contracts/SDNFT.sol:SDNFT",
        "label": "_nonces",
        "offset": 0,
        "slot": "8",
        "type": "t_mapping(t_address,t_uint256)"
      },
      {
        "astId": 5059,
        "contract": "contracts/SDNFT.sol:SDNFT",
        "label": "_delegatee",
        "offset": 0,
        "slot": "9",
        "type": "t_mapping(t_address,t_address)"
      },
      {
        "astId": 5064,
        "contract": "contracts/SDNFT.sol:SDNFT",
        "label": "_delegateCheckpoints",
        "offset": 0,
        "slot": "10",
        "type": "t_mapping(t_address,t_struct(Trace208)14149_storage)"
      },
      {
        "astId": 5067,
        "contract": "contracts/SDNFT.sol:SDNFT",
        "label": "_totalCheckpoints",
        "offset": 0,
        "slot": "11",
        "type": "t_struct(Trace208)14149_storage"
      },
      {
        "astId": 15837,
        "contract": "contracts/SDNFT.sol:SDNFT",
        "label": "baseTokenURI",
        "offset": 0,
        "slot": "12",
        "type": "t_string_storage"
      },
      {
        "astId": 15840,
        "contract": "contracts/SDNFT.sol:SDNFT",
        "label": "price",
        "offset": 0,
        "slot": "13",
        "type": "t_uint256"
      },
      {
        "astId": 15843,
        "contract": "contracts/SDNFT.sol:SDNFT",
        "label": "counter",
        "offset": 0,
        "slot": "14",
        "type": "t_uint256"
      },
      {
        "astId": 15845,
        "contract": "contracts/SDNFT.sol:SDNFT",
        "label": "sdusdTokenAddress",
        "offset": 0,
        "slot": "15",
        "type": "t_address"
      }
    ],
    "types": {
      "t_address": {
        "encoding": "inplace",
        "label": "address",
        "numberOfBytes": "20"
      },
      "t_array(t_struct(Checkpoint208)14154_storage)dyn_storage": {
        "base": "t_struct(Checkpoint208)14154_storage",
        "encoding": "dynamic_array",
        "label": "struct Checkpoints.Checkpoint208[]",
        "numberOfBytes": "32"
      },
      "t_bool": {
        "encoding": "inplace",
        "label": "bool",
        "numberOfBytes": "1"
      },
      "t_mapping(t_address,t_address)": {
        "encoding": "mapping",
        "key": "t_address",
        "label": "mapping(address => address)",
        "numberOfBytes": "32",
        "value": "t_address"
      },
      "t_mapping(t_address,t_bool)": {
        "encoding": "mapping",
        "key": "t_address",
        "label": "mapping(address => bool)",
        "numberOfBytes": "32",
        "value": "t_bool"
      },
      "t_mapping(t_address,t_mapping(t_address,t_bool))": {
        "encoding": "mapping",
        "key": "t_address",
        "label": "mapping(address => mapping(address => bool))",
        "numberOfBytes": "32",
        "value": "t_mapping(t_address,t_bool)"
      },
      "t_mapping(t_address,t_struct(Trace208)14149_storage)": {
        "encoding": "mapping",
        "key": "t_address",
        "label": "mapping(address => struct Checkpoints.Trace208)",
        "numberOfBytes": "32",
        "value": "t_struct(Trace208)14149_storage"
      },
      "t_mapping(t_address,t_uint256)": {
        "encoding": "mapping",
        "key": "t_address",
        "label": "mapping(address => uint256)",
        "numberOfBytes": "32",
        "value": "t_uint256"
      },
      "t_mapping(t_uint256,t_address)": {
        "encoding": "mapping",
        "key": "t_uint256",
        "label": "mapping(uint256 => address)",
        "numberOfBytes": "32",
        "value": "t_address"
      },
      "t_string_storage": {
        "encoding": "bytes",
        "label": "string",
        "numberOfBytes": "32"
      },
      "t_struct(Checkpoint208)14154_storage": {
        "encoding": "inplace",
        "label": "struct Checkpoints.Checkpoint208",
        "members": [
          {
            "astId": 14151,
            "contract": "contracts/SDNFT.sol:SDNFT",
            "label": "_key",
            "offset": 0,
            "slot": "0",
            "type": "t_uint48"
          },
          {
            "astId": 14153,
            "contract": "contracts/SDNFT.sol:SDNFT",
            "label": "_value",
            "offset": 6,
            "slot": "0",
            "type": "t_uint208"
          }
        ],
        "numberOfBytes": "32"
      },
      "t_struct(Trace208)14149_storage": {
        "encoding": "inplace",
        "label": "struct Checkpoints.Trace208",
        "members": [
          {
            "astId": 14148,
            "contract": "contracts/SDNFT.sol:SDNFT",
            "label": "_checkpoints",
            "offset": 0,
            "slot": "0",
            "type": "t_array(t_struct(Checkpoint208)14154_storage)dyn_storage"
          }
        ],
        "numberOfBytes": "32"
      },
      "t_uint208": {
        "encoding": "inplace",
        "label": "uint208",
        "numberOfBytes": "26"
      },
      "t_uint256": {
        "encoding": "inplace",
        "label": "uint256",
        "numberOfBytes": "32"
      },
      "t_uint48": {
        "encoding": "inplace",
        "label": "uint48",
        "numberOfBytes": "6"
      }
    }
  }
}