{
  "address": "0xDc64a140Aa3E981100a9becA4E685f962f0cF6C9",
  "abi": [
    {
      "inputs": [
        {
          "internalType": "contract IVotes",
          "name": "_token",
          "type": "address"
        },
        {
          "internalType": "contract TimelockController",
          "name": "_timelock",
          "type": "address"
        },
        {
          "internalType": "uint256",
          "name": "_quorumPercentage",
          "type": "uint256"
        },
        {
          "internalType": "uint256",
          "name": "_votingPowerThreshold",
          "type": "uint256"
        },
        {
          "internalType": "contract SDUSD",
          "name": "_sdusd",
          "type": "address"
        },
        {
          "internalType": "contract SDNFT",
          "name": "_votingNFT",
          "type": "address"
        }
      ],
      "stateMutability": "nonpayable",
      "type": "constructor"
    },
    {
      "inputs": [],
      "name": "CheckpointUnorderedInsertion",
      "type": "error"
    },
    {
      "inputs": [],
      "name": "FailedCall",
      "type": "error"
    },
    {
      "inputs": [
        {
          "internalType": "address",
          "name": "voter",
          "type": "address"
        }
      ],
      "name": "GovernorAlreadyCastVote",
      "type": "error"
    },
    {
      "inputs": [
        {
          "internalType": "uint256",
          "name": "proposalId",
          "type": "uint256"
        }
      ],
      "name": "GovernorAlreadyQueuedProposal",
      "type": "error"
    },
    {
      "inputs": [],
      "name": "GovernorDisabledDeposit",
      "type": "error"
    },
    {
      "inputs": [
        {
          "internalType": "address",
          "name": "proposer",
          "type": "address"
        },
        {
          "internalType": "uint256",
          "name": "votes",
          "type": "uint256"
        },
        {
          "internalType": "uint256",
          "name": "threshold",
          "type": "uint256"
        }
      ],
      "name": "GovernorInsufficientProposerVotes",
      "type": "error"
    },
    {
      "inputs": [
        {
          "internalType": "uint256",
          "name": "targets",
          "type": "uint256"
        },
        {
          "internalType": "uint256",
          "name": "calldatas",
          "type": "uint256"
        },
        {
          "internalType": "uint256",
          "name": "values",
          "type": "uint256"
        }
      ],
      "name": "GovernorInvalidProposalLength",
      "type": "error"
    },
    {
      "inputs": [
        {
          "internalType": "uint256",
          "name": "quorumNumerator",
          "type": "uint256"
        },
        {
          "internalType": "uint256",
          "name": "quorumDenominator",
          "type": "uint256"
        }
      ],
      "name": "GovernorInvalidQuorumFraction",
      "type": "error"
    },
    {
      "inputs": [
        {
          "internalType": "address",
          "name": "voter",
          "type": "address"
        }
      ],
      "name": "GovernorInvalidSignature",
      "type": "error"
    },
    {
      "inputs": [],
      "name": "GovernorInvalidVoteParams",
      "type": "error"
    },
    {
      "inputs": [],
      "name": "GovernorInvalidVoteType",
      "type": "error"
    },
    {
      "inputs": [
        {
          "internalType": "uint256",
          "name": "votingPeriod",
          "type": "uint256"
        }
      ],
      "name": "GovernorInvalidVotingPeriod",
      "type": "error"
    },
    {
      "inputs": [
        {
          "internalType": "uint256",
          "name": "proposalId",
          "type": "uint256"
        }
      ],
      "name": "GovernorNonexistentProposal",
      "type": "error"
    },
    {
      "inputs": [
        {
          "internalType": "uint256",
          "name": "proposalId",
          "type": "uint256"
        }
      ],
      "name": "GovernorNotQueuedProposal",
      "type": "error"
    },
    {
      "inputs": [
        {
          "internalType": "address",
          "name": "account",
          "type": "address"
        }
      ],
      "name": "GovernorOnlyExecutor",
      "type": "error"
    },
    {
      "inputs": [
        {
          "internalType": "address",
          "name": "account",
          "type": "address"
        }
      ],
      "name": "GovernorOnlyProposer",
      "type": "error"
    },
    {
      "inputs": [],
      "name": "GovernorQueueNotImplemented",
      "type": "error"
    },
    {
      "inputs": [
        {
          "internalType": "address",
          "name": "proposer",
          "type": "address"
        }
      ],
      "name": "GovernorRestrictedProposer",
      "type": "error"
    },
    {
      "inputs": [
        {
          "internalType": "uint256",
          "name": "proposalId",
          "type": "uint256"
        },
        {
          "internalType": "enum IGovernor.ProposalState",
          "name": "current",
          "type": "uint8"
        },
        {
          "internalType": "bytes32",
          "name": "expectedStates",
          "type": "bytes32"
        }
      ],
      "name": "GovernorUnexpectedProposalState",
      "type": "error"
    },
    {
      "inputs": [
        {
          "internalType": "address",
          "name": "account",
          "type": "address"
        },
        {
          "internalType": "uint256",
          "name": "currentNonce",
          "type": "uint256"
        }
      ],
      "name": "InvalidAccountNonce",
      "type": "error"
    },
    {
      "inputs": [],
      "name": "InvalidShortString",
      "type": "error"
    },
    {
      "inputs": [
        {
          "internalType": "uint8",
          "name": "bits",
          "type": "uint8"
        },
        {
          "internalType": "uint256",
          "name": "value",
          "type": "uint256"
        }
      ],
      "name": "SafeCastOverflowedUintDowncast",
      "type": "error"
    },
    {
      "inputs": [
        {
          "internalType": "string",
          "name": "str",
          "type": "string"
        }
      ],
      "name": "StringTooLong",
      "type": "error"
    },
    {
      "anonymous": false,
      "inputs": [],
      "name": "EIP712DomainChanged",
      "type": "event"
    },
    {
      "anonymous": false,
      "inputs": [
        {
          "indexed": false,
          "internalType": "uint256",
          "name": "proposalId",
          "type": "uint256"
        }
      ],
      "name": "ProposalCanceled",
      "type": "event"
    },
    {
      "anonymous": false,
      "inputs": [
        {
          "indexed": false,
          "internalType": "uint256",
          "name": "proposalId",
          "type": "uint256"
        },
        {
          "indexed": false,
          "internalType": "address",
          "name": "proposer",
          "type": "address"
        },
        {
          "indexed": false,
          "internalType": "address[]",
          "name": "targets",
          "type": "address[]"
        },
        {
          "indexed": false,
          "internalType": "uint256[]",
          "name": "values",
          "type": "uint256[]"
        },
        {
          "indexed": false,
          "internalType": "string[]",
          "name": "signatures",
          "type": "string[]"
        },
        {
          "indexed": false,
          "internalType": "bytes[]",
          "name": "calldatas",
          "type": "bytes[]"
        },
        {
          "indexed": false,
          "internalType": "uint256",
          "name": "voteStart",
          "type": "uint256"
        },
        {
          "indexed": false,
          "internalType": "uint256",
          "name": "voteEnd",
          "type": "uint256"
        },
        {
          "indexed": false,
          "internalType": "string",
          "name": "description",
          "type": "string"
        }
      ],
      "name": "ProposalCreated",
      "type": "event"
    },
    {
      "anonymous": false,
      "inputs": [
        {
          "indexed": false,
          "internalType": "uint256",
          "name": "proposalId",
          "type": "uint256"
        }
      ],
      "name": "ProposalExecuted",
      "type": "event"
    },
    {
      "anonymous": false,
      "inputs": [
        {
          "indexed": false,
          "internalType": "uint256",
          "name": "proposalId",
          "type": "uint256"
        },
        {
          "indexed": false,
          "internalType": "uint256",
          "name": "etaSeconds",
          "type": "uint256"
        }
      ],
      "name": "ProposalQueued",
      "type": "event"
    },
    {
      "anonymous": false,
      "inputs": [
        {
          "indexed": false,
          "internalType": "uint256",
          "name": "oldProposalThreshold",
          "type": "uint256"
        },
        {
          "indexed": false,
          "internalType": "uint256",
          "name": "newProposalThreshold",
          "type": "uint256"
        }
      ],
      "name": "ProposalThresholdSet",
      "type": "event"
    },
    {
      "anonymous": false,
      "inputs": [
        {
          "indexed": false,
          "internalType": "uint256",
          "name": "oldQuorumNumerator",
          "type": "uint256"
        },
        {
          "indexed": false,
          "internalType": "uint256",
          "name": "newQuorumNumerator",
          "type": "uint256"
        }
      ],
      "name": "QuorumNumeratorUpdated",
      "type": "event"
    },
    {
      "anonymous": false,
      "inputs": [
        {
          "indexed": false,
          "internalType": "address",
          "name": "oldTimelock",
          "type": "address"
        },
        {
          "indexed": false,
          "internalType": "address",
          "name": "newTimelock",
          "type": "address"
        }
      ],
      "name": "TimelockChange",
      "type": "event"
    },
    {
      "anonymous": false,
      "inputs": [
        {
          "indexed": true,
          "internalType": "address",
          "name": "voter",
          "type": "address"
        },
        {
          "indexed": false,
          "internalType": "uint256",
          "name": "proposalId",
          "type": "uint256"
        },
        {
          "indexed": false,
          "internalType": "uint8",
          "name": "support",
          "type": "uint8"
        },
        {
          "indexed": false,
          "internalType": "uint256",
          "name": "weight",
          "type": "uint256"
        },
        {
          "indexed": false,
          "internalType": "string",
          "name": "reason",
          "type": "string"
        }
      ],
      "name": "VoteCast",
      "type": "event"
    },
    {
      "anonymous": false,
      "inputs": [
        {
          "indexed": true,
          "internalType": "address",
          "name": "voter",
          "type": "address"
        },
        {
          "indexed": false,
          "internalType": "uint256",
          "name": "proposalId",
          "type": "uint256"
        },
        {
          "indexed": false,
          "internalType": "uint8",
          "name": "support",
          "type": "uint8"
        },
        {
          "indexed": false,
          "internalType": "uint256",
          "name": "weight",
          "type": "uint256"
        },
        {
          "indexed": false,
          "internalType": "string",
          "name": "reason",
          "type": "string"
        },
        {
          "indexed": false,
          "internalType": "bytes",
          "name": "params",
          "type": "bytes"
        }
      ],
      "name": "VoteCastWithParams",
      "type": "event"
    },
    {
      "anonymous": false,
      "inputs": [
        {
          "indexed": false,
          "internalType": "uint256",
          "name": "oldVotingDelay",
          "type": "uint256"
        },
        {
          "indexed": false,
          "internalType": "uint256",
          "name": "newVotingDelay",
          "type": "uint256"
        }
      ],
      "name": "VotingDelaySet",
      "type": "event"
    },
    {
      "anonymous": false,
      "inputs": [
        {
          "indexed": false,
          "internalType": "uint256",
          "name": "oldVotingPeriod",
          "type": "uint256"
        },
        {
          "indexed": false,
          "internalType": "uint256",
          "name": "newVotingPeriod",
          "type": "uint256"
        }
      ],
      "name": "VotingPeriodSet",
      "type": "event"
    },
    {
      "inputs": [],
      "name": "BALLOT_TYPEHASH",
      "outputs": [
        {
          "internalType": "bytes32",
          "name": "",
          "type": "bytes32"
        }
      ],
      "stateMutability": "view",
      "type": "function"
    },
    {
      "inputs": [],
      "name": "CLOCK_MODE",
      "outputs": [
        {
          "internalType": "string",
          "name": "",
          "type": "string"
        }
      ],
      "stateMutability": "view",
      "type": "function"
    },
    {
      "inputs": [],
      "name": "COUNTING_MODE",
      "outputs": [
        {
          "internalType": "string",
          "name": "",
          "type": "string"
        }
      ],
      "stateMutability": "pure",
      "type": "function"
    },
    {
      "inputs": [],
      "name": "EXTENDED_BALLOT_TYPEHASH",
      "outputs": [
        {
          "internalType": "bytes32",
          "name": "",
          "type": "bytes32"
        }
      ],
      "stateMutability": "view",
      "type": "function"
    },
    {
      "inputs": [
        {
          "internalType": "address[]",
          "name": "targets",
          "type": "address[]"
        },
        {
          "internalType": "uint256[]",
          "name": "values",
          "type": "uint256[]"
        },
        {
          "internalType": "bytes[]",
          "name": "calldatas",
          "type": "bytes[]"
        },
        {
          "internalType": "bytes32",
          "name": "descriptionHash",
          "type": "bytes32"
        }
      ],
      "name": "cancel",
      "outputs": [
        {
          "internalType": "uint256",
          "name": "",
          "type": "uint256"
        }
      ],
      "stateMutability": "nonpayable",
      "type": "function"
    },
    {
      "inputs": [
        {
          "internalType": "uint256",
          "name": "proposalId",
          "type": "uint256"
        },
        {
          "internalType": "uint8",
          "name": "support",
          "type": "uint8"
        }
      ],
      "name": "castVote",
      "outputs": [
        {
          "internalType": "uint256",
          "name": "",
          "type": "uint256"
        }
      ],
      "stateMutability": "nonpayable",
      "type": "function"
    },
    {
      "inputs": [
        {
          "internalType": "uint256",
          "name": "proposalId",
          "type": "uint256"
        },
        {
          "internalType": "uint8",
          "name": "support",
          "type": "uint8"
        },
        {
          "internalType": "address",
          "name": "voter",
          "type": "address"
        },
        {
          "internalType": "bytes",
          "name": "signature",
          "type": "bytes"
        }
      ],
      "name": "castVoteBySig",
      "outputs": [
        {
          "internalType": "uint256",
          "name": "",
          "type": "uint256"
        }
      ],
      "stateMutability": "nonpayable",
      "type": "function"
    },
    {
      "inputs": [
        {
          "internalType": "uint256",
          "name": "proposalId",
          "type": "uint256"
        },
        {
          "internalType": "uint8",
          "name": "support",
          "type": "uint8"
        },
        {
          "internalType": "string",
          "name": "reason",
          "type": "string"
        }
      ],
      "name": "castVoteWithReason",
      "outputs": [
        {
          "internalType": "uint256",
          "name": "",
          "type": "uint256"
        }
      ],
      "stateMutability": "nonpayable",
      "type": "function"
    },
    {
      "inputs": [
        {
          "internalType": "uint256",
          "name": "proposalId",
          "type": "uint256"
        },
        {
          "internalType": "uint8",
          "name": "support",
          "type": "uint8"
        },
        {
          "internalType": "string",
          "name": "reason",
          "type": "string"
        },
        {
          "internalType": "bytes",
          "name": "params",
          "type": "bytes"
        }
      ],
      "name": "castVoteWithReasonAndParams",
      "outputs": [
        {
          "internalType": "uint256",
          "name": "",
          "type": "uint256"
        }
      ],
      "stateMutability": "nonpayable",
      "type": "function"
    },
    {
      "inputs": [
        {
          "internalType": "uint256",
          "name": "proposalId",
          "type": "uint256"
        },
        {
          "internalType": "uint8",
          "name": "support",
          "type": "uint8"
        },
        {
          "internalType": "address",
          "name": "voter",
          "type": "address"
        },
        {
          "internalType": "string",
          "name": "reason",
          "type": "string"
        },
        {
          "internalType": "bytes",
          "name": "params",
          "type": "bytes"
        },
        {
          "internalType": "bytes",
          "name": "signature",
          "type": "bytes"
        }
      ],
      "name": "castVoteWithReasonAndParamsBySig",
      "outputs": [
        {
          "internalType": "uint256",
          "name": "",
          "type": "uint256"
        }
      ],
      "stateMutability": "nonpayable",
      "type": "function"
    },
    {
      "inputs": [],
      "name": "clock",
      "outputs": [
        {
          "internalType": "uint48",
          "name": "",
          "type": "uint48"
        }
      ],
      "stateMutability": "view",
      "type": "function"
    },
    {
      "inputs": [],
      "name": "degredationThreshold",
      "outputs": [
        {
          "internalType": "uint256",
          "name": "",
          "type": "uint256"
        }
      ],
      "stateMutability": "view",
      "type": "function"
    },
    {
      "inputs": [],
      "name": "eip712Domain",
      "outputs": [
        {
          "internalType": "bytes1",
          "name": "fields",
          "type": "bytes1"
        },
        {
          "internalType": "string",
          "name": "name",
          "type": "string"
        },
        {
          "internalType": "string",
          "name": "version",
          "type": "string"
        },
        {
          "internalType": "uint256",
          "name": "chainId",
          "type": "uint256"
        },
        {
          "internalType": "address",
          "name": "verifyingContract",
          "type": "address"
        },
        {
          "internalType": "bytes32",
          "name": "salt",
          "type": "bytes32"
        },
        {
          "internalType": "uint256[]",
          "name": "extensions",
          "type": "uint256[]"
        }
      ],
      "stateMutability": "view",
      "type": "function"
    },
    {
      "inputs": [
        {
          "internalType": "address[]",
          "name": "targets",
          "type": "address[]"
        },
        {
          "internalType": "uint256[]",
          "name": "values",
          "type": "uint256[]"
        },
        {
          "internalType": "bytes[]",
          "name": "calldatas",
          "type": "bytes[]"
        },
        {
          "internalType": "bytes32",
          "name": "descriptionHash",
          "type": "bytes32"
        }
      ],
      "name": "execute",
      "outputs": [
        {
          "internalType": "uint256",
          "name": "",
          "type": "uint256"
        }
      ],
      "stateMutability": "payable",
      "type": "function"
    },
    {
      "inputs": [
        {
          "internalType": "address",
          "name": "account",
          "type": "address"
        },
        {
          "internalType": "uint256",
          "name": "timepoint",
          "type": "uint256"
        }
      ],
      "name": "getVotes",
      "outputs": [
        {
          "internalType": "uint256",
          "name": "",
          "type": "uint256"
        }
      ],
      "stateMutability": "view",
      "type": "function"
    },
    {
      "inputs": [
        {
          "internalType": "address",
          "name": "account",
          "type": "address"
        },
        {
          "internalType": "uint256",
          "name": "timepoint",
          "type": "uint256"
        },
        {
          "internalType": "bytes",
          "name": "params",
          "type": "bytes"
        }
      ],
      "name": "getVotesWithParams",
      "outputs": [
        {
          "internalType": "uint256",
          "name": "",
          "type": "uint256"
        }
      ],
      "stateMutability": "view",
      "type": "function"
    },
    {
      "inputs": [
        {
          "internalType": "uint256",
          "name": "proposalId",
          "type": "uint256"
        },
        {
          "internalType": "address",
          "name": "account",
          "type": "address"
        }
      ],
      "name": "hasVoted",
      "outputs": [
        {
          "internalType": "bool",
          "name": "",
          "type": "bool"
        }
      ],
      "stateMutability": "view",
      "type": "function"
    },
    {
      "inputs": [
        {
          "internalType": "address[]",
          "name": "targets",
          "type": "address[]"
        },
        {
          "internalType": "uint256[]",
          "name": "values",
          "type": "uint256[]"
        },
        {
          "internalType": "bytes[]",
          "name": "calldatas",
          "type": "bytes[]"
        },
        {
          "internalType": "bytes32",
          "name": "descriptionHash",
          "type": "bytes32"
        }
      ],
      "name": "hashProposal",
      "outputs": [
        {
          "internalType": "uint256",
          "name": "",
          "type": "uint256"
        }
      ],
      "stateMutability": "pure",
      "type": "function"
    },
    {
      "inputs": [],
      "name": "mintingThreshold",
      "outputs": [
        {
          "internalType": "uint256",
          "name": "",
          "type": "uint256"
        }
      ],
      "stateMutability": "view",
      "type": "function"
    },
    {
      "inputs": [],
      "name": "name",
      "outputs": [
        {
          "internalType": "string",
          "name": "",
          "type": "string"
        }
      ],
      "stateMutability": "view",
      "type": "function"
    },
    {
      "inputs": [
        {
          "internalType": "address",
          "name": "owner",
          "type": "address"
        }
      ],
      "name": "nonces",
      "outputs": [
        {
          "internalType": "uint256",
          "name": "",
          "type": "uint256"
        }
      ],
      "stateMutability": "view",
      "type": "function"
    },
    {
      "inputs": [
        {
          "internalType": "address",
          "name": "",
          "type": "address"
        },
        {
          "internalType": "address",
          "name": "",
          "type": "address"
        },
        {
          "internalType": "uint256[]",
          "name": "",
          "type": "uint256[]"
        },
        {
          "internalType": "uint256[]",
          "name": "",
          "type": "uint256[]"
        },
        {
          "internalType": "bytes",
          "name": "",
          "type": "bytes"
        }
      ],
      "name": "onERC1155BatchReceived",
      "outputs": [
        {
          "internalType": "bytes4",
          "name": "",
          "type": "bytes4"
        }
      ],
      "stateMutability": "nonpayable",
      "type": "function"
    },
    {
      "inputs": [
        {
          "internalType": "address",
          "name": "",
          "type": "address"
        },
        {
          "internalType": "address",
          "name": "",
          "type": "address"
        },
        {
          "internalType": "uint256",
          "name": "",
          "type": "uint256"
        },
        {
          "internalType": "uint256",
          "name": "",
          "type": "uint256"
        },
        {
          "internalType": "bytes",
          "name": "",
          "type": "bytes"
        }
      ],
      "name": "onERC1155Received",
      "outputs": [
        {
          "internalType": "bytes4",
          "name": "",
          "type": "bytes4"
        }
      ],
      "stateMutability": "nonpayable",
      "type": "function"
    },
    {
      "inputs": [
        {
          "internalType": "address",
          "name": "",
          "type": "address"
        },
        {
          "internalType": "address",
          "name": "",
          "type": "address"
        },
        {
          "internalType": "uint256",
          "name": "",
          "type": "uint256"
        },
        {
          "internalType": "bytes",
          "name": "",
          "type": "bytes"
        }
      ],
      "name": "onERC721Received",
      "outputs": [
        {
          "internalType": "bytes4",
          "name": "",
          "type": "bytes4"
        }
      ],
      "stateMutability": "nonpayable",
      "type": "function"
    },
    {
      "inputs": [
        {
          "internalType": "uint256",
          "name": "proposalId",
          "type": "uint256"
        }
      ],
      "name": "proposalDeadline",
      "outputs": [
        {
          "internalType": "uint256",
          "name": "",
          "type": "uint256"
        }
      ],
      "stateMutability": "view",
      "type": "function"
    },
    {
      "inputs": [
        {
          "internalType": "uint256",
          "name": "proposalId",
          "type": "uint256"
        }
      ],
      "name": "proposalEta",
      "outputs": [
        {
          "internalType": "uint256",
          "name": "",
          "type": "uint256"
        }
      ],
      "stateMutability": "view",
      "type": "function"
    },
    {
      "inputs": [
        {
          "internalType": "uint256",
          "name": "proposalId",
          "type": "uint256"
        }
      ],
      "name": "proposalNeedsQueuing",
      "outputs": [
        {
          "internalType": "bool",
          "name": "",
          "type": "bool"
        }
      ],
      "stateMutability": "view",
      "type": "function"
    },
    {
      "inputs": [
        {
          "internalType": "uint256",
          "name": "proposalId",
          "type": "uint256"
        }
      ],
      "name": "proposalProposer",
      "outputs": [
        {
          "internalType": "address",
          "name": "",
          "type": "address"
        }
      ],
      "stateMutability": "view",
      "type": "function"
    },
    {
      "inputs": [
        {
          "internalType": "uint256",
          "name": "proposalId",
          "type": "uint256"
        }
      ],
      "name": "proposalSnapshot",
      "outputs": [
        {
          "internalType": "uint256",
          "name": "",
          "type": "uint256"
        }
      ],
      "stateMutability": "view",
      "type": "function"
    },
    {
      "inputs": [],
      "name": "proposalThreshold",
      "outputs": [
        {
          "internalType": "uint256",
          "name": "",
          "type": "uint256"
        }
      ],
      "stateMutability": "view",
      "type": "function"
    },
    {
      "inputs": [
        {
          "internalType": "uint256",
          "name": "proposalId",
          "type": "uint256"
        }
      ],
      "name": "proposalVotes",
      "outputs": [
        {
          "internalType": "uint256",
          "name": "againstVotes",
          "type": "uint256"
        },
        {
          "internalType": "uint256",
          "name": "forVotes",
          "type": "uint256"
        },
        {
          "internalType": "uint256",
          "name": "abstainVotes",
          "type": "uint256"
        }
      ],
      "stateMutability": "view",
      "type": "function"
    },
    {
      "inputs": [
        {
          "internalType": "address[]",
          "name": "targets",
          "type": "address[]"
        },
        {
          "internalType": "uint256[]",
          "name": "values",
          "type": "uint256[]"
        },
        {
          "internalType": "bytes[]",
          "name": "calldatas",
          "type": "bytes[]"
        },
        {
          "internalType": "string",
          "name": "description",
          "type": "string"
        }
      ],
      "name": "propose",
      "outputs": [
        {
          "internalType": "uint256",
          "name": "",
          "type": "uint256"
        }
      ],
      "stateMutability": "nonpayable",
      "type": "function"
    },
    {
      "inputs": [
        {
          "internalType": "address[]",
          "name": "targets",
          "type": "address[]"
        },
        {
          "internalType": "uint256[]",
          "name": "values",
          "type": "uint256[]"
        },
        {
          "internalType": "bytes[]",
          "name": "calldatas",
          "type": "bytes[]"
        },
        {
          "internalType": "bytes32",
          "name": "descriptionHash",
          "type": "bytes32"
        }
      ],
      "name": "queue",
      "outputs": [
        {
          "internalType": "uint256",
          "name": "",
          "type": "uint256"
        }
      ],
      "stateMutability": "nonpayable",
      "type": "function"
    },
    {
      "inputs": [
        {
          "internalType": "uint256",
          "name": "blockNumber",
          "type": "uint256"
        }
      ],
      "name": "quorum",
      "outputs": [
        {
          "internalType": "uint256",
          "name": "",
          "type": "uint256"
        }
      ],
      "stateMutability": "view",
      "type": "function"
    },
    {
      "inputs": [],
      "name": "quorumDenominator",
      "outputs": [
        {
          "internalType": "uint256",
          "name": "",
          "type": "uint256"
        }
      ],
      "stateMutability": "view",
      "type": "function"
    },
    {
      "inputs": [
        {
          "internalType": "uint256",
          "name": "timepoint",
          "type": "uint256"
        }
      ],
      "name": "quorumNumerator",
      "outputs": [
        {
          "internalType": "uint256",
          "name": "",
          "type": "uint256"
        }
      ],
      "stateMutability": "view",
      "type": "function"
    },
    {
      "inputs": [],
      "name": "quorumNumerator",
      "outputs": [
        {
          "internalType": "uint256",
          "name": "",
          "type": "uint256"
        }
      ],
      "stateMutability": "view",
      "type": "function"
    },
    {
      "inputs": [
        {
          "internalType": "address",
          "name": "target",
          "type": "address"
        },
        {
          "internalType": "uint256",
          "name": "value",
          "type": "uint256"
        },
        {
          "internalType": "bytes",
          "name": "data",
          "type": "bytes"
        }
      ],
      "name": "relay",
      "outputs": [],
      "stateMutability": "payable",
      "type": "function"
    },
    {
      "inputs": [],
      "name": "sdusd",
      "outputs": [
        {
          "internalType": "contract SDUSD",
          "name": "",
          "type": "address"
        }
      ],
      "stateMutability": "view",
      "type": "function"
    },
    {
      "inputs": [
        {
          "internalType": "uint256",
          "name": "newProposalThreshold",
          "type": "uint256"
        }
      ],
      "name": "setProposalThreshold",
      "outputs": [],
      "stateMutability": "nonpayable",
      "type": "function"
    },
    {
      "inputs": [
        {
          "internalType": "uint48",
          "name": "newVotingDelay",
          "type": "uint48"
        }
      ],
      "name": "setVotingDelay",
      "outputs": [],
      "stateMutability": "nonpayable",
      "type": "function"
    },
    {
      "inputs": [
        {
          "internalType": "uint32",
          "name": "newVotingPeriod",
          "type": "uint32"
        }
      ],
      "name": "setVotingPeriod",
      "outputs": [],
      "stateMutability": "nonpayable",
      "type": "function"
    },
    {
      "inputs": [
        {
          "internalType": "uint256",
          "name": "proposalId",
          "type": "uint256"
        }
      ],
      "name": "state",
      "outputs": [
        {
          "internalType": "enum IGovernor.ProposalState",
          "name": "",
          "type": "uint8"
        }
      ],
      "stateMutability": "view",
      "type": "function"
    },
    {
      "inputs": [
        {
          "internalType": "bytes4",
          "name": "interfaceId",
          "type": "bytes4"
        }
      ],
      "name": "supportsInterface",
      "outputs": [
        {
          "internalType": "bool",
          "name": "",
          "type": "bool"
        }
      ],
      "stateMutability": "view",
      "type": "function"
    },
    {
      "inputs": [
        {
          "internalType": "address",
          "name": "account",
          "type": "address"
        },
        {
          "internalType": "uint256",
          "name": "blockNumber",
          "type": "uint256"
        }
      ],
      "name": "testGetVotes",
      "outputs": [
        {
          "internalType": "uint256",
          "name": "",
          "type": "uint256"
        }
      ],
      "stateMutability": "view",
      "type": "function"
    },
    {
      "inputs": [],
      "name": "timelock",
      "outputs": [
        {
          "internalType": "address",
          "name": "",
          "type": "address"
        }
      ],
      "stateMutability": "view",
      "type": "function"
    },
    {
      "inputs": [],
      "name": "token",
      "outputs": [
        {
          "internalType": "contract IERC5805",
          "name": "",
          "type": "address"
        }
      ],
      "stateMutability": "view",
      "type": "function"
    },
    {
      "inputs": [
        {
          "internalType": "uint256",
          "name": "newQuorumNumerator",
          "type": "uint256"
        }
      ],
      "name": "updateQuorumNumerator",
      "outputs": [],
      "stateMutability": "nonpayable",
      "type": "function"
    },
    {
      "inputs": [
        {
          "internalType": "contract TimelockController",
          "name": "newTimelock",
          "type": "address"
        }
      ],
      "name": "updateTimelock",
      "outputs": [],
      "stateMutability": "nonpayable",
      "type": "function"
    },
    {
      "inputs": [],
      "name": "version",
      "outputs": [
        {
          "internalType": "string",
          "name": "",
          "type": "string"
        }
      ],
      "stateMutability": "view",
      "type": "function"
    },
    {
      "inputs": [],
      "name": "votingDelay",
      "outputs": [
        {
          "internalType": "uint256",
          "name": "",
          "type": "uint256"
        }
      ],
      "stateMutability": "view",
      "type": "function"
    },
    {
      "inputs": [],
      "name": "votingNFT",
      "outputs": [
        {
          "internalType": "contract SDNFT",
          "name": "",
          "type": "address"
        }
      ],
      "stateMutability": "view",
      "type": "function"
    },
    {
      "inputs": [],
      "name": "votingPeriod",
      "outputs": [
        {
          "internalType": "uint256",
          "name": "",
          "type": "uint256"
        }
      ],
      "stateMutability": "view",
      "type": "function"
    },
    {
      "stateMutability": "payable",
      "type": "receive"
    }
  ],
  "transactionHash": "0xb9847b975d3321b1f3ea0692b6cb869705d22a0176a47a52738f5bd7a0b62df5",
  "args": [
    "0xe7f1725E7734CE288F8367e1Bb143E90bb3F0512",
    "0xCf7Ed3AccA5a467e9e704C703E8D87F634fB0Fc9",
    4,
    1000,
    "0xe7f1725E7734CE288F8367e1Bb143E90bb3F0512",
    "0x9fE46736679d2D9a65F0992F2272dE9f3c7fa6e0"
  ],
  "numDeployments": 1,
  "solcInputHash": "9dcd294797da019481632fd8e2ea4bef",
  "bytecode": "0x6101806040526004600d556002600e5534801561001b57600080fd5b506040516188f13803806188f1833981810160405281019061003d9190610d91565b848487611c20611518876040518060400160405280600781526020017f5344555344414f000000000000000000000000000000000000000000000000008152508061008c61025a60201b60201c565b6100a060008361029760201b90919060201c565b61012081815250506100bc60018261029760201b90919060201c565b6101408181525050818051906020012060e08181525050808051906020012061010081815250504660a081815250506100f96102e760201b60201c565b608081815250503073ffffffffffffffffffffffffffffffffffffffff1660c08173ffffffffffffffffffffffffffffffffffffffff1681525050505080600390816101459190611064565b50506101568361034260201b60201c565b610165826103b760201b60201c565b6101748161047260201b60201c565b5050508073ffffffffffffffffffffffffffffffffffffffff166101608173ffffffffffffffffffffffffffffffffffffffff1681525050506101bc816104b760201b60201c565b506101cc8161059360201b60201c565b5081600f60006101000a81548173ffffffffffffffffffffffffffffffffffffffff021916908373ffffffffffffffffffffffffffffffffffffffff16021790555080601060006101000a81548173ffffffffffffffffffffffffffffffffffffffff021916908373ffffffffffffffffffffffffffffffffffffffff16021790555050505050505061160d565b60606040518060400160405280600181526020017f3100000000000000000000000000000000000000000000000000000000000000815250905090565b60006020835110156102b9576102b28361063260201b60201c565b90506102e1565b826102c98361069a60201b60201c565b60000190816102d89190611064565b5060ff60001b90505b92915050565b60007f8b73c3c69bb8fe3d512ecc4cf759cc79239f7b179b0ffacaa9a75d522b39400f60e05161010051463060405160200161032795949392919061116d565b60405160208183030381529060405280519060200120905090565b7fc565b045403dc03c2eea82b81a0465edad9e2e7fc4d97e11421c209da93d7a93600860009054906101000a900465ffffffffffff1682604051610387929190611203565b60405180910390a180600860006101000a81548165ffffffffffff021916908365ffffffffffff16021790555050565b60008163ffffffff16036104035760006040517ff1cfbf050000000000000000000000000000000000000000000000000000000081526004016103fa9190611267565b60405180910390fd5b7f7e3f7f0708a84de9203036abaa450dccc85ad5ff52f78c170f3edb55cf5e8828600860069054906101000a900463ffffffff16826040516104469291906112c3565b60405180910390a180600860066101000a81548163ffffffff021916908363ffffffff16021790555050565b7fccb45da8d5717e6c4544694297c4ba5cf151d455c9bb0ed4fc7a38411bc05461600754826040516104a59291906112ec565b60405180910390a18060078190555050565b60006104c76106a460201b60201c565b9050808211156105105781816040517f243e54450000000000000000000000000000000000000000000000000000000081526004016105079291906112ec565b60405180910390fd5b60006105206106ad60201b60201c565b90506105536105336106e060201b60201c565b6105428561077860201b60201c565b600a6107e660201b9092919060201c565b50507f0553476bf02ef2726e8ce5ced78d63e26e602e4a2257b1f559418e24b463399781846040516105869291906112ec565b60405180910390a1505050565b7f08f74ea46ef7894f65eabfb5e6e695de773a000b47c529ab559178069b226401600b60009054906101000a900473ffffffffffffffffffffffffffffffffffffffff16826040516105e6929190611315565b60405180910390a180600b60006101000a81548173ffffffffffffffffffffffffffffffffffffffff021916908373ffffffffffffffffffffffffffffffffffffffff16021790555050565b600080829050601f8151111561067f57826040517f305a27a900000000000000000000000000000000000000000000000000000000815260040161067691906113c3565b60405180910390fd5b80518161068b90611415565b60001c1760001b915050919050565b6000819050919050565b60006064905090565b60006106bf600a61080960201b60201c565b79ffffffffffffffffffffffffffffffffffffffffffffffffffff16905090565b60006106f061087760201b60201c565b73ffffffffffffffffffffffffffffffffffffffff166391ddadf46040518163ffffffff1660e01b8152600401602060405180830381865afa92505050801561075757506040513d601f19601f8201168201806040525081019061075491906114a8565b60015b6107705761076961088260201b60201c565b9050610775565b809150505b90565b600079ffffffffffffffffffffffffffffffffffffffffffffffffffff80168211156107de5760d0826040517f6dfcc6500000000000000000000000000000000000000000000000000000000081526004016107d592919061151d565b60405180910390fd5b819050919050565b6000806107fd85600001858561089860201b60201c565b91509150935093915050565b600080826000018054905090506000811461086c5761083d836000016001836108329190611575565b610bab60201b60201c565b60000160069054906101000a900479ffffffffffffffffffffffffffffffffffffffffffffffffffff1661086f565b60005b915050919050565b600061016051905090565b600061089343610bc060201b60201c565b905090565b6000806000858054905090506000811115610abb5760006108cb876001846108c09190611575565b610bab60201b60201c565b905060008160000160009054906101000a900465ffffffffffff16905060008260000160069054906101000a900479ffffffffffffffffffffffffffffffffffffffffffffffffffff1690508765ffffffffffff168265ffffffffffff161115610961576040517f2520601d00000000000000000000000000000000000000000000000000000000815260040160405180910390fd5b8765ffffffffffff168265ffffffffffff16036109cc57868360000160066101000a81548179ffffffffffffffffffffffffffffffffffffffffffffffffffff021916908379ffffffffffffffffffffffffffffffffffffffffffffffffffff160217905550610aac565b8860405180604001604052808a65ffffffffffff1681526020018979ffffffffffffffffffffffffffffffffffffffffffffffffffff168152509080600181540180825580915050600190039060005260206000200160009091909190915060008201518160000160006101000a81548165ffffffffffff021916908365ffffffffffff16021790555060208201518160000160066101000a81548179ffffffffffffffffffffffffffffffffffffffffffffffffffff021916908379ffffffffffffffffffffffffffffffffffffffffffffffffffff16021790555050505b80879550955050505050610ba3565b8560405180604001604052808765ffffffffffff1681526020018679ffffffffffffffffffffffffffffffffffffffffffffffffffff168152509080600181540180825580915050600190039060005260206000200160009091909190915060008201518160000160006101000a81548165ffffffffffff021916908365ffffffffffff16021790555060208201518160000160066101000a81548179ffffffffffffffffffffffffffffffffffffffffffffffffffff021916908379ffffffffffffffffffffffffffffffffffffffffffffffffffff160217905550505060008492509250505b935093915050565b60008260005281602060002001905092915050565b600065ffffffffffff8016821115610c12576030826040517f6dfcc650000000000000000000000000000000000000000000000000000000008152600401610c099291906115e4565b60405180910390fd5b819050919050565b600080fd5b600073ffffffffffffffffffffffffffffffffffffffff82169050919050565b6000610c4a82610c1f565b9050919050565b6000610c5c82610c3f565b9050919050565b610c6c81610c51565b8114610c7757600080fd5b50565b600081519050610c8981610c63565b92915050565b6000610c9a82610c1f565b9050919050565b6000610cac82610c8f565b9050919050565b610cbc81610ca1565b8114610cc757600080fd5b50565b600081519050610cd981610cb3565b92915050565b6000819050919050565b610cf281610cdf565b8114610cfd57600080fd5b50565b600081519050610d0f81610ce9565b92915050565b6000610d2082610c8f565b9050919050565b610d3081610d15565b8114610d3b57600080fd5b50565b600081519050610d4d81610d27565b92915050565b6000610d5e82610c8f565b9050919050565b610d6e81610d53565b8114610d7957600080fd5b50565b600081519050610d8b81610d65565b92915050565b60008060008060008060c08789031215610dae57610dad610c1a565b5b6000610dbc89828a01610c7a565b9650506020610dcd89828a01610cca565b9550506040610dde89828a01610d00565b9450506060610def89828a01610d00565b9350506080610e0089828a01610d3e565b92505060a0610e1189828a01610d7c565b9150509295509295509295565b600081519050919050565b7f4e487b7100000000000000000000000000000000000000000000000000000000600052604160045260246000fd5b7f4e487b7100000000000000000000000000000000000000000000000000000000600052602260045260246000fd5b60006002820490506001821680610e9f57607f821691505b602082108103610eb257610eb1610e58565b5b50919050565b60008190508160005260206000209050919050565b60006020601f8301049050919050565b600082821b905092915050565b600060088302610f1a7fffffffffffffffffffffffffffffffffffffffffffffffffffffffffffffffff82610edd565b610f248683610edd565b95508019841693508086168417925050509392505050565b6000819050919050565b6000610f61610f5c610f5784610cdf565b610f3c565b610cdf565b9050919050565b6000819050919050565b610f7b83610f46565b610f8f610f8782610f68565b848454610eea565b825550505050565b600090565b610fa4610f97565b610faf818484610f72565b505050565b5b81811015610fd357610fc8600082610f9c565b600181019050610fb5565b5050565b601f82111561101857610fe981610eb8565b610ff284610ecd565b81016020851015611001578190505b61101561100d85610ecd565b830182610fb4565b50505b505050565b600082821c905092915050565b600061103b6000198460080261101d565b1980831691505092915050565b6000611054838361102a565b9150826002028217905092915050565b61106d82610e1e565b67ffffffffffffffff81111561108657611085610e29565b5b6110908254610e87565b61109b828285610fd7565b600060209050601f8311600181146110ce57600084156110bc578287015190505b6110c68582611048565b86555061112e565b601f1984166110dc86610eb8565b60005b82811015611104578489015182556001820191506020850194506020810190506110df565b86831015611121578489015161111d601f89168261102a565b8355505b6001600288020188555050505b505050505050565b6000819050919050565b61114981611136565b82525050565b61115881610cdf565b82525050565b61116781610c3f565b82525050565b600060a0820190506111826000830188611140565b61118f6020830187611140565b61119c6040830186611140565b6111a9606083018561114f565b6111b6608083018461115e565b9695505050505050565b600065ffffffffffff82169050919050565b60006111ed6111e86111e3846111c0565b610f3c565b610cdf565b9050919050565b6111fd816111d2565b82525050565b600060408201905061121860008301856111f4565b61122560208301846111f4565b9392505050565b6000819050919050565b600061125161124c6112478461122c565b610f3c565b610cdf565b9050919050565b61126181611236565b82525050565b600060208201905061127c6000830184611258565b92915050565b600063ffffffff82169050919050565b60006112ad6112a86112a384611282565b610f3c565b610cdf565b9050919050565b6112bd81611292565b82525050565b60006040820190506112d860008301856112b4565b6112e560208301846112b4565b9392505050565b6000604082019050611301600083018561114f565b61130e602083018461114f565b9392505050565b600060408201905061132a600083018561115e565b611337602083018461115e565b9392505050565b600082825260208201905092915050565b60005b8381101561136d578082015181840152602081019050611352565b60008484015250505050565b6000601f19601f8301169050919050565b600061139582610e1e565b61139f818561133e565b93506113af81856020860161134f565b6113b881611379565b840191505092915050565b600060208201905081810360008301526113dd818461138a565b905092915050565b600081519050919050565b6000819050602082019050919050565b600061140c8251611136565b80915050919050565b6000611420826113e5565b8261142a846113f0565b905061143581611400565b92506020821015611475576114707fffffffffffffffffffffffffffffffffffffffffffffffffffffffffffffffff83602003600802610edd565b831692505b5050919050565b611485816111c0565b811461149057600080fd5b50565b6000815190506114a28161147c565b92915050565b6000602082840312156114be576114bd610c1a565b5b60006114cc84828501611493565b91505092915050565b6000819050919050565b600060ff82169050919050565b60006115076115026114fd846114d5565b610f3c565b6114df565b9050919050565b611517816114ec565b82525050565b6000604082019050611532600083018561150e565b61153f602083018461114f565b9392505050565b7f4e487b7100000000000000000000000000000000000000000000000000000000600052601160045260246000fd5b600061158082610cdf565b915061158b83610cdf565b92508282039050818111156115a3576115a2611546565b5b92915050565b6000819050919050565b60006115ce6115c96115c4846115a9565b610f3c565b6114df565b9050919050565b6115de816115b3565b82525050565b60006040820190506115f960008301856115d5565b611606602083018461114f565b9392505050565b60805160a05160c05160e0516101005161012051610140516101605161727f611672600039600061216b0152600061325a0152600061321f015260006149fa015260006149d901526000613ca701526000613cfd01526000613d26015261727f6000f3fe60806040526004361061031e5760003560e01c80637d5e81e2116101ab578063bc1556d4116100f7578063deaaa7cc11610095578063ece40cc11161006f578063ece40cc114610d89578063f23a6e6114610db2578063f8ce560a14610def578063fc0c546a14610e2c57610391565b8063deaaa7cc14610cf8578063e540d01d14610d23578063eb9019d414610d4c57610391565b8063c28bc2fa116100d1578063c28bc2fa14610c49578063c59057e414610c65578063d33219b414610ca2578063dd4e2ba514610ccd57610391565b8063bc1556d414610ba4578063bc197c8114610bcf578063c01f9e3714610c0c57610391565b806397c3d33411610164578063a890c9101161013e578063a890c91014610ad6578063a9a9529414610aff578063ab58fb8e14610b3c578063b58131b014610b7957610391565b806397c3d33414610a435780639a802a6d14610a6e578063a7713a7014610aab57610391565b80637d5e81e2146109055780637ecebe001461094257806384b0196e1461097f57806387b55705146109b05780638ff262e3146109db57806391ddadf414610a1857610391565b80633e4f49e61161026a578063567813881161022357806360c4247f116101fd57806360c4247f14610825578063680c309514610862578063790518871461089f5780637b3c71d3146108c857610391565b8063567813881461076e5780635b8d0e0d146107ab5780635f398a14146107e857610391565b80633e4f49e614610622578063438596321461065f578063452115d61461069c5780634bf5d7e9146106d9578063544ffc9c1461070457806354fd4d501461074357610391565b8063143489d0116102d75780632656227d116102b15780632656227d1461055f5780632d63f6931461058f5780632fe3e261146105cc5780633932abb1146105f757610391565b8063143489d0146104a8578063150b7a02146104e5578063160cbed71461052257610391565b806301ffc9a71461039657806302a251a3146103d357806306f3f9e6146103fe57806306fdde031461042757806308fc4447146104525780630c947ca91461047d57610391565b36610391573073ffffffffffffffffffffffffffffffffffffffff16610342610e57565b73ffffffffffffffffffffffffffffffffffffffff161461038f576040517fe90a651e00000000000000000000000000000000000000000000000000000000815260040160405180910390fd5b005b600080fd5b3480156103a257600080fd5b506103bd60048036038101906103b89190614ca0565b610e66565b6040516103ca9190614ce8565b60405180910390f35b3480156103df57600080fd5b506103e8610f48565b6040516103f59190614d1c565b60405180910390f35b34801561040a57600080fd5b5061042560048036038101906104209190614d63565b610f57565b005b34801561043357600080fd5b5061043c610f6b565b6040516104499190614e20565b60405180910390f35b34801561045e57600080fd5b50610467610ffd565b6040516104749190614d1c565b60405180910390f35b34801561048957600080fd5b50610492611003565b60405161049f9190614ec1565b60405180910390f35b3480156104b457600080fd5b506104cf60048036038101906104ca9190614d63565b611029565b6040516104dc9190614efd565b60405180910390f35b3480156104f157600080fd5b5061050c60048036038101906105079190615079565b611069565b604051610519919061510b565b60405180910390f35b34801561052e57600080fd5b50610549600480360381019061054491906153c8565b6110e9565b6040516105569190614d1c565b60405180910390f35b610579600480360381019061057491906153c8565b6111e5565b6040516105869190614d1c565b60405180910390f35b34801561059b57600080fd5b506105b660048036038101906105b19190614d63565b6113c4565b6040516105c39190614d1c565b60405180910390f35b3480156105d857600080fd5b506105e16113fe565b6040516105ee9190615492565b60405180910390f35b34801561060357600080fd5b5061060c611422565b6040516106199190614d1c565b60405180910390f35b34801561062e57600080fd5b5061064960048036038101906106449190614d63565b611431565b6040516106569190615524565b60405180910390f35b34801561066b57600080fd5b506106866004803603810190610681919061553f565b611443565b6040516106939190614ce8565b60405180910390f35b3480156106a857600080fd5b506106c360048036038101906106be91906153c8565b6114ae565b6040516106d09190614d1c565b60405180910390f35b3480156106e557600080fd5b506106ee611570565b6040516106fb9190614e20565b60405180910390f35b34801561071057600080fd5b5061072b60048036038101906107269190614d63565b61162f565b60405161073a9392919061557f565b60405180910390f35b34801561074f57600080fd5b50610758611667565b6040516107659190614e20565b60405180910390f35b34801561077a57600080fd5b50610795600480360381019061079091906155ef565b6116a4565b6040516107a29190614d1c565b60405180910390f35b3480156107b757600080fd5b506107d260048036038101906107cd919061568a565b6116d5565b6040516107df9190614d1c565b60405180910390f35b3480156107f457600080fd5b5061080f600480360381019061080a9190615771565b611806565b60405161081c9190614d1c565b60405180910390f35b34801561083157600080fd5b5061084c60048036038101906108479190614d63565b611870565b6040516108599190614d1c565b60405180910390f35b34801561086e57600080fd5b5061088960048036038101906108849190615815565b611974565b6040516108969190614d1c565b60405180910390f35b3480156108ab57600080fd5b506108c660048036038101906108c19190615893565b611998565b005b3480156108d457600080fd5b506108ef60048036038101906108ea91906158c0565b6119ac565b6040516108fc9190614d1c565b60405180910390f35b34801561091157600080fd5b5061092c600480360381019061092791906159d5565b611a14565b6040516109399190614d1c565b60405180910390f35b34801561094e57600080fd5b5061096960048036038101906109649190615aac565b611b0e565b6040516109769190614d1c565b60405180910390f35b34801561098b57600080fd5b50610994611b57565b6040516109a79796959493929190615bd2565b60405180910390f35b3480156109bc57600080fd5b506109c5611c01565b6040516109d29190614d1c565b60405180910390f35b3480156109e757600080fd5b50610a0260048036038101906109fd9190615c56565b611c07565b604051610a0f9190614d1c565b60405180910390f35b348015610a2457600080fd5b50610a2d611cdd565b604051610a3a9190615ce8565b60405180910390f35b348015610a4f57600080fd5b50610a58611d69565b604051610a659190614d1c565b60405180910390f35b348015610a7a57600080fd5b50610a956004803603810190610a909190615d03565b611d72565b604051610aa29190614d1c565b60405180910390f35b348015610ab757600080fd5b50610ac0611d88565b604051610acd9190614d1c565b60405180910390f35b348015610ae257600080fd5b50610afd6004803603810190610af89190615dc2565b611db5565b005b348015610b0b57600080fd5b50610b266004803603810190610b219190614d63565b611dc9565b604051610b339190614ce8565b60405180910390f35b348015610b4857600080fd5b50610b636004803603810190610b5e9190614d63565b611ddb565b604051610b709190614d1c565b60405180910390f35b348015610b8557600080fd5b50610b8e611e15565b604051610b9b9190614d1c565b60405180910390f35b348015610bb057600080fd5b50610bb9611e24565b604051610bc69190615e10565b60405180910390f35b348015610bdb57600080fd5b50610bf66004803603810190610bf19190615e2b565b611e4a565b604051610c03919061510b565b60405180910390f35b348015610c1857600080fd5b50610c336004803603810190610c2e9190614d63565b611ecb565b604051610c409190614d1c565b60405180910390f35b610c636004803603810190610c5e9190615f50565b611f3c565b005b348015610c7157600080fd5b50610c8c6004803603810190610c8791906153c8565b611fc9565b604051610c999190614d1c565b60405180910390f35b348015610cae57600080fd5b50610cb7612005565b604051610cc49190614efd565b60405180910390f35b348015610cd957600080fd5b50610ce261202f565b604051610cef9190614e20565b60405180910390f35b348015610d0457600080fd5b50610d0d61206c565b604051610d1a9190615492565b60405180910390f35b348015610d2f57600080fd5b50610d4a6004803603810190610d459190616000565b612090565b005b348015610d5857600080fd5b50610d736004803603810190610d6e9190615815565b6120a4565b604051610d809190614d1c565b60405180910390f35b348015610d9557600080fd5b50610db06004803603810190610dab9190614d63565b6120c0565b005b348015610dbe57600080fd5b50610dd96004803603810190610dd4919061602d565b6120d4565b604051610de6919061510b565b60405180910390f35b348015610dfb57600080fd5b50610e166004803603810190610e119190614d63565b612155565b604051610e239190614d1c565b60405180910390f35b348015610e3857600080fd5b50610e41612167565b604051610e4e91906160f7565b60405180910390f35b6000610e6161218f565b905090565b60007f65455a86000000000000000000000000000000000000000000000000000000007bffffffffffffffffffffffffffffffffffffffffffffffffffffffff1916827bffffffffffffffffffffffffffffffffffffffffffffffffffffffff19161480610f3157507f4e2312e0000000000000000000000000000000000000000000000000000000007bffffffffffffffffffffffffffffffffffffffffffffffffffffffff1916827bffffffffffffffffffffffffffffffffffffffffffffffffffffffff1916145b80610f415750610f40826121b9565b5b9050919050565b6000610f52612223565b905090565b610f5f612243565b610f6881612339565b50565b606060038054610f7a90616141565b80601f0160208091040260200160405190810160405280929190818152602001828054610fa690616141565b8015610ff35780601f10610fc857610100808354040283529160200191610ff3565b820191906000526020600020905b815481529060010190602001808311610fd657829003601f168201915b5050505050905090565b600e5481565b600f60009054906101000a900473ffffffffffffffffffffffffffffffffffffffff1681565b60006004600083815260200190815260200160002060000160009054906101000a900473ffffffffffffffffffffffffffffffffffffffff169050919050565b60003073ffffffffffffffffffffffffffffffffffffffff1661108a610e57565b73ffffffffffffffffffffffffffffffffffffffff16146110d7576040517fe90a651e00000000000000000000000000000000000000000000000000000000815260040160405180910390fd5b63150b7a0260e01b9050949350505050565b6000806110f886868686611fc9565b905061110d8161110860046123fd565b612423565b50600061111d8288888888612490565b905060008165ffffffffffff16146111a657806004600084815260200190815260200160002060010160006101000a81548165ffffffffffff021916908365ffffffffffff1602179055507f9a2e42fd6722813d69113e7d0079d3d940171428df7373df9c7f7617cfda289282826040516111999291906161a3565b60405180910390a16111d8565b6040517f90884a4600000000000000000000000000000000000000000000000000000000815260040160405180910390fd5b8192505050949350505050565b6000806111f486868686611fc9565b90506112148161120460056123fd565b61120e60046123fd565b17612423565b50600160046000838152602001908152602001600020600001601e6101000a81548160ff0219169083151502179055503073ffffffffffffffffffffffffffffffffffffffff16611263610e57565b73ffffffffffffffffffffffffffffffffffffffff161461131a5760005b8651811015611318573073ffffffffffffffffffffffffffffffffffffffff168782815181106112b4576112b36161cc565b5b602002602001015173ffffffffffffffffffffffffffffffffffffffff160361130d5761130c8582815181106112ed576112ec6161cc565b5b60200260200101518051906020012060056124aa90919063ffffffff16565b5b806001019050611281565b505b61132781878787876125a9565b3073ffffffffffffffffffffffffffffffffffffffff16611346610e57565b73ffffffffffffffffffffffffffffffffffffffff1614158015611371575061136f60056125bd565b155b1561138157611380600561262d565b5b7f712ae1383f79ac853f8d882153778e0260ef8f03b504e2866e0593e04d2b291f816040516113b09190614d1c565b60405180910390a180915050949350505050565b60006004600083815260200190815260200160002060000160149054906101000a900465ffffffffffff1665ffffffffffff169050919050565b7f3e83946653575f9a39005e1545185629e92736b7528ab20ca3816f315424a81181565b600061142c6126a8565b905090565b600061143c826126cc565b9050919050565b60006009600084815260200190815260200160002060030160008373ffffffffffffffffffffffffffffffffffffffff1673ffffffffffffffffffffffffffffffffffffffff16815260200190815260200160002060009054906101000a900460ff16905092915050565b6000806114bd86868686611fc9565b90506114d2816114cd60006123fd565b612423565b506114dc81611029565b73ffffffffffffffffffffffffffffffffffffffff166114fa61288b565b73ffffffffffffffffffffffffffffffffffffffff16146115595761151d61288b565b6040517f233d98e30000000000000000000000000000000000000000000000000000000081526004016115509190614efd565b60405180910390fd5b61156586868686612893565b915050949350505050565b606061157a612167565b73ffffffffffffffffffffffffffffffffffffffff16634bf5d7e96040518163ffffffff1660e01b8152600401600060405180830381865afa9250505080156115e657506040513d6000823e3d601f19601f820116820180604052508101906115e3919061626b565b60015b611627576040518060400160405280601d81526020017f6d6f64653d626c6f636b6e756d6265722666726f6d3d64656661756c74000000815250905061162c565b809150505b90565b600080600080600960008681526020019081526020016000209050806000015481600101548260020154935093509350509193909250565b60606040518060400160405280600181526020017f3100000000000000000000000000000000000000000000000000000000000000815250905090565b6000806116af61288b565b90506116cc848285604051806020016040528060008152506128ab565b91505092915050565b6000806117638761175d7f3e83946653575f9a39005e1545185629e92736b7528ab20ca3816f315424a8118c8c8c61170c8e6128cb565b8d8d60405161171c9291906162e4565b60405180910390208c80519060200120604051602001611742979695949392919061630c565b60405160208183030381529060405280519060200120612922565b8561293c565b9050806117a757866040517f94ab6c0700000000000000000000000000000000000000000000000000000000815260040161179e9190614efd565b60405180910390fd5b6117f889888a89898080601f016020809104026020016040519081016040528093929190818152602001838380828437600081840152601f19601f82011690508083019250505050505050886129eb565b915050979650505050505050565b60008061181161288b565b905061186487828888888080601f016020809104026020016040519081016040528093929190818152602001838380828437600081840152601f19601f82011690508083019250505050505050876129eb565b91505095945050505050565b600080600a6000018054905090506000600a60000160018361189291906163aa565b815481106118a3576118a26161cc565b5b90600052602060002001905060008160000160009054906101000a900465ffffffffffff16905060008260000160069054906101000a900479ffffffffffffffffffffffffffffffffffffffffffffffffffff169050858265ffffffffffff1611611930578079ffffffffffffffffffffffffffffffffffffffffffffffffffff1694505050505061196f565b61194c61193c87612af0565b600a612b4a90919063ffffffff16565b79ffffffffffffffffffffffffffffffffffffffffffffffffffff169450505050505b919050565b6000611990838360405180602001604052806000815250612c44565b905092915050565b6119a0612243565b6119a981612dc0565b50565b6000806119b761288b565b9050611a0986828787878080601f016020809104026020016040519081016040528093929190818152602001838380828437600081840152601f19601f820116905080830192505050505050506128ab565b915050949350505050565b600080611a1f61288b565b9050611a2b8184612e35565b611a6c57806040517fd9b39557000000000000000000000000000000000000000000000000000000008152600401611a639190614efd565b60405180910390fd5b6000611a76611e15565b90506000811115611af5576000611aa8836001611a91611cdd565b611a9b91906163de565b65ffffffffffff166120a4565b905081811015611af3578281836040517fc242ee16000000000000000000000000000000000000000000000000000000008152600401611aea93929190616418565b60405180910390fd5b505b611b028787878786612f81565b92505050949350505050565b6000600260008373ffffffffffffffffffffffffffffffffffffffff1673ffffffffffffffffffffffffffffffffffffffff168152602001908152602001600020549050919050565b600060608060008060006060611b6b613216565b611b73613251565b46306000801b600067ffffffffffffffff811115611b9457611b93614f4e565b5b604051908082528060200260200182016040528015611bc25781602001602082028036833780820191505090505b507f0f00000000000000000000000000000000000000000000000000000000000000959493929190965096509650965096509650965090919293949596565b600d5481565b600080611c7384611c6d7ff2aad550cf55f045cb27e9c559f9889fdfb6e6cdaa032301d6ea397784ae51d7898989611c3e8b6128cb565b604051602001611c5295949392919061644f565b60405160208183030381529060405280519060200120612922565b8561293c565b905080611cb757836040517f94ab6c07000000000000000000000000000000000000000000000000000000008152600401611cae9190614efd565b60405180910390fd5b611cd2868587604051806020016040528060008152506128ab565b915050949350505050565b6000611ce7612167565b73ffffffffffffffffffffffffffffffffffffffff166391ddadf46040518163ffffffff1660e01b8152600401602060405180830381865afa925050508015611d4e57506040513d601f19601f82011682018060405250810190611d4b91906164b7565b60015b611d6157611d5a61328c565b9050611d66565b809150505b90565b60006064905090565b6000611d7f848484612c44565b90509392505050565b6000611d94600a61329c565b79ffffffffffffffffffffffffffffffffffffffffffffffffffff16905090565b611dbd612243565b611dc681613304565b50565b6000611dd4826133a3565b9050919050565b60006004600083815260200190815260200160002060010160009054906101000a900465ffffffffffff1665ffffffffffff169050919050565b6000611e1f6133ae565b905090565b601060009054906101000a900473ffffffffffffffffffffffffffffffffffffffff1681565b60003073ffffffffffffffffffffffffffffffffffffffff16611e6b610e57565b73ffffffffffffffffffffffffffffffffffffffff1614611eb8576040517fe90a651e00000000000000000000000000000000000000000000000000000000815260040160405180910390fd5b63bc197c8160e01b905095945050505050565b600060046000838152602001908152602001600020600001601a9054906101000a900463ffffffff1663ffffffff166004600084815260200190815260200160002060000160149054906101000a900465ffffffffffff16611f2d91906164e4565b65ffffffffffff169050919050565b611f44612243565b6000808573ffffffffffffffffffffffffffffffffffffffff16858585604051611f6f9291906162e4565b60006040518083038185875af1925050503d8060008114611fac576040519150601f19603f3d011682016040523d82523d6000602084013e611fb1565b606091505b5091509150611fc082826133b8565b50505050505050565b600084848484604051602001611fe294939291906166f3565b6040516020818303038152906040528051906020012060001c9050949350505050565b6000600b60009054906101000a900473ffffffffffffffffffffffffffffffffffffffff16905090565b60606040518060400160405280602081526020017f737570706f72743d627261766f2671756f72756d3d666f722c6162737461696e815250905090565b7ff2aad550cf55f045cb27e9c559f9889fdfb6e6cdaa032301d6ea397784ae51d781565b612098612243565b6120a1816133dc565b50565b60006120b883836120b3613497565b612c44565b905092915050565b6120c8612243565b6120d1816134ae565b50565b60003073ffffffffffffffffffffffffffffffffffffffff166120f5610e57565b73ffffffffffffffffffffffffffffffffffffffff1614612142576040517fe90a651e00000000000000000000000000000000000000000000000000000000815260040160405180910390fd5b63f23a6e6160e01b905095945050505050565b6000612160826134f3565b9050919050565b60007f0000000000000000000000000000000000000000000000000000000000000000905090565b6000600b60009054906101000a900473ffffffffffffffffffffffffffffffffffffffff16905090565b60007f01ffc9a7000000000000000000000000000000000000000000000000000000007bffffffffffffffffffffffffffffffffffffffffffffffffffffffff1916827bffffffffffffffffffffffffffffffffffffffffffffffffffffffff1916149050919050565b6000600860069054906101000a900463ffffffff1663ffffffff16905090565b61224b61288b565b73ffffffffffffffffffffffffffffffffffffffff16612269610e57565b73ffffffffffffffffffffffffffffffffffffffff16146122c85761228c61288b565b6040517f47096e470000000000000000000000000000000000000000000000000000000081526004016122bf9190614efd565b60405180910390fd5b3073ffffffffffffffffffffffffffffffffffffffff166122e7610e57565b73ffffffffffffffffffffffffffffffffffffffff161461233757600061230c6135a2565b60405161231a9291906162e4565b604051809103902090505b8061233060056135af565b0361232557505b565b6000612343611d69565b90508082111561238c5781816040517f243e544500000000000000000000000000000000000000000000000000000000815260040161238392919061674d565b60405180910390fd5b6000612396611d88565b90506123bd6123a3611cdd565b6123ac856136e8565b600a6137569092919063ffffffff16565b50507f0553476bf02ef2726e8ce5ced78d63e26e602e4a2257b1f559418e24b463399781846040516123f092919061674d565b60405180910390a1505050565b6000816007811115612412576124116154ad565b5b60ff166001901b60001b9050919050565b60008061242f84611431565b90506000801b8361243f836123fd565b1603612486578381846040517f31b75e4d00000000000000000000000000000000000000000000000000000000815260040161247d93929190616776565b60405180910390fd5b8091505092915050565b600061249f8686868686613773565b905095945050505050565b60008260000160109054906101000a90046fffffffffffffffffffffffffffffffff1690508260000160009054906101000a90046fffffffffffffffffffffffffffffffff166fffffffffffffffffffffffffffffffff16600182016fffffffffffffffffffffffffffffffff160361252857612527604161398b565b5b81836001016000836fffffffffffffffffffffffffffffffff166fffffffffffffffffffffffffffffffff16815260200190815260200160002081905550600181018360000160106101000a8154816fffffffffffffffffffffffffffffffff02191690836fffffffffffffffffffffffffffffffff160217905550505050565b6125b6858585858561399d565b5050505050565b60008160000160009054906101000a90046fffffffffffffffffffffffffffffffff166fffffffffffffffffffffffffffffffff168260000160109054906101000a90046fffffffffffffffffffffffffffffffff166fffffffffffffffffffffffffffffffff16149050919050565b60008160000160006101000a8154816fffffffffffffffffffffffffffffffff02191690836fffffffffffffffffffffffffffffffff16021790555060008160000160106101000a8154816fffffffffffffffffffffffffffffffff02191690836fffffffffffffffffffffffffffffffff16021790555050565b6000600860009054906101000a900465ffffffffffff1665ffffffffffff16905090565b6000806126d883613a5a565b9050600560078111156126ee576126ed6154ad565b5b816007811115612701576127006154ad565b5b1461270f5780915050612886565b6000600c6000858152602001908152602001600020549050600b60009054906101000a900473ffffffffffffffffffffffffffffffffffffffff1673ffffffffffffffffffffffffffffffffffffffff1663584b153e826040518263ffffffff1660e01b81526004016127829190615492565b602060405180830381865afa15801561279f573d6000803e3d6000fd5b505050506040513d601f19601f820116820180604052508101906127c391906167d9565b156127d357600592505050612886565b600b60009054906101000a900473ffffffffffffffffffffffffffffffffffffffff1673ffffffffffffffffffffffffffffffffffffffff16632ab0f529826040518263ffffffff1660e01b815260040161282e9190615492565b602060405180830381865afa15801561284b573d6000803e3d6000fd5b505050506040513d601f19601f8201168201806040525081019061286f91906167d9565b1561287f57600792505050612886565b6002925050505b919050565b600033905090565b60006128a185858585613bbe565b9050949350505050565b60006128c1858585856128bc613497565b6129eb565b9050949350505050565b6000600260008373ffffffffffffffffffffffffffffffffffffffff1673ffffffffffffffffffffffffffffffffffffffff1681526020019081526020016000206000815480929190600101919050559050919050565b600061293561292f613ca3565b83613d5a565b9050919050565b6000808473ffffffffffffffffffffffffffffffffffffffff163b036129d6576000806129698585613d9b565b509150915060006003811115612982576129816154ad565b5b816003811115612995576129946154ad565b5b1480156129cd57508573ffffffffffffffffffffffffffffffffffffffff168273ffffffffffffffffffffffffffffffffffffffff16145b925050506129e4565b6129e1848484613df7565b90505b9392505050565b6000612a00866129fb60016123fd565b612423565b506000612a1686612a10896113c4565b85612c44565b90506000612a278888888588613f1b565b90506000845103612a8b578673ffffffffffffffffffffffffffffffffffffffff167fb8e138887d0aa13bab447e82de9d5c1777041ecd21ca36ba824ff1e6c07ddda489888489604051612a7e9493929190616806565b60405180910390a2612ae2565b8673ffffffffffffffffffffffffffffffffffffffff167fe2babfbac5889a709b63bb7f598b324e08bc5a4fb9ec647fb3cbc9ec07eb87128988848989604051612ad995949392919061689c565b60405180910390a25b809250505095945050505050565b600065ffffffffffff8016821115612b42576030826040517f6dfcc650000000000000000000000000000000000000000000000000000000008152600401612b39929190616938565b60405180910390fd5b819050919050565b600080836000018054905090506000808290506005831115612bd2576000612b718461411e565b84612b7c91906163aa565b9050612b8b87600001826142bb565b60000160009054906101000a900465ffffffffffff1665ffffffffffff168665ffffffffffff161015612bc057809150612bd0565b600181612bcd9190616961565b92505b505b6000612be3876000018785856142d0565b905060008114612c3557612c0687600001600183612c0191906163aa565b6142bb565b60000160069054906101000a900479ffffffffffffffffffffffffffffffffffffffffffffffffffff16612c38565b60005b94505050505092915050565b600080670de0b6b3a7640000600f60009054906101000a900473ffffffffffffffffffffffffffffffffffffffff1673ffffffffffffffffffffffffffffffffffffffff16633a46b1a887876040518363ffffffff1660e01b8152600401612cad929190616995565b602060405180830381865afa158015612cca573d6000803e3d6000fd5b505050506040513d601f19601f82011682018060405250810190612cee91906169d3565b612cf89190616a2f565b90506000612710601060009054906101000a900473ffffffffffffffffffffffffffffffffffffffff1673ffffffffffffffffffffffffffffffffffffffff16633a46b1a888886040518363ffffffff1660e01b8152600401612d5c929190616995565b602060405180830381865afa158015612d79573d6000803e3d6000fd5b505050506040513d601f19601f82011682018060405250810190612d9d91906169d3565b612da79190616a60565b90508082612db59190616961565b925050509392505050565b7fc565b045403dc03c2eea82b81a0465edad9e2e7fc4d97e11421c209da93d7a93600860009054906101000a900465ffffffffffff1682604051612e05929190616aa2565b60405180910390a180600860006101000a81548165ffffffffffff021916908365ffffffffffff16021790555050565b600080825190506034811015612e4f576001915050612f7b565b60006014820384015190507f2370726f706f7365723d3078000000000000000000000000000000000000000073ffffffffffffffffffffffffffffffffffffffff19168173ffffffffffffffffffffffffffffffffffffffff191614612eba57600192505050612f7b565b600080602884612eca91906163aa565b90505b83811015612f4557600080612efe888481518110612eee57612eed6161cc565b5b602001015160f81c60f81b614349565b9150915081612f165760019650505050505050612f7b565b8060ff1660048573ffffffffffffffffffffffffffffffffffffffff16901b1793505050806001019050612ecd565b508573ffffffffffffffffffffffffffffffffffffffff168173ffffffffffffffffffffffffffffffffffffffff161493505050505b92915050565b6000612f968686868680519060200120611fc9565b905084518651141580612fab57508351865114155b80612fb7575060008651145b15613000578551845186516040517f447b05d0000000000000000000000000000000000000000000000000000000008152600401612ff79392919061557f565b60405180910390fd5b60006004600083815260200190815260200160002060000160149054906101000a900465ffffffffffff1665ffffffffffff1614613084578061304282611431565b6000801b6040517f31b75e4d00000000000000000000000000000000000000000000000000000000815260040161307b93929190616776565b60405180910390fd5b600061308e611422565b613096611cdd565b65ffffffffffff166130a89190616961565b905060006130b4610f48565b90506000600460008581526020019081526020016000209050848160000160006101000a81548173ffffffffffffffffffffffffffffffffffffffff021916908373ffffffffffffffffffffffffffffffffffffffff16021790555061311983612af0565b8160000160146101000a81548165ffffffffffff021916908365ffffffffffff160217905550613148826143e3565b81600001601a6101000a81548163ffffffff021916908363ffffffff1602179055507f7d84a6263ae0d98d3329bd7b46bb4e8d6f98cd35a7adb45c274c8b7fd5ebd5e084868b8b8d5167ffffffffffffffff8111156131aa576131a9614f4e565b5b6040519080825280602002602001820160405280156131dd57816020015b60608152602001906001900390816131c85790505b508c89898b6131ec9190616961565b8e60405161320299989796959493929190616bd7565b60405180910390a150505095945050505050565b606061324c60007f000000000000000000000000000000000000000000000000000000000000000061443b90919063ffffffff16565b905090565b606061328760017f000000000000000000000000000000000000000000000000000000000000000061443b90919063ffffffff16565b905090565b600061329743612af0565b905090565b60008082600001805490509050600081146132f9576132ca836000016001836132c591906163aa565b6142bb565b60000160069054906101000a900479ffffffffffffffffffffffffffffffffffffffffffffffffffff166132fc565b60005b915050919050565b7f08f74ea46ef7894f65eabfb5e6e695de773a000b47c529ab559178069b226401600b60009054906101000a900473ffffffffffffffffffffffffffffffffffffffff1682604051613357929190616c87565b60405180910390a180600b60006101000a81548173ffffffffffffffffffffffffffffffffffffffff021916908373ffffffffffffffffffffffffffffffffffffffff16021790555050565b600060019050919050565b6000600754905090565b6060826133cd576133c8826144eb565b6133d5565b8190506133d6565b5b92915050565b60008163ffffffff16036134285760006040517ff1cfbf0500000000000000000000000000000000000000000000000000000000815260040161341f9190616ceb565b60405180910390fd5b7f7e3f7f0708a84de9203036abaa450dccc85ad5ff52f78c170f3edb55cf5e8828600860069054906101000a900463ffffffff168260405161346b929190616d37565b60405180910390a180600860066101000a81548163ffffffff021916908363ffffffff16021790555050565b606060405180602001604052806000815250905090565b7fccb45da8d5717e6c4544694297c4ba5cf151d455c9bb0ed4fc7a38411bc05461600754826040516134e192919061674d565b60405180910390a18060078190555050565b60006134fd611d69565b61350683611870565b61350e612167565b73ffffffffffffffffffffffffffffffffffffffff16638e539e8c856040518263ffffffff1660e01b81526004016135469190614d1c565b602060405180830381865afa158015613563573d6000803e3d6000fd5b505050506040513d601f19601f8201168201806040525081019061358791906169d3565b6135919190616a60565b61359b9190616a2f565b9050919050565b3660008036915091509091565b6000808260000160009054906101000a90046fffffffffffffffffffffffffffffffff1690508260000160109054906101000a90046fffffffffffffffffffffffffffffffff166fffffffffffffffffffffffffffffffff16816fffffffffffffffffffffffffffffffff160361362b5761362a603161398b565b5b826001016000826fffffffffffffffffffffffffffffffff166fffffffffffffffffffffffffffffffff168152602001908152602001600020549150826001016000826fffffffffffffffffffffffffffffffff166fffffffffffffffffffffffffffffffff16815260200190815260200160002060009055600181018360000160006101000a8154816fffffffffffffffffffffffffffffffff02191690836fffffffffffffffffffffffffffffffff16021790555050919050565b600079ffffffffffffffffffffffffffffffffffffffffffffffffffff801682111561374e5760d0826040517f6dfcc650000000000000000000000000000000000000000000000000000000008152600401613745929190616d9b565b60405180910390fd5b819050919050565b600080613767856000018585614530565b91509150935093915050565b600080600b60009054906101000a900473ffffffffffffffffffffffffffffffffffffffff1673ffffffffffffffffffffffffffffffffffffffff1663f27a0c926040518163ffffffff1660e01b8152600401602060405180830381865afa1580156137e3573d6000803e3d6000fd5b505050506040513d601f19601f8201168201806040525081019061380791906169d3565b905060006138148461483d565b9050600b60009054906101000a900473ffffffffffffffffffffffffffffffffffffffff1673ffffffffffffffffffffffffffffffffffffffff1663b1c5f4278888886000866040518663ffffffff1660e01b815260040161387a959493929190616e02565b602060405180830381865afa158015613897573d6000803e3d6000fd5b505050506040513d601f19601f820116820180604052508101906138bb9190616e7f565b600c60008a815260200190815260200160002081905550600b60009054906101000a900473ffffffffffffffffffffffffffffffffffffffff1673ffffffffffffffffffffffffffffffffffffffff16638f2a0bb0888888600086886040518763ffffffff1660e01b815260040161393896959493929190616eac565b600060405180830381600087803b15801561395257600080fd5b505af1158015613966573d6000803e3d6000fd5b5050505061397e82426139799190616961565b612af0565b9250505095945050505050565b634e487b71600052806020526024601cfd5b600b60009054906101000a900473ffffffffffffffffffffffffffffffffffffffff1673ffffffffffffffffffffffffffffffffffffffff1663e38335e53486868660006139ea8861483d565b6040518763ffffffff1660e01b8152600401613a0a959493929190616e02565b6000604051808303818588803b158015613a2357600080fd5b505af1158015613a37573d6000803e3d6000fd5b5050505050600c6000868152602001908152602001600020600090555050505050565b600080600460008481526020019081526020016000209050600081600001601e9054906101000a900460ff169050600082600001601f9054906101000a900460ff1690508115613ab05760079350505050613bb9565b8015613ac25760029350505050613bb9565b6000613acd866113c4565b905060008103613b1457856040517f6ad06075000000000000000000000000000000000000000000000000000000008152600401613b0b9190614d1c565b60405180910390fd5b6000613b1e611cdd565b65ffffffffffff169050808210613b3d57600095505050505050613bb9565b6000613b4888611ecb565b9050818110613b605760019650505050505050613bb9565b613b698861485b565b1580613b7b5750613b79886148a2565b155b15613b8f5760039650505050505050613bb9565b6000613b9a89611ddb565b03613bae5760049650505050505050613bb9565b600596505050505050505b919050565b600080613bcd868686866148cd565b90506000600c60008381526020019081526020016000205490506000801b8114613c9657600b60009054906101000a900473ffffffffffffffffffffffffffffffffffffffff1673ffffffffffffffffffffffffffffffffffffffff1663c4d252f5826040518263ffffffff1660e01b8152600401613c4c9190615492565b600060405180830381600087803b158015613c6657600080fd5b505af1158015613c7a573d6000803e3d6000fd5b50505050600c6000838152602001908152602001600020600090555b8192505050949350505050565b60007f000000000000000000000000000000000000000000000000000000000000000073ffffffffffffffffffffffffffffffffffffffff163073ffffffffffffffffffffffffffffffffffffffff16148015613d1f57507f000000000000000000000000000000000000000000000000000000000000000046145b15613d4c577f00000000000000000000000000000000000000000000000000000000000000009050613d57565b613d546149b4565b90505b90565b60006040517f190100000000000000000000000000000000000000000000000000000000000081528360028201528260228201526042812091505092915050565b60008060006041845103613de05760008060006020870151925060408701519150606087015160001a9050613dd288828585614a4a565b955095509550505050613df0565b60006002855160001b9250925092505b9250925092565b60008060008573ffffffffffffffffffffffffffffffffffffffff168585604051602401613e26929190616f22565b604051602081830303815290604052631626ba7e60e01b6020820180517bffffffffffffffffffffffffffffffffffffffffffffffffffffffff8381831617835250505050604051613e789190616f83565b600060405180830381855afa9150503d8060008114613eb3576040519150601f19603f3d011682016040523d82523d6000602084013e613eb8565b606091505b5091509150818015613ecc57506020815110155b8015613f105750631626ba7e60e01b7bffffffffffffffffffffffffffffffffffffffffffffffffffffffff191681806020019051810190613f0e9190616e7f565b145b925050509392505050565b6000806009600088815260200190815260200160002090508060030160008773ffffffffffffffffffffffffffffffffffffffff1673ffffffffffffffffffffffffffffffffffffffff16815260200190815260200160002060009054906101000a900460ff1615613fc457856040517f71c6af49000000000000000000000000000000000000000000000000000000008152600401613fbb9190614efd565b60405180910390fd5b60018160030160008873ffffffffffffffffffffffffffffffffffffffff1673ffffffffffffffffffffffffffffffffffffffff16815260200190815260200160002060006101000a81548160ff02191690831515021790555060006002811115614032576140316154ad565b5b60ff168560ff160361405e57838160000160008282546140529190616961565b92505081905550614111565b60016002811115614072576140716154ad565b5b60ff168560ff160361409e57838160010160008282546140929190616961565b92505081905550614110565b6002808111156140b1576140b06154ad565b5b60ff168560ff16036140dd57838160020160008282546140d19190616961565b9250508190555061410f565b6040517f06b337c200000000000000000000000000000000000000000000000000000000815260040160405180910390fd5b5b5b8391505095945050505050565b600060018211614130578190506142b6565b6000829050600060019050700100000000000000000000000000000000821061416257608082901c9150604081901b90505b68010000000000000000821061418157604082901c9150602081901b90505b640100000000821061419c57602082901c9150601081901b90505b6201000082106141b557601082901c9150600881901b90505b61010082106141cd57600882901c9150600481901b90505b601082106141e457600482901c9150600281901b90505b600482106141f457600181901b90505b600181600302901c905060018185816142105761420f616a00565b5b048201901c9050600181858161422957614228616a00565b5b048201901c9050600181858161424257614241616a00565b5b048201901c9050600181858161425b5761425a616a00565b5b048201901c9050600181858161427457614273616a00565b5b048201901c9050600181858161428d5761428c616a00565b5b048201901c90506142af8185816142a7576142a6616a00565b5b048211614b3e565b8103925050505b919050565b60008260005281602060002001905092915050565b60005b8183101561433e5760006142e78484614b4a565b90508465ffffffffffff166142fc87836142bb565b60000160009054906101000a900465ffffffffffff1665ffffffffffff16111561432857809250614338565b6001816143359190616961565b93505b506142d3565b819050949350505050565b60008060008360f81c90508060ff16602f10801561436a5750603a8160ff16105b1561437f5760016030820392509250506143de565b8060ff166040108015614395575060478160ff16105b156143aa5760016037820392509250506143de565b8060ff1660601080156143c0575060678160ff16105b156143d55760016057820392509250506143de565b60008092509250505b915091565b600063ffffffff8016821115614433576020826040517f6dfcc65000000000000000000000000000000000000000000000000000000000815260040161442a929190616fd5565b60405180910390fd5b819050919050565b606060ff60001b83146144585761445183614b70565b90506144e5565b81805461446490616141565b80601f016020809104026020016040519081016040528092919081815260200182805461449090616141565b80156144dd5780601f106144b2576101008083540402835291602001916144dd565b820191906000526020600020905b8154815290600101906020018083116144c057829003601f168201915b505050505090505b92915050565b6000815111156144fe5780518082602001fd5b6040517fd6bda27500000000000000000000000000000000000000000000000000000000815260040160405180910390fd5b600080600085805490509050600081111561474d57600061455d8760018461455891906163aa565b6142bb565b905060008160000160009054906101000a900465ffffffffffff16905060008260000160069054906101000a900479ffffffffffffffffffffffffffffffffffffffffffffffffffff1690508765ffffffffffff168265ffffffffffff1611156145f3576040517f2520601d00000000000000000000000000000000000000000000000000000000815260040160405180910390fd5b8765ffffffffffff168265ffffffffffff160361465e57868360000160066101000a81548179ffffffffffffffffffffffffffffffffffffffffffffffffffff021916908379ffffffffffffffffffffffffffffffffffffffffffffffffffff16021790555061473e565b8860405180604001604052808a65ffffffffffff1681526020018979ffffffffffffffffffffffffffffffffffffffffffffffffffff168152509080600181540180825580915050600190039060005260206000200160009091909190915060008201518160000160006101000a81548165ffffffffffff021916908365ffffffffffff16021790555060208201518160000160066101000a81548179ffffffffffffffffffffffffffffffffffffffffffffffffffff021916908379ffffffffffffffffffffffffffffffffffffffffffffffffffff16021790555050505b80879550955050505050614835565b8560405180604001604052808765ffffffffffff1681526020018679ffffffffffffffffffffffffffffffffffffffffffffffffffff168152509080600181540180825580915050600190039060005260206000200160009091909190915060008201518160000160006101000a81548165ffffffffffff021916908365ffffffffffff16021790555060208201518160000160066101000a81548179ffffffffffffffffffffffffffffffffffffffffffffffffffff021916908379ffffffffffffffffffffffffffffffffffffffffffffffffffff160217905550505060008492509250505b935093915050565b6000813060601b6bffffffffffffffffffffffff1916189050919050565b600080600960008481526020019081526020016000209050806002015481600101546148879190616961565b614898614893856113c4565b612155565b1115915050919050565b6000806009600084815260200190815260200160002090508060000154816001015411915050919050565b6000806148dc86868686611fc9565b9050614941816148ec60076123fd565b6148f660066123fd565b61490060026123fd565b600180600780811115614916576149156154ad565b5b6149209190616ffe565b600261492c9190617166565b61493691906163aa565b60001b181818612423565b50600160046000838152602001908152602001600020600001601f6101000a81548160ff0219169083151502179055507f789cf55be980739dad1d0699b93b58e806b51c9d96619bfa8fe0a28abaa7b30c816040516149a09190614d1c565b60405180910390a180915050949350505050565b60007f8b73c3c69bb8fe3d512ecc4cf759cc79239f7b179b0ffacaa9a75d522b39400f7f00000000000000000000000000000000000000000000000000000000000000007f00000000000000000000000000000000000000000000000000000000000000004630604051602001614a2f9594939291906171b1565b60405160208183030381529060405280519060200120905090565b60008060007f7fffffffffffffffffffffffffffffff5d576e7357a4501ddfe92f46681b20a08460001c1115614a8a576000600385925092509250614b34565b600060018888888860405160008152602001604052604051614aaf9493929190617204565b6020604051602081039080840390855afa158015614ad1573d6000803e3d6000fd5b505050602060405103519050600073ffffffffffffffffffffffffffffffffffffffff168173ffffffffffffffffffffffffffffffffffffffff1603614b2557600060016000801b93509350935050614b34565b8060008060001b935093509350505b9450945094915050565b60008115159050919050565b60006002828418614b5b9190616a2f565b828416614b689190616961565b905092915050565b60606000614b7d83614be4565b90506000602067ffffffffffffffff811115614b9c57614b9b614f4e565b5b6040519080825280601f01601f191660200182016040528015614bce5781602001600182028036833780820191505090505b5090508181528360208201528092505050919050565b60008060ff8360001c169050601f811115614c2b576040517fb3512b0c00000000000000000000000000000000000000000000000000000000815260040160405180910390fd5b80915050919050565b6000604051905090565b600080fd5b600080fd5b60007fffffffff0000000000000000000000000000000000000000000000000000000082169050919050565b614c7d81614c48565b8114614c8857600080fd5b50565b600081359050614c9a81614c74565b92915050565b600060208284031215614cb657614cb5614c3e565b5b6000614cc484828501614c8b565b91505092915050565b60008115159050919050565b614ce281614ccd565b82525050565b6000602082019050614cfd6000830184614cd9565b92915050565b6000819050919050565b614d1681614d03565b82525050565b6000602082019050614d316000830184614d0d565b92915050565b614d4081614d03565b8114614d4b57600080fd5b50565b600081359050614d5d81614d37565b92915050565b600060208284031215614d7957614d78614c3e565b5b6000614d8784828501614d4e565b91505092915050565b600081519050919050565b600082825260208201905092915050565b60005b83811015614dca578082015181840152602081019050614daf565b60008484015250505050565b6000601f19601f8301169050919050565b6000614df282614d90565b614dfc8185614d9b565b9350614e0c818560208601614dac565b614e1581614dd6565b840191505092915050565b60006020820190508181036000830152614e3a8184614de7565b905092915050565b600073ffffffffffffffffffffffffffffffffffffffff82169050919050565b6000819050919050565b6000614e87614e82614e7d84614e42565b614e62565b614e42565b9050919050565b6000614e9982614e6c565b9050919050565b6000614eab82614e8e565b9050919050565b614ebb81614ea0565b82525050565b6000602082019050614ed66000830184614eb2565b92915050565b6000614ee782614e42565b9050919050565b614ef781614edc565b82525050565b6000602082019050614f126000830184614eee565b92915050565b614f2181614edc565b8114614f2c57600080fd5b50565b600081359050614f3e81614f18565b92915050565b600080fd5b600080fd5b7f4e487b7100000000000000000000000000000000000000000000000000000000600052604160045260246000fd5b614f8682614dd6565b810181811067ffffffffffffffff82111715614fa557614fa4614f4e565b5b80604052505050565b6000614fb8614c34565b9050614fc48282614f7d565b919050565b600067ffffffffffffffff821115614fe457614fe3614f4e565b5b614fed82614dd6565b9050602081019050919050565b82818337600083830152505050565b600061501c61501784614fc9565b614fae565b90508281526020810184848401111561503857615037614f49565b5b615043848285614ffa565b509392505050565b600082601f8301126150605761505f614f44565b5b8135615070848260208601615009565b91505092915050565b6000806000806080858703121561509357615092614c3e565b5b60006150a187828801614f2f565b94505060206150b287828801614f2f565b93505060406150c387828801614d4e565b925050606085013567ffffffffffffffff8111156150e4576150e3614c43565b5b6150f08782880161504b565b91505092959194509250565b61510581614c48565b82525050565b600060208201905061512060008301846150fc565b92915050565b600067ffffffffffffffff82111561514157615140614f4e565b5b602082029050602081019050919050565b600080fd5b600061516a61516584615126565b614fae565b9050808382526020820190506020840283018581111561518d5761518c615152565b5b835b818110156151b657806151a28882614f2f565b84526020840193505060208101905061518f565b5050509392505050565b600082601f8301126151d5576151d4614f44565b5b81356151e5848260208601615157565b91505092915050565b600067ffffffffffffffff82111561520957615208614f4e565b5b602082029050602081019050919050565b600061522d615228846151ee565b614fae565b905080838252602082019050602084028301858111156152505761524f615152565b5b835b8181101561527957806152658882614d4e565b845260208401935050602081019050615252565b5050509392505050565b600082601f83011261529857615297614f44565b5b81356152a884826020860161521a565b91505092915050565b600067ffffffffffffffff8211156152cc576152cb614f4e565b5b602082029050602081019050919050565b60006152f06152eb846152b1565b614fae565b9050808382526020820190506020840283018581111561531357615312615152565b5b835b8181101561535a57803567ffffffffffffffff81111561533857615337614f44565b5b808601615345898261504b565b85526020850194505050602081019050615315565b5050509392505050565b600082601f83011261537957615378614f44565b5b81356153898482602086016152dd565b91505092915050565b6000819050919050565b6153a581615392565b81146153b057600080fd5b50565b6000813590506153c28161539c565b92915050565b600080600080608085870312156153e2576153e1614c3e565b5b600085013567ffffffffffffffff811115615400576153ff614c43565b5b61540c878288016151c0565b945050602085013567ffffffffffffffff81111561542d5761542c614c43565b5b61543987828801615283565b935050604085013567ffffffffffffffff81111561545a57615459614c43565b5b61546687828801615364565b9250506060615477878288016153b3565b91505092959194509250565b61548c81615392565b82525050565b60006020820190506154a76000830184615483565b92915050565b7f4e487b7100000000000000000000000000000000000000000000000000000000600052602160045260246000fd5b600881106154ed576154ec6154ad565b5b50565b60008190506154fe826154dc565b919050565b600061550e826154f0565b9050919050565b61551e81615503565b82525050565b60006020820190506155396000830184615515565b92915050565b6000806040838503121561555657615555614c3e565b5b600061556485828601614d4e565b925050602061557585828601614f2f565b9150509250929050565b60006060820190506155946000830186614d0d565b6155a16020830185614d0d565b6155ae6040830184614d0d565b949350505050565b600060ff82169050919050565b6155cc816155b6565b81146155d757600080fd5b50565b6000813590506155e9816155c3565b92915050565b6000806040838503121561560657615605614c3e565b5b600061561485828601614d4e565b9250506020615625858286016155da565b9150509250929050565b600080fd5b60008083601f84011261564a57615649614f44565b5b8235905067ffffffffffffffff8111156156675761566661562f565b5b60208301915083600182028301111561568357615682615152565b5b9250929050565b600080600080600080600060c0888a0312156156a9576156a8614c3e565b5b60006156b78a828b01614d4e565b97505060206156c88a828b016155da565b96505060406156d98a828b01614f2f565b955050606088013567ffffffffffffffff8111156156fa576156f9614c43565b5b6157068a828b01615634565b9450945050608088013567ffffffffffffffff81111561572957615728614c43565b5b6157358a828b0161504b565b92505060a088013567ffffffffffffffff81111561575657615755614c43565b5b6157628a828b0161504b565b91505092959891949750929550565b60008060008060006080868803121561578d5761578c614c3e565b5b600061579b88828901614d4e565b95505060206157ac888289016155da565b945050604086013567ffffffffffffffff8111156157cd576157cc614c43565b5b6157d988828901615634565b9350935050606086013567ffffffffffffffff8111156157fc576157fb614c43565b5b6158088882890161504b565b9150509295509295909350565b6000806040838503121561582c5761582b614c3e565b5b600061583a85828601614f2f565b925050602061584b85828601614d4e565b9150509250929050565b600065ffffffffffff82169050919050565b61587081615855565b811461587b57600080fd5b50565b60008135905061588d81615867565b92915050565b6000602082840312156158a9576158a8614c3e565b5b60006158b78482850161587e565b91505092915050565b600080600080606085870312156158da576158d9614c3e565b5b60006158e887828801614d4e565b94505060206158f9878288016155da565b935050604085013567ffffffffffffffff81111561591a57615919614c43565b5b61592687828801615634565b925092505092959194509250565b600067ffffffffffffffff82111561594f5761594e614f4e565b5b61595882614dd6565b9050602081019050919050565b600061597861597384615934565b614fae565b90508281526020810184848401111561599457615993614f49565b5b61599f848285614ffa565b509392505050565b600082601f8301126159bc576159bb614f44565b5b81356159cc848260208601615965565b91505092915050565b600080600080608085870312156159ef576159ee614c3e565b5b600085013567ffffffffffffffff811115615a0d57615a0c614c43565b5b615a19878288016151c0565b945050602085013567ffffffffffffffff811115615a3a57615a39614c43565b5b615a4687828801615283565b935050604085013567ffffffffffffffff811115615a6757615a66614c43565b5b615a7387828801615364565b925050606085013567ffffffffffffffff811115615a9457615a93614c43565b5b615aa0878288016159a7565b91505092959194509250565b600060208284031215615ac257615ac1614c3e565b5b6000615ad084828501614f2f565b91505092915050565b60007fff0000000000000000000000000000000000000000000000000000000000000082169050919050565b615b0e81615ad9565b82525050565b600081519050919050565b600082825260208201905092915050565b6000819050602082019050919050565b615b4981614d03565b82525050565b6000615b5b8383615b40565b60208301905092915050565b6000602082019050919050565b6000615b7f82615b14565b615b898185615b1f565b9350615b9483615b30565b8060005b83811015615bc5578151615bac8882615b4f565b9750615bb783615b67565b925050600181019050615b98565b5085935050505092915050565b600060e082019050615be7600083018a615b05565b8181036020830152615bf98189614de7565b90508181036040830152615c0d8188614de7565b9050615c1c6060830187614d0d565b615c296080830186614eee565b615c3660a0830185615483565b81810360c0830152615c488184615b74565b905098975050505050505050565b60008060008060808587031215615c7057615c6f614c3e565b5b6000615c7e87828801614d4e565b9450506020615c8f878288016155da565b9350506040615ca087828801614f2f565b925050606085013567ffffffffffffffff811115615cc157615cc0614c43565b5b615ccd8782880161504b565b91505092959194509250565b615ce281615855565b82525050565b6000602082019050615cfd6000830184615cd9565b92915050565b600080600060608486031215615d1c57615d1b614c3e565b5b6000615d2a86828701614f2f565b9350506020615d3b86828701614d4e565b925050604084013567ffffffffffffffff811115615d5c57615d5b614c43565b5b615d688682870161504b565b9150509250925092565b6000615d7d82614e42565b9050919050565b6000615d8f82615d72565b9050919050565b615d9f81615d84565b8114615daa57600080fd5b50565b600081359050615dbc81615d96565b92915050565b600060208284031215615dd857615dd7614c3e565b5b6000615de684828501615dad565b91505092915050565b6000615dfa82614e8e565b9050919050565b615e0a81615def565b82525050565b6000602082019050615e256000830184615e01565b92915050565b600080600080600060a08688031215615e4757615e46614c3e565b5b6000615e5588828901614f2f565b9550506020615e6688828901614f2f565b945050604086013567ffffffffffffffff811115615e8757615e86614c43565b5b615e9388828901615283565b935050606086013567ffffffffffffffff811115615eb457615eb3614c43565b5b615ec088828901615283565b925050608086013567ffffffffffffffff811115615ee157615ee0614c43565b5b615eed8882890161504b565b9150509295509295909350565b60008083601f840112615f1057615f0f614f44565b5b8235905067ffffffffffffffff811115615f2d57615f2c61562f565b5b602083019150836001820283011115615f4957615f48615152565b5b9250929050565b60008060008060608587031215615f6a57615f69614c3e565b5b6000615f7887828801614f2f565b9450506020615f8987828801614d4e565b935050604085013567ffffffffffffffff811115615faa57615fa9614c43565b5b615fb687828801615efa565b925092505092959194509250565b600063ffffffff82169050919050565b615fdd81615fc4565b8114615fe857600080fd5b50565b600081359050615ffa81615fd4565b92915050565b60006020828403121561601657616015614c3e565b5b600061602484828501615feb565b91505092915050565b600080600080600060a0868803121561604957616048614c3e565b5b600061605788828901614f2f565b955050602061606888828901614f2f565b945050604061607988828901614d4e565b935050606061608a88828901614d4e565b925050608086013567ffffffffffffffff8111156160ab576160aa614c43565b5b6160b78882890161504b565b9150509295509295909350565b60006160cf82614e6c565b9050919050565b60006160e1826160c4565b9050919050565b6160f1816160d6565b82525050565b600060208201905061610c60008301846160e8565b92915050565b7f4e487b7100000000000000000000000000000000000000000000000000000000600052602260045260246000fd5b6000600282049050600182168061615957607f821691505b60208210810361616c5761616b616112565b5b50919050565b600061618d61618861618384615855565b614e62565b614d03565b9050919050565b61619d81616172565b82525050565b60006040820190506161b86000830185614d0d565b6161c56020830184616194565b9392505050565b7f4e487b7100000000000000000000000000000000000000000000000000000000600052603260045260246000fd5b600061620e61620984615934565b614fae565b90508281526020810184848401111561622a57616229614f49565b5b616235848285614dac565b509392505050565b600082601f83011261625257616251614f44565b5b81516162628482602086016161fb565b91505092915050565b60006020828403121561628157616280614c3e565b5b600082015167ffffffffffffffff81111561629f5761629e614c43565b5b6162ab8482850161623d565b91505092915050565b600081905092915050565b60006162cb83856162b4565b93506162d8838584614ffa565b82840190509392505050565b60006162f18284866162bf565b91508190509392505050565b616306816155b6565b82525050565b600060e082019050616321600083018a615483565b61632e6020830189614d0d565b61633b60408301886162fd565b6163486060830187614eee565b6163556080830186614d0d565b61636260a0830185615483565b61636f60c0830184615483565b98975050505050505050565b7f4e487b7100000000000000000000000000000000000000000000000000000000600052601160045260246000fd5b60006163b582614d03565b91506163c083614d03565b92508282039050818111156163d8576163d761637b565b5b92915050565b60006163e982615855565b91506163f483615855565b9250828203905065ffffffffffff8111156164125761641161637b565b5b92915050565b600060608201905061642d6000830186614eee565b61643a6020830185614d0d565b6164476040830184614d0d565b949350505050565b600060a0820190506164646000830188615483565b6164716020830187614d0d565b61647e60408301866162fd565b61648b6060830185614eee565b6164986080830184614d0d565b9695505050505050565b6000815190506164b181615867565b92915050565b6000602082840312156164cd576164cc614c3e565b5b60006164db848285016164a2565b91505092915050565b60006164ef82615855565b91506164fa83615855565b9250828201905065ffffffffffff8111156165185761651761637b565b5b92915050565b600081519050919050565b600082825260208201905092915050565b6000819050602082019050919050565b61655381614edc565b82525050565b6000616565838361654a565b60208301905092915050565b6000602082019050919050565b60006165898261651e565b6165938185616529565b935061659e8361653a565b8060005b838110156165cf5781516165b68882616559565b97506165c183616571565b9250506001810190506165a2565b5085935050505092915050565b600081519050919050565b600082825260208201905092915050565b6000819050602082019050919050565b600081519050919050565b600082825260208201905092915050565b600061662f82616608565b6166398185616613565b9350616649818560208601614dac565b61665281614dd6565b840191505092915050565b60006166698383616624565b905092915050565b6000602082019050919050565b6000616689826165dc565b61669381856165e7565b9350836020820285016166a5856165f8565b8060005b858110156166e157848403895281516166c2858261665d565b94506166cd83616671565b925060208a019950506001810190506166a9565b50829750879550505050505092915050565b6000608082019050818103600083015261670d818761657e565b905081810360208301526167218186615b74565b90508181036040830152616735818561667e565b90506167446060830184615483565b95945050505050565b60006040820190506167626000830185614d0d565b61676f6020830184614d0d565b9392505050565b600060608201905061678b6000830186614d0d565b6167986020830185615515565b6167a56040830184615483565b949350505050565b6167b681614ccd565b81146167c157600080fd5b50565b6000815190506167d3816167ad565b92915050565b6000602082840312156167ef576167ee614c3e565b5b60006167fd848285016167c4565b91505092915050565b600060808201905061681b6000830187614d0d565b61682860208301866162fd565b6168356040830185614d0d565b81810360608301526168478184614de7565b905095945050505050565b600082825260208201905092915050565b600061686e82616608565b6168788185616852565b9350616888818560208601614dac565b61689181614dd6565b840191505092915050565b600060a0820190506168b16000830188614d0d565b6168be60208301876162fd565b6168cb6040830186614d0d565b81810360608301526168dd8185614de7565b905081810360808301526168f18184616863565b90509695505050505050565b6000819050919050565b600061692261691d616918846168fd565b614e62565b6155b6565b9050919050565b61693281616907565b82525050565b600060408201905061694d6000830185616929565b61695a6020830184614d0d565b9392505050565b600061696c82614d03565b915061697783614d03565b925082820190508082111561698f5761698e61637b565b5b92915050565b60006040820190506169aa6000830185614eee565b6169b76020830184614d0d565b9392505050565b6000815190506169cd81614d37565b92915050565b6000602082840312156169e9576169e8614c3e565b5b60006169f7848285016169be565b91505092915050565b7f4e487b7100000000000000000000000000000000000000000000000000000000600052601260045260246000fd5b6000616a3a82614d03565b9150616a4583614d03565b925082616a5557616a54616a00565b5b828204905092915050565b6000616a6b82614d03565b9150616a7683614d03565b9250828202616a8481614d03565b91508282048414831517616a9b57616a9a61637b565b5b5092915050565b6000604082019050616ab76000830185616194565b616ac46020830184616194565b9392505050565b600081519050919050565b600082825260208201905092915050565b6000819050602082019050919050565b600082825260208201905092915050565b6000616b1382614d90565b616b1d8185616af7565b9350616b2d818560208601614dac565b616b3681614dd6565b840191505092915050565b6000616b4d8383616b08565b905092915050565b6000602082019050919050565b6000616b6d82616acb565b616b778185616ad6565b935083602082028501616b8985616ae7565b8060005b85811015616bc55784840389528151616ba68582616b41565b9450616bb183616b55565b925060208a01995050600181019050616b8d565b50829750879550505050505092915050565b600061012082019050616bed600083018c614d0d565b616bfa602083018b614eee565b8181036040830152616c0c818a61657e565b90508181036060830152616c208189615b74565b90508181036080830152616c348188616b62565b905081810360a0830152616c48818761667e565b9050616c5760c0830186614d0d565b616c6460e0830185614d0d565b818103610100830152616c778184614de7565b90509a9950505050505050505050565b6000604082019050616c9c6000830185614eee565b616ca96020830184614eee565b9392505050565b6000819050919050565b6000616cd5616cd0616ccb84616cb0565b614e62565b614d03565b9050919050565b616ce581616cba565b82525050565b6000602082019050616d006000830184616cdc565b92915050565b6000616d21616d1c616d1784615fc4565b614e62565b614d03565b9050919050565b616d3181616d06565b82525050565b6000604082019050616d4c6000830185616d28565b616d596020830184616d28565b9392505050565b6000819050919050565b6000616d85616d80616d7b84616d60565b614e62565b6155b6565b9050919050565b616d9581616d6a565b82525050565b6000604082019050616db06000830185616d8c565b616dbd6020830184614d0d565b9392505050565b60008160001b9050919050565b6000616dec616de7616de284616cb0565b616dc4565b615392565b9050919050565b616dfc81616dd1565b82525050565b600060a0820190508181036000830152616e1c818861657e565b90508181036020830152616e308187615b74565b90508181036040830152616e44818661667e565b9050616e536060830185616df3565b616e606080830184615483565b9695505050505050565b600081519050616e798161539c565b92915050565b600060208284031215616e9557616e94614c3e565b5b6000616ea384828501616e6a565b91505092915050565b600060c0820190508181036000830152616ec6818961657e565b90508181036020830152616eda8188615b74565b90508181036040830152616eee818761667e565b9050616efd6060830186616df3565b616f0a6080830185615483565b616f1760a0830184614d0d565b979650505050505050565b6000604082019050616f376000830185615483565b8181036020830152616f498184616863565b90509392505050565b6000616f5d82616608565b616f6781856162b4565b9350616f77818560208601614dac565b80840191505092915050565b6000616f8f8284616f52565b915081905092915050565b6000819050919050565b6000616fbf616fba616fb584616f9a565b614e62565b6155b6565b9050919050565b616fcf81616fa4565b82525050565b6000604082019050616fea6000830185616fc6565b616ff76020830184614d0d565b9392505050565b6000617009826155b6565b9150617014836155b6565b9250828201905060ff81111561702d5761702c61637b565b5b92915050565b60008160011c9050919050565b6000808291508390505b600185111561708a578086048111156170665761706561637b565b5b60018516156170755780820291505b808102905061708385617033565b945061704a565b94509492505050565b6000826170a3576001905061715f565b816170b1576000905061715f565b81600181146170c757600281146170d157617100565b600191505061715f565b60ff8411156170e3576170e261637b565b5b8360020a9150848211156170fa576170f961637b565b5b5061715f565b5060208310610133831016604e8410600b84101617156171355782820a9050838111156171305761712f61637b565b5b61715f565b6171428484846001617040565b925090508184048111156171595761715861637b565b5b81810290505b9392505050565b600061717182614d03565b915061717c836155b6565b92506171a97fffffffffffffffffffffffffffffffffffffffffffffffffffffffffffffffff8484617093565b905092915050565b600060a0820190506171c66000830188615483565b6171d36020830187615483565b6171e06040830186615483565b6171ed6060830185614d0d565b6171fa6080830184614eee565b9695505050505050565b60006080820190506172196000830187615483565b61722660208301866162fd565b6172336040830185615483565b6172406060830184615483565b9594505050505056fea26469706673582212205368d4e96cbe2104736454a8c67936f7058bc44c31e269e3b73d41ad51de587c64736f6c634300081b0033",
  "devdoc": {
    "errors": {
      "CheckpointUnorderedInsertion()": [
        {
          "details": "A value was attempted to be inserted on a past checkpoint."
        }
      ],
      "FailedCall()": [
        {
          "details": "A call to an address target failed. The target may have reverted."
        }
      ],
      "GovernorAlreadyCastVote(address)": [
        {
          "details": "The vote was already cast."
        }
      ],
      "GovernorAlreadyQueuedProposal(uint256)": [
        {
          "details": "The proposal has already been queued."
        }
      ],
      "GovernorDisabledDeposit()": [
        {
          "details": "Token deposits are disabled in this contract."
        }
      ],
      "GovernorInsufficientProposerVotes(address,uint256,uint256)": [
        {
          "details": "The `proposer` does not have the required votes to create a proposal."
        }
      ],
      "GovernorInvalidProposalLength(uint256,uint256,uint256)": [
        {
          "details": "Empty proposal or a mismatch between the parameters length for a proposal call."
        }
      ],
      "GovernorInvalidQuorumFraction(uint256,uint256)": [
        {
          "details": "The quorum set is not a valid fraction."
        }
      ],
      "GovernorInvalidSignature(address)": [
        {
          "details": "The provided signature is not valid for the expected `voter`. If the `voter` is a contract, the signature is not valid using {IERC1271-isValidSignature}."
        }
      ],
      "GovernorInvalidVoteParams()": [
        {
          "details": "The provided params buffer is not supported by the counting module."
        }
      ],
      "GovernorInvalidVoteType()": [
        {
          "details": "The vote type used is not valid for the corresponding counting module."
        }
      ],
      "GovernorInvalidVotingPeriod(uint256)": [
        {
          "details": "The voting period set is not a valid period."
        }
      ],
      "GovernorNonexistentProposal(uint256)": [
        {
          "details": "The `proposalId` doesn't exist."
        }
      ],
      "GovernorNotQueuedProposal(uint256)": [
        {
          "details": "The proposal hasn't been queued yet."
        }
      ],
      "GovernorOnlyExecutor(address)": [
        {
          "details": "The `account` is not the governance executor."
        }
      ],
      "GovernorOnlyProposer(address)": [
        {
          "details": "The `account` is not a proposer."
        }
      ],
      "GovernorQueueNotImplemented()": [
        {
          "details": "Queue operation is not implemented for this governor. Execute should be called directly."
        }
      ],
      "GovernorRestrictedProposer(address)": [
        {
          "details": "The `proposer` is not allowed to create a proposal."
        }
      ],
      "GovernorUnexpectedProposalState(uint256,uint8,bytes32)": [
        {
          "details": "The current state of a proposal is not the required for performing an operation. The `expectedStates` is a bitmap with the bits enabled for each ProposalState enum position counting from right to left. NOTE: If `expectedState` is `bytes32(0)`, the proposal is expected to not be in any state (i.e. not exist). This is the case when a proposal that is expected to be unset is already initiated (the proposal is duplicated). See {Governor-_encodeStateBitmap}."
        }
      ],
      "InvalidAccountNonce(address,uint256)": [
        {
          "details": "The nonce used for an `account` is not the expected current nonce."
        }
      ],
      "SafeCastOverflowedUintDowncast(uint8,uint256)": [
        {
          "details": "Value doesn't fit in an uint of `bits` size."
        }
      ]
    },
    "events": {
      "EIP712DomainChanged()": {
        "details": "MAY be emitted to signal that the domain could have changed."
      },
      "ProposalCanceled(uint256)": {
        "details": "Emitted when a proposal is canceled."
      },
      "ProposalCreated(uint256,address,address[],uint256[],string[],bytes[],uint256,uint256,string)": {
        "details": "Emitted when a proposal is created."
      },
      "ProposalExecuted(uint256)": {
        "details": "Emitted when a proposal is executed."
      },
      "ProposalQueued(uint256,uint256)": {
        "details": "Emitted when a proposal is queued."
      },
      "TimelockChange(address,address)": {
        "details": "Emitted when the timelock controller used for proposal execution is modified."
      },
      "VoteCast(address,uint256,uint8,uint256,string)": {
        "details": "Emitted when a vote is cast without params. Note: `support` values should be seen as buckets. Their interpretation depends on the voting module used."
      },
      "VoteCastWithParams(address,uint256,uint8,uint256,string,bytes)": {
        "details": "Emitted when a vote is cast with params. Note: `support` values should be seen as buckets. Their interpretation depends on the voting module used. `params` are additional encoded parameters. Their interpretation  also depends on the voting module used."
      }
    },
    "kind": "dev",
    "methods": {
      "CLOCK_MODE()": {
        "details": "Machine-readable description of the clock as specified in ERC-6372."
      },
      "COUNTING_MODE()": {
        "details": "See {IGovernor-COUNTING_MODE}."
      },
      "cancel(address[],uint256[],bytes[],bytes32)": {
        "details": "See {IGovernor-cancel}."
      },
      "castVote(uint256,uint8)": {
        "details": "See {IGovernor-castVote}."
      },
      "castVoteBySig(uint256,uint8,address,bytes)": {
        "details": "See {IGovernor-castVoteBySig}."
      },
      "castVoteWithReason(uint256,uint8,string)": {
        "details": "See {IGovernor-castVoteWithReason}."
      },
      "castVoteWithReasonAndParams(uint256,uint8,string,bytes)": {
        "details": "See {IGovernor-castVoteWithReasonAndParams}."
      },
      "castVoteWithReasonAndParamsBySig(uint256,uint8,address,string,bytes,bytes)": {
        "details": "See {IGovernor-castVoteWithReasonAndParamsBySig}."
      },
      "clock()": {
        "details": "Clock (as specified in ERC-6372) is set to match the token's clock. Fallback to block numbers if the token does not implement ERC-6372."
      },
      "eip712Domain()": {
        "details": "See {IERC-5267}."
      },
      "execute(address[],uint256[],bytes[],bytes32)": {
        "details": "See {IGovernor-execute}."
      },
      "getVotes(address,uint256)": {
        "details": "See {IGovernor-getVotes}."
      },
      "getVotesWithParams(address,uint256,bytes)": {
        "details": "See {IGovernor-getVotesWithParams}."
      },
      "hasVoted(uint256,address)": {
        "details": "See {IGovernor-hasVoted}."
      },
      "hashProposal(address[],uint256[],bytes[],bytes32)": {
        "details": "See {IGovernor-hashProposal}. The proposal id is produced by hashing the ABI encoded `targets` array, the `values` array, the `calldatas` array and the descriptionHash (bytes32 which itself is the keccak256 hash of the description string). This proposal id can be produced from the proposal data which is part of the {ProposalCreated} event. It can even be computed in advance, before the proposal is submitted. Note that the chainId and the governor address are not part of the proposal id computation. Consequently, the same proposal (with same operation and same description) will have the same id if submitted on multiple governors across multiple networks. This also means that in order to execute the same operation twice (on the same governor) the proposer will have to change the description in order to avoid proposal id conflicts."
      },
      "name()": {
        "details": "See {IGovernor-name}."
      },
      "nonces(address)": {
        "details": "Returns the next unused nonce for an address."
      },
      "onERC1155BatchReceived(address,address,uint256[],uint256[],bytes)": {
        "details": "See {IERC1155Receiver-onERC1155BatchReceived}. Receiving tokens is disabled if the governance executor is other than the governor itself (eg. when using with a timelock)."
      },
      "onERC1155Received(address,address,uint256,uint256,bytes)": {
        "details": "See {IERC1155Receiver-onERC1155Received}. Receiving tokens is disabled if the governance executor is other than the governor itself (eg. when using with a timelock)."
      },
      "onERC721Received(address,address,uint256,bytes)": {
        "details": "See {IERC721Receiver-onERC721Received}. Receiving tokens is disabled if the governance executor is other than the governor itself (eg. when using with a timelock)."
      },
      "proposalDeadline(uint256)": {
        "details": "See {IGovernor-proposalDeadline}."
      },
      "proposalEta(uint256)": {
        "details": "See {IGovernor-proposalEta}."
      },
      "proposalProposer(uint256)": {
        "details": "See {IGovernor-proposalProposer}."
      },
      "proposalSnapshot(uint256)": {
        "details": "See {IGovernor-proposalSnapshot}."
      },
      "proposalVotes(uint256)": {
        "details": "Accessor to the internal vote counts."
      },
      "propose(address[],uint256[],bytes[],string)": {
        "details": "See {IGovernor-propose}. This function has opt-in frontrunning protection, described in {_isValidDescriptionForProposer}."
      },
      "queue(address[],uint256[],bytes[],bytes32)": {
        "details": "See {IGovernor-queue}."
      },
      "quorumDenominator()": {
        "details": "Returns the quorum denominator. Defaults to 100, but may be overridden."
      },
      "quorumNumerator()": {
        "details": "Returns the current quorum numerator. See {quorumDenominator}."
      },
      "quorumNumerator(uint256)": {
        "details": "Returns the quorum numerator at a specific timepoint. See {quorumDenominator}."
      },
      "relay(address,uint256,bytes)": {
        "details": "Relays a transaction or function call to an arbitrary target. In cases where the governance executor is some contract other than the governor itself, like when using a timelock, this function can be invoked in a governance proposal to recover tokens or Ether that was sent to the governor contract by mistake. Note that if the executor is simply the governor itself, use of `relay` is redundant."
      },
      "setProposalThreshold(uint256)": {
        "details": "Update the proposal threshold. This operation can only be performed through a governance proposal. Emits a {ProposalThresholdSet} event."
      },
      "setVotingDelay(uint48)": {
        "details": "Update the voting delay. This operation can only be performed through a governance proposal. Emits a {VotingDelaySet} event."
      },
      "setVotingPeriod(uint32)": {
        "details": "Update the voting period. This operation can only be performed through a governance proposal. Emits a {VotingPeriodSet} event."
      },
      "supportsInterface(bytes4)": {
        "details": "See {IERC165-supportsInterface}."
      },
      "timelock()": {
        "details": "Public accessor to check the address of the timelock"
      },
      "token()": {
        "details": "The token that voting power is sourced from."
      },
      "updateQuorumNumerator(uint256)": {
        "details": "Changes the quorum numerator. Emits a {QuorumNumeratorUpdated} event. Requirements: - Must be called through a governance proposal. - New numerator must be smaller or equal to the denominator."
      },
      "updateTimelock(address)": {
        "details": "Public endpoint to update the underlying timelock instance. Restricted to the timelock itself, so updates must be proposed, scheduled, and executed through governance proposals. CAUTION: It is not recommended to change the timelock while there are other queued governance proposals."
      },
      "version()": {
        "details": "See {IGovernor-version}."
      }
    },
    "version": 1
  },
  "userdoc": {
    "kind": "user",
    "methods": {},
    "version": 1
  },
  "storageLayout": {
    "storage": [
      {
        "astId": 9689,
        "contract": "contracts/SDUSDAO.sol:SDUSDAO",
        "label": "_nameFallback",
        "offset": 0,
        "slot": "0",
        "type": "t_string_storage"
      },
      {
        "astId": 9691,
        "contract": "contracts/SDUSDAO.sol:SDUSDAO",
        "label": "_versionFallback",
        "offset": 0,
        "slot": "1",
        "type": "t_string_storage"
      },
      {
        "astId": 8468,
        "contract": "contracts/SDUSDAO.sol:SDUSDAO",
        "label": "_nonces",
        "offset": 0,
        "slot": "2",
        "type": "t_mapping(t_address,t_uint256)"
      },
      {
        "astId": 662,
        "contract": "contracts/SDUSDAO.sol:SDUSDAO",
        "label": "_name",
        "offset": 0,
        "slot": "3",
        "type": "t_string_storage"
      },
      {
        "astId": 667,
        "contract": "contracts/SDUSDAO.sol:SDUSDAO",
        "label": "_proposals",
        "offset": 0,
        "slot": "4",
        "type": "t_mapping(t_uint256,t_struct(ProposalCore)640_storage)"
      },
      {
        "astId": 670,
        "contract": "contracts/SDUSDAO.sol:SDUSDAO",
        "label": "_governanceCall",
        "offset": 0,
        "slot": "5",
        "type": "t_struct(Bytes32Deque)15208_storage"
      },
      {
        "astId": 4108,
        "contract": "contracts/SDUSDAO.sol:SDUSDAO",
        "label": "_proposalThreshold",
        "offset": 0,
        "slot": "7",
        "type": "t_uint256"
      },
      {
        "astId": 4110,
        "contract": "contracts/SDUSDAO.sol:SDUSDAO",
        "label": "_votingDelay",
        "offset": 0,
        "slot": "8",
        "type": "t_uint48"
      },
      {
        "astId": 4112,
        "contract": "contracts/SDUSDAO.sol:SDUSDAO",
        "label": "_votingPeriod",
        "offset": 6,
        "slot": "8",
        "type": "t_uint32"
      },
      {
        "astId": 3895,
        "contract": "contracts/SDUSDAO.sol:SDUSDAO",
        "label": "_proposalVotes",
        "offset": 0,
        "slot": "9",
        "type": "t_mapping(t_uint256,t_struct(ProposalVote)3890_storage)"
      },
      {
        "astId": 4759,
        "contract": "contracts/SDUSDAO.sol:SDUSDAO",
        "label": "_quorumNumeratorHistory",
        "offset": 0,
        "slot": "10",
        "type": "t_struct(Trace208)14149_storage"
      },
      {
        "astId": 4297,
        "contract": "contracts/SDUSDAO.sol:SDUSDAO",
        "label": "_timelock",
        "offset": 0,
        "slot": "11",
        "type": "t_contract(TimelockController)3867"
      },
      {
        "astId": 4301,
        "contract": "contracts/SDUSDAO.sol:SDUSDAO",
        "label": "_timelockIds",
        "offset": 0,
        "slot": "12",
        "type": "t_mapping(t_uint256,t_bytes32)"
      },
      {
        "astId": 16747,
        "contract": "contracts/SDUSDAO.sol:SDUSDAO",
        "label": "mintingThreshold",
        "offset": 0,
        "slot": "13",
        "type": "t_uint256"
      },
      {
        "astId": 16750,
        "contract": "contracts/SDUSDAO.sol:SDUSDAO",
        "label": "degredationThreshold",
        "offset": 0,
        "slot": "14",
        "type": "t_uint256"
      },
      {
        "astId": 16753,
        "contract": "contracts/SDUSDAO.sol:SDUSDAO",
        "label": "sdusd",
        "offset": 0,
        "slot": "15",
        "type": "t_contract(SDUSD)16722"
      },
      {
        "astId": 16756,
        "contract": "contracts/SDUSDAO.sol:SDUSDAO",
        "label": "votingNFT",
        "offset": 0,
        "slot": "16",
        "type": "t_contract(SDNFT)16019"
      }
    ],
    "types": {
      "t_address": {
        "encoding": "inplace",
        "label": "address",
        "numberOfBytes": "20"
      },
      "t_array(t_struct(Checkpoint208)14154_storage)dyn_storage": {
        "base": "t_struct(Checkpoint208)14154_storage",
        "encoding": "dynamic_array",
        "label": "struct Checkpoints.Checkpoint208[]",
        "numberOfBytes": "32"
      },
      "t_bool": {
        "encoding": "inplace",
        "label": "bool",
        "numberOfBytes": "1"
      },
      "t_bytes32": {
        "encoding": "inplace",
        "label": "bytes32",
        "numberOfBytes": "32"
      },
      "t_contract(SDNFT)16019": {
        "encoding": "inplace",
        "label": "contract SDNFT",
        "numberOfBytes": "20"
      },
      "t_contract(SDUSD)16722": {
        "encoding": "inplace",
        "label": "contract SDUSD",
        "numberOfBytes": "20"
      },
      "t_contract(TimelockController)3867": {
        "encoding": "inplace",
        "label": "contract TimelockController",
        "numberOfBytes": "20"
      },
      "t_mapping(t_address,t_bool)": {
        "encoding": "mapping",
        "key": "t_address",
        "label": "mapping(address => bool)",
        "numberOfBytes": "32",
        "value": "t_bool"
      },
      "t_mapping(t_address,t_uint256)": {
        "encoding": "mapping",
        "key": "t_address",
        "label": "mapping(address => uint256)",
        "numberOfBytes": "32",
        "value": "t_uint256"
      },
      "t_mapping(t_uint128,t_bytes32)": {
        "encoding": "mapping",
        "key": "t_uint128",
        "label": "mapping(uint128 => bytes32)",
        "numberOfBytes": "32",
        "value": "t_bytes32"
      },
      "t_mapping(t_uint256,t_bytes32)": {
        "encoding": "mapping",
        "key": "t_uint256",
        "label": "mapping(uint256 => bytes32)",
        "numberOfBytes": "32",
        "value": "t_bytes32"
      },
      "t_mapping(t_uint256,t_struct(ProposalCore)640_storage)": {
        "encoding": "mapping",
        "key": "t_uint256",
        "label": "mapping(uint256 => struct Governor.ProposalCore)",
        "numberOfBytes": "32",
        "value": "t_struct(ProposalCore)640_storage"
      },
      "t_mapping(t_uint256,t_struct(ProposalVote)3890_storage)": {
        "encoding": "mapping",
        "key": "t_uint256",
        "label": "mapping(uint256 => struct GovernorCountingSimple.ProposalVote)",
        "numberOfBytes": "32",
        "value": "t_struct(ProposalVote)3890_storage"
      },
      "t_string_storage": {
        "encoding": "bytes",
        "label": "string",
        "numberOfBytes": "32"
      },
      "t_struct(Bytes32Deque)15208_storage": {
        "encoding": "inplace",
        "label": "struct DoubleEndedQueue.Bytes32Deque",
        "members": [
          {
            "astId": 15201,
            "contract": "contracts/SDUSDAO.sol:SDUSDAO",
            "label": "_begin",
            "offset": 0,
            "slot": "0",
            "type": "t_uint128"
          },
          {
            "astId": 15203,
            "contract": "contracts/SDUSDAO.sol:SDUSDAO",
            "label": "_end",
            "offset": 16,
            "slot": "0",
            "type": "t_uint128"
          },
          {
            "astId": 15207,
            "contract": "contracts/SDUSDAO.sol:SDUSDAO",
            "label": "_data",
            "offset": 0,
            "slot": "1",
            "type": "t_mapping(t_uint128,t_bytes32)"
          }
        ],
        "numberOfBytes": "64"
      },
      "t_struct(Checkpoint208)14154_storage": {
        "encoding": "inplace",
        "label": "struct Checkpoints.Checkpoint208",
        "members": [
          {
            "astId": 14151,
            "contract": "contracts/SDUSDAO.sol:SDUSDAO",
            "label": "_key",
            "offset": 0,
            "slot": "0",
            "type": "t_uint48"
          },
          {
            "astId": 14153,
            "contract": "contracts/SDUSDAO.sol:SDUSDAO",
            "label": "_value",
            "offset": 6,
            "slot": "0",
            "type": "t_uint208"
          }
        ],
        "numberOfBytes": "32"
      },
      "t_struct(ProposalCore)640_storage": {
        "encoding": "inplace",
        "label": "struct Governor.ProposalCore",
        "members": [
          {
            "astId": 629,
            "contract": "contracts/SDUSDAO.sol:SDUSDAO",
            "label": "proposer",
            "offset": 0,
            "slot": "0",
            "type": "t_address"
          },
          {
            "astId": 631,
            "contract": "contracts/SDUSDAO.sol:SDUSDAO",
            "label": "voteStart",
            "offset": 20,
            "slot": "0",
            "type": "t_uint48"
          },
          {
            "astId": 633,
            "contract": "contracts/SDUSDAO.sol:SDUSDAO",
            "label": "voteDuration",
            "offset": 26,
            "slot": "0",
            "type": "t_uint32"
          },
          {
            "astId": 635,
            "contract": "contracts/SDUSDAO.sol:SDUSDAO",
            "label": "executed",
            "offset": 30,
            "slot": "0",
            "type": "t_bool"
          },
          {
            "astId": 637,
            "contract": "contracts/SDUSDAO.sol:SDUSDAO",
            "label": "canceled",
            "offset": 31,
            "slot": "0",
            "type": "t_bool"
          },
          {
            "astId": 639,
            "contract": "contracts/SDUSDAO.sol:SDUSDAO",
            "label": "etaSeconds",
            "offset": 0,
            "slot": "1",
            "type": "t_uint48"
          }
        ],
        "numberOfBytes": "64"
      },
      "t_struct(ProposalVote)3890_storage": {
        "encoding": "inplace",
        "label": "struct GovernorCountingSimple.ProposalVote",
        "members": [
          {
            "astId": 3881,
            "contract": "contracts/SDUSDAO.sol:SDUSDAO",
            "label": "againstVotes",
            "offset": 0,
            "slot": "0",
            "type": "t_uint256"
          },
          {
            "astId": 3883,
            "contract": "contracts/SDUSDAO.sol:SDUSDAO",
            "label": "forVotes",
            "offset": 0,
            "slot": "1",
            "type": "t_uint256"
          },
          {
            "astId": 3885,
            "contract": "contracts/SDUSDAO.sol:SDUSDAO",
            "label": "abstainVotes",
            "offset": 0,
            "slot": "2",
            "type": "t_uint256"
          },
          {
            "astId": 3889,
            "contract": "contracts/SDUSDAO.sol:SDUSDAO",
            "label": "hasVoted",
            "offset": 0,
            "slot": "3",
            "type": "t_mapping(t_address,t_bool)"
          }
        ],
        "numberOfBytes": "128"
      },
      "t_struct(Trace208)14149_storage": {
        "encoding": "inplace",
        "label": "struct Checkpoints.Trace208",
        "members": [
          {
            "astId": 14148,
            "contract": "contracts/SDUSDAO.sol:SDUSDAO",
            "label": "_checkpoints",
            "offset": 0,
            "slot": "0",
            "type": "t_array(t_struct(Checkpoint208)14154_storage)dyn_storage"
          }
        ],
        "numberOfBytes": "32"
      },
      "t_uint128": {
        "encoding": "inplace",
        "label": "uint128",
        "numberOfBytes": "16"
      },
      "t_uint208": {
        "encoding": "inplace",
        "label": "uint208",
        "numberOfBytes": "26"
      },
      "t_uint256": {
        "encoding": "inplace",
        "label": "uint256",
        "numberOfBytes": "32"
      },
      "t_uint32": {
        "encoding": "inplace",
        "label": "uint32",
        "numberOfBytes": "4"
      },
      "t_uint48": {
        "encoding": "inplace",
        "label": "uint48",
        "numberOfBytes": "6"
      }
    }
  }
}