{
  "address": "0x9fE46736679d2D9a65F0992F2272dE9f3c7fa6e0",
  "abi": [
    {
      "inputs": [
        {
          "internalType": "address",
          "name": "_ethPriceFeed",
          "type": "address"
        },
        {
          "internalType": "uint256",
          "name": "_ethCollateralRatio",
          "type": "uint256"
        },
        {
          "internalType": "uint256",
          "name": "_degredationThreshold",
          "type": "uint256"
        },
        {
          "internalType": "string",
          "name": "_sdusdName",
          "type": "string"
        },
        {
          "internalType": "string",
          "name": "_sdusdSymbol",
          "type": "string"
        }
      ],
      "stateMutability": "nonpayable",
      "type": "constructor"
    },
    {
      "inputs": [],
      "name": "CheckpointUnorderedInsertion",
      "type": "error"
    },
    {
      "inputs": [],
      "name": "ECDSAInvalidSignature",
      "type": "error"
    },
    {
      "inputs": [
        {
          "internalType": "uint256",
          "name": "length",
          "type": "uint256"
        }
      ],
      "name": "ECDSAInvalidSignatureLength",
      "type": "error"
    },
    {
      "inputs": [
        {
          "internalType": "bytes32",
          "name": "s",
          "type": "bytes32"
        }
      ],
      "name": "ECDSAInvalidSignatureS",
      "type": "error"
    },
    {
      "inputs": [
        {
          "internalType": "uint256",
          "name": "increasedSupply",
          "type": "uint256"
        },
        {
          "internalType": "uint256",
          "name": "cap",
          "type": "uint256"
        }
      ],
      "name": "ERC20ExceededSafeSupply",
      "type": "error"
    },
    {
      "inputs": [
        {
          "internalType": "address",
          "name": "spender",
          "type": "address"
        },
        {
          "internalType": "uint256",
          "name": "allowance",
          "type": "uint256"
        },
        {
          "internalType": "uint256",
          "name": "needed",
          "type": "uint256"
        }
      ],
      "name": "ERC20InsufficientAllowance",
      "type": "error"
    },
    {
      "inputs": [
        {
          "internalType": "address",
          "name": "sender",
          "type": "address"
        },
        {
          "internalType": "uint256",
          "name": "balance",
          "type": "uint256"
        },
        {
          "internalType": "uint256",
          "name": "needed",
          "type": "uint256"
        }
      ],
      "name": "ERC20InsufficientBalance",
      "type": "error"
    },
    {
      "inputs": [
        {
          "internalType": "address",
          "name": "approver",
          "type": "address"
        }
      ],
      "name": "ERC20InvalidApprover",
      "type": "error"
    },
    {
      "inputs": [
        {
          "internalType": "address",
          "name": "receiver",
          "type": "address"
        }
      ],
      "name": "ERC20InvalidReceiver",
      "type": "error"
    },
    {
      "inputs": [
        {
          "internalType": "address",
          "name": "sender",
          "type": "address"
        }
      ],
      "name": "ERC20InvalidSender",
      "type": "error"
    },
    {
      "inputs": [
        {
          "internalType": "address",
          "name": "spender",
          "type": "address"
        }
      ],
      "name": "ERC20InvalidSpender",
      "type": "error"
    },
    {
      "inputs": [
        {
          "internalType": "uint256",
          "name": "deadline",
          "type": "uint256"
        }
      ],
      "name": "ERC2612ExpiredSignature",
      "type": "error"
    },
    {
      "inputs": [
        {
          "internalType": "address",
          "name": "signer",
          "type": "address"
        },
        {
          "internalType": "address",
          "name": "owner",
          "type": "address"
        }
      ],
      "name": "ERC2612InvalidSigner",
      "type": "error"
    },
    {
      "inputs": [
        {
          "internalType": "uint256",
          "name": "timepoint",
          "type": "uint256"
        },
        {
          "internalType": "uint48",
          "name": "clock",
          "type": "uint48"
        }
      ],
      "name": "ERC5805FutureLookup",
      "type": "error"
    },
    {
      "inputs": [],
      "name": "ERC6372InconsistentClock",
      "type": "error"
    },
    {
      "inputs": [
        {
          "internalType": "address",
          "name": "account",
          "type": "address"
        },
        {
          "internalType": "uint256",
          "name": "currentNonce",
          "type": "uint256"
        }
      ],
      "name": "InvalidAccountNonce",
      "type": "error"
    },
    {
      "inputs": [],
      "name": "InvalidShortString",
      "type": "error"
    },
    {
      "inputs": [
        {
          "internalType": "address",
          "name": "owner",
          "type": "address"
        }
      ],
      "name": "OwnableInvalidOwner",
      "type": "error"
    },
    {
      "inputs": [
        {
          "internalType": "address",
          "name": "account",
          "type": "address"
        }
      ],
      "name": "OwnableUnauthorizedAccount",
      "type": "error"
    },
    {
      "inputs": [],
      "name": "ReentrancyGuardReentrantCall",
      "type": "error"
    },
    {
      "inputs": [],
      "name": "SDUSD__ExceedsMaxAmountMintable",
      "type": "error"
    },
    {
      "inputs": [],
      "name": "SDUSD__InvalidEthPrice",
      "type": "error"
    },
    {
      "inputs": [],
      "name": "SDUSD__NoSolutionForR",
      "type": "error"
    },
    {
      "inputs": [],
      "name": "SDUSD__OutOfRange",
      "type": "error"
    },
    {
      "inputs": [],
      "name": "SDUSD__RedemptionRateCalculationFailed",
      "type": "error"
    },
    {
      "inputs": [],
      "name": "SDUSD__WithdrawalAmountLargerThanSdusdSupply",
      "type": "error"
    },
    {
      "inputs": [],
      "name": "SDUSD__WithdrawalAmountLargerThanUserBalance",
      "type": "error"
    },
    {
      "inputs": [
        {
          "internalType": "uint8",
          "name": "bits",
          "type": "uint8"
        },
        {
          "internalType": "uint256",
          "name": "value",
          "type": "uint256"
        }
      ],
      "name": "SafeCastOverflowedUintDowncast",
      "type": "error"
    },
    {
      "inputs": [
        {
          "internalType": "string",
          "name": "str",
          "type": "string"
        }
      ],
      "name": "StringTooLong",
      "type": "error"
    },
    {
      "inputs": [
        {
          "internalType": "uint256",
          "name": "expiry",
          "type": "uint256"
        }
      ],
      "name": "VotesExpiredSignature",
      "type": "error"
    },
    {
      "anonymous": false,
      "inputs": [
        {
          "indexed": true,
          "internalType": "address",
          "name": "owner",
          "type": "address"
        },
        {
          "indexed": true,
          "internalType": "address",
          "name": "spender",
          "type": "address"
        },
        {
          "indexed": false,
          "internalType": "uint256",
          "name": "value",
          "type": "uint256"
        }
      ],
      "name": "Approval",
      "type": "event"
    },
    {
      "anonymous": false,
      "inputs": [
        {
          "indexed": false,
          "internalType": "uint256",
          "name": "newValue",
          "type": "uint256"
        }
      ],
      "name": "DegredationThresholdChanged",
      "type": "event"
    },
    {
      "anonymous": false,
      "inputs": [
        {
          "indexed": true,
          "internalType": "address",
          "name": "delegator",
          "type": "address"
        },
        {
          "indexed": true,
          "internalType": "address",
          "name": "fromDelegate",
          "type": "address"
        },
        {
          "indexed": true,
          "internalType": "address",
          "name": "toDelegate",
          "type": "address"
        }
      ],
      "name": "DelegateChanged",
      "type": "event"
    },
    {
      "anonymous": false,
      "inputs": [
        {
          "indexed": true,
          "internalType": "address",
          "name": "delegate",
          "type": "address"
        },
        {
          "indexed": false,
          "internalType": "uint256",
          "name": "previousVotes",
          "type": "uint256"
        },
        {
          "indexed": false,
          "internalType": "uint256",
          "name": "newVotes",
          "type": "uint256"
        }
      ],
      "name": "DelegateVotesChanged",
      "type": "event"
    },
    {
      "anonymous": false,
      "inputs": [],
      "name": "EIP712DomainChanged",
      "type": "event"
    },
    {
      "anonymous": false,
      "inputs": [
        {
          "indexed": false,
          "internalType": "uint256",
          "name": "newValue",
          "type": "uint256"
        }
      ],
      "name": "MintingThresholdChanged",
      "type": "event"
    },
    {
      "anonymous": false,
      "inputs": [
        {
          "indexed": true,
          "internalType": "address",
          "name": "previousOwner",
          "type": "address"
        },
        {
          "indexed": true,
          "internalType": "address",
          "name": "newOwner",
          "type": "address"
        }
      ],
      "name": "OwnershipTransferred",
      "type": "event"
    },
    {
      "anonymous": false,
      "inputs": [
        {
          "indexed": true,
          "internalType": "address",
          "name": "from",
          "type": "address"
        },
        {
          "indexed": true,
          "internalType": "address",
          "name": "to",
          "type": "address"
        },
        {
          "indexed": false,
          "internalType": "uint256",
          "name": "value",
          "type": "uint256"
        }
      ],
      "name": "Transfer",
      "type": "event"
    },
    {
      "anonymous": false,
      "inputs": [
        {
          "indexed": true,
          "internalType": "address",
          "name": "_minter",
          "type": "address"
        },
        {
          "indexed": true,
          "internalType": "uint256",
          "name": "_amount",
          "type": "uint256"
        }
      ],
      "name": "sdusdMinted",
      "type": "event"
    },
    {
      "stateMutability": "nonpayable",
      "type": "fallback"
    },
    {
      "inputs": [],
      "name": "CLOCK_MODE",
      "outputs": [
        {
          "internalType": "string",
          "name": "",
          "type": "string"
        }
      ],
      "stateMutability": "view",
      "type": "function"
    },
    {
      "inputs": [],
      "name": "DOMAIN_SEPARATOR",
      "outputs": [
        {
          "internalType": "bytes32",
          "name": "",
          "type": "bytes32"
        }
      ],
      "stateMutability": "view",
      "type": "function"
    },
    {
      "inputs": [
        {
          "internalType": "address",
          "name": "owner",
          "type": "address"
        },
        {
          "internalType": "address",
          "name": "spender",
          "type": "address"
        }
      ],
      "name": "allowance",
      "outputs": [
        {
          "internalType": "uint256",
          "name": "",
          "type": "uint256"
        }
      ],
      "stateMutability": "view",
      "type": "function"
    },
    {
      "inputs": [
        {
          "internalType": "address",
          "name": "spender",
          "type": "address"
        },
        {
          "internalType": "uint256",
          "name": "value",
          "type": "uint256"
        }
      ],
      "name": "approve",
      "outputs": [
        {
          "internalType": "bool",
          "name": "",
          "type": "bool"
        }
      ],
      "stateMutability": "nonpayable",
      "type": "function"
    },
    {
      "inputs": [
        {
          "internalType": "address",
          "name": "account",
          "type": "address"
        }
      ],
      "name": "balanceOf",
      "outputs": [
        {
          "internalType": "uint256",
          "name": "",
          "type": "uint256"
        }
      ],
      "stateMutability": "view",
      "type": "function"
    },
    {
      "inputs": [
        {
          "internalType": "uint256",
          "name": "_adjustedBalance",
          "type": "uint256"
        }
      ],
      "name": "calculateMaxMintable",
      "outputs": [
        {
          "internalType": "uint256",
          "name": "",
          "type": "uint256"
        },
        {
          "internalType": "uint256",
          "name": "",
          "type": "uint256"
        }
      ],
      "stateMutability": "view",
      "type": "function"
    },
    {
      "inputs": [
        {
          "internalType": "uint256",
          "name": "_amount",
          "type": "uint256"
        }
      ],
      "name": "calculateRedemption",
      "outputs": [
        {
          "internalType": "int256",
          "name": "",
          "type": "int256"
        }
      ],
      "stateMutability": "view",
      "type": "function"
    },
    {
      "inputs": [
        {
          "internalType": "uint256",
          "name": "newValue",
          "type": "uint256"
        }
      ],
      "name": "changeDegredationThreshold",
      "outputs": [],
      "stateMutability": "nonpayable",
      "type": "function"
    },
    {
      "inputs": [
        {
          "internalType": "uint256",
          "name": "newValue",
          "type": "uint256"
        }
      ],
      "name": "changeMintingThreshold",
      "outputs": [],
      "stateMutability": "nonpayable",
      "type": "function"
    },
    {
      "inputs": [
        {
          "internalType": "address",
          "name": "account",
          "type": "address"
        },
        {
          "internalType": "uint32",
          "name": "pos",
          "type": "uint32"
        }
      ],
      "name": "checkpoints",
      "outputs": [
        {
          "components": [
            {
              "internalType": "uint48",
              "name": "_key",
              "type": "uint48"
            },
            {
              "internalType": "uint208",
              "name": "_value",
              "type": "uint208"
            }
          ],
          "internalType": "struct Checkpoints.Checkpoint208",
          "name": "",
          "type": "tuple"
        }
      ],
      "stateMutability": "view",
      "type": "function"
    },
    {
      "inputs": [],
      "name": "clock",
      "outputs": [
        {
          "internalType": "uint48",
          "name": "",
          "type": "uint48"
        }
      ],
      "stateMutability": "view",
      "type": "function"
    },
    {
      "inputs": [],
      "name": "decimals",
      "outputs": [
        {
          "internalType": "uint8",
          "name": "",
          "type": "uint8"
        }
      ],
      "stateMutability": "view",
      "type": "function"
    },
    {
      "inputs": [
        {
          "internalType": "address",
          "name": "delegatee",
          "type": "address"
        }
      ],
      "name": "delegate",
      "outputs": [],
      "stateMutability": "nonpayable",
      "type": "function"
    },
    {
      "inputs": [
        {
          "internalType": "address",
          "name": "delegatee",
          "type": "address"
        },
        {
          "internalType": "uint256",
          "name": "nonce",
          "type": "uint256"
        },
        {
          "internalType": "uint256",
          "name": "expiry",
          "type": "uint256"
        },
        {
          "internalType": "uint8",
          "name": "v",
          "type": "uint8"
        },
        {
          "internalType": "bytes32",
          "name": "r",
          "type": "bytes32"
        },
        {
          "internalType": "bytes32",
          "name": "s",
          "type": "bytes32"
        }
      ],
      "name": "delegateBySig",
      "outputs": [],
      "stateMutability": "nonpayable",
      "type": "function"
    },
    {
      "inputs": [
        {
          "internalType": "address",
          "name": "account",
          "type": "address"
        }
      ],
      "name": "delegates",
      "outputs": [
        {
          "internalType": "address",
          "name": "",
          "type": "address"
        }
      ],
      "stateMutability": "view",
      "type": "function"
    },
    {
      "inputs": [],
      "name": "eip712Domain",
      "outputs": [
        {
          "internalType": "bytes1",
          "name": "fields",
          "type": "bytes1"
        },
        {
          "internalType": "string",
          "name": "name",
          "type": "string"
        },
        {
          "internalType": "string",
          "name": "version",
          "type": "string"
        },
        {
          "internalType": "uint256",
          "name": "chainId",
          "type": "uint256"
        },
        {
          "internalType": "address",
          "name": "verifyingContract",
          "type": "address"
        },
        {
          "internalType": "bytes32",
          "name": "salt",
          "type": "bytes32"
        },
        {
          "internalType": "uint256[]",
          "name": "extensions",
          "type": "uint256[]"
        }
      ],
      "stateMutability": "view",
      "type": "function"
    },
    {
      "inputs": [],
      "name": "getDegredationThreshold",
      "outputs": [
        {
          "internalType": "uint256",
          "name": "",
          "type": "uint256"
        }
      ],
      "stateMutability": "view",
      "type": "function"
    },
    {
      "inputs": [],
      "name": "getEthCollateralRatio",
      "outputs": [
        {
          "internalType": "uint256",
          "name": "",
          "type": "uint256"
        }
      ],
      "stateMutability": "view",
      "type": "function"
    },
    {
      "inputs": [
        {
          "internalType": "uint256",
          "name": "timepoint",
          "type": "uint256"
        }
      ],
      "name": "getPastTotalSupply",
      "outputs": [
        {
          "internalType": "uint256",
          "name": "",
          "type": "uint256"
        }
      ],
      "stateMutability": "view",
      "type": "function"
    },
    {
      "inputs": [
        {
          "internalType": "address",
          "name": "account",
          "type": "address"
        },
        {
          "internalType": "uint256",
          "name": "timepoint",
          "type": "uint256"
        }
      ],
      "name": "getPastVotes",
      "outputs": [
        {
          "internalType": "uint256",
          "name": "",
          "type": "uint256"
        }
      ],
      "stateMutability": "view",
      "type": "function"
    },
    {
      "inputs": [],
      "name": "getPriceFeed",
      "outputs": [
        {
          "internalType": "contract AggregatorV3Interface",
          "name": "",
          "type": "address"
        }
      ],
      "stateMutability": "view",
      "type": "function"
    },
    {
      "inputs": [
        {
          "internalType": "address",
          "name": "account",
          "type": "address"
        }
      ],
      "name": "getVotes",
      "outputs": [
        {
          "internalType": "uint256",
          "name": "",
          "type": "uint256"
        }
      ],
      "stateMutability": "view",
      "type": "function"
    },
    {
      "inputs": [],
      "name": "mintSDUSD",
      "outputs": [],
      "stateMutability": "payable",
      "type": "function"
    },
    {
      "inputs": [],
      "name": "name",
      "outputs": [
        {
          "internalType": "string",
          "name": "",
          "type": "string"
        }
      ],
      "stateMutability": "view",
      "type": "function"
    },
    {
      "inputs": [
        {
          "internalType": "address",
          "name": "owner",
          "type": "address"
        }
      ],
      "name": "nonces",
      "outputs": [
        {
          "internalType": "uint256",
          "name": "",
          "type": "uint256"
        }
      ],
      "stateMutability": "view",
      "type": "function"
    },
    {
      "inputs": [
        {
          "internalType": "address",
          "name": "account",
          "type": "address"
        }
      ],
      "name": "numCheckpoints",
      "outputs": [
        {
          "internalType": "uint32",
          "name": "",
          "type": "uint32"
        }
      ],
      "stateMutability": "view",
      "type": "function"
    },
    {
      "inputs": [],
      "name": "owner",
      "outputs": [
        {
          "internalType": "address",
          "name": "",
          "type": "address"
        }
      ],
      "stateMutability": "view",
      "type": "function"
    },
    {
      "inputs": [
        {
          "internalType": "address",
          "name": "owner",
          "type": "address"
        },
        {
          "internalType": "address",
          "name": "spender",
          "type": "address"
        },
        {
          "internalType": "uint256",
          "name": "value",
          "type": "uint256"
        },
        {
          "internalType": "uint256",
          "name": "deadline",
          "type": "uint256"
        },
        {
          "internalType": "uint8",
          "name": "v",
          "type": "uint8"
        },
        {
          "internalType": "bytes32",
          "name": "r",
          "type": "bytes32"
        },
        {
          "internalType": "bytes32",
          "name": "s",
          "type": "bytes32"
        }
      ],
      "name": "permit",
      "outputs": [],
      "stateMutability": "nonpayable",
      "type": "function"
    },
    {
      "inputs": [
        {
          "internalType": "uint256",
          "name": "_amount",
          "type": "uint256"
        }
      ],
      "name": "redeemSdusdForEth",
      "outputs": [],
      "stateMutability": "nonpayable",
      "type": "function"
    },
    {
      "inputs": [],
      "name": "renounceOwnership",
      "outputs": [],
      "stateMutability": "nonpayable",
      "type": "function"
    },
    {
      "inputs": [],
      "name": "symbol",
      "outputs": [
        {
          "internalType": "string",
          "name": "",
          "type": "string"
        }
      ],
      "stateMutability": "view",
      "type": "function"
    },
    {
      "inputs": [],
      "name": "totalSupply",
      "outputs": [
        {
          "internalType": "uint256",
          "name": "",
          "type": "uint256"
        }
      ],
      "stateMutability": "view",
      "type": "function"
    },
    {
      "inputs": [
        {
          "internalType": "address",
          "name": "to",
          "type": "address"
        },
        {
          "internalType": "uint256",
          "name": "value",
          "type": "uint256"
        }
      ],
      "name": "transfer",
      "outputs": [
        {
          "internalType": "bool",
          "name": "",
          "type": "bool"
        }
      ],
      "stateMutability": "nonpayable",
      "type": "function"
    },
    {
      "inputs": [
        {
          "internalType": "address",
          "name": "from",
          "type": "address"
        },
        {
          "internalType": "address",
          "name": "to",
          "type": "address"
        },
        {
          "internalType": "uint256",
          "name": "value",
          "type": "uint256"
        }
      ],
      "name": "transferFrom",
      "outputs": [
        {
          "internalType": "bool",
          "name": "",
          "type": "bool"
        }
      ],
      "stateMutability": "nonpayable",
      "type": "function"
    },
    {
      "inputs": [
        {
          "internalType": "address",
          "name": "newOwner",
          "type": "address"
        }
      ],
      "name": "transferOwnership",
      "outputs": [],
      "stateMutability": "nonpayable",
      "type": "function"
    },
    {
      "stateMutability": "payable",
      "type": "receive"
    }
  ],
  "transactionHash": "0xca687ba2f11f4e1d3934ee06fa6535e33e1bb19e566fae6a0b52f838040f814f",
  "args": [
    "0x5FbDB2315678afecb367f032d93F642f64180aa3",
    400,
    150,
    "Simple Decentralized SDUSD",
    "SDUSD"
  ],
  "numDeployments": 1,
  "solcInputHash": "a80ad4eb432ed9d65aeb06742eb26993",
  "bytecode": "0x61018060405234801561001157600080fd5b506040516156df3803806156df833981810160405281019061003391906105fe565b3382806040518060400160405280600181526020017f31000000000000000000000000000000000000000000000000000000000000008152508585816003908161007d91906108c8565b50806004908161008d91906108c8565b5050506100a460058361021260201b90919060201c565b61012081815250506100c060068261021260201b90919060201c565b6101408181525050818051906020012060e08181525050808051906020012061010081815250504660a081815250506100fd61026260201b60201c565b608081815250503073ffffffffffffffffffffffffffffffffffffffff1660c08173ffffffffffffffffffffffffffffffffffffffff16815250505050506001600b81905550600073ffffffffffffffffffffffffffffffffffffffff168173ffffffffffffffffffffffffffffffffffffffff16036101b55760006040517f1e4fbdf70000000000000000000000000000000000000000000000000000000081526004016101ac91906109a9565b60405180910390fd5b6101c4816102bd60201b60201c565b508473ffffffffffffffffffffffffffffffffffffffff166101608173ffffffffffffffffffffffffffffffffffffffff168152505082600e8190555083600d819055505050505050610b42565b60006020835110156102345761022d8361038360201b60201c565b905061025c565b82610244836103eb60201b60201c565b600001908161025391906108c8565b5060ff60001b90505b92915050565b60007f8b73c3c69bb8fe3d512ecc4cf759cc79239f7b179b0ffacaa9a75d522b39400f60e0516101005146306040516020016102a29594939291906109ec565b60405160208183030381529060405280519060200120905090565b6000600c60009054906101000a900473ffffffffffffffffffffffffffffffffffffffff16905081600c60006101000a81548173ffffffffffffffffffffffffffffffffffffffff021916908373ffffffffffffffffffffffffffffffffffffffff1602179055508173ffffffffffffffffffffffffffffffffffffffff168173ffffffffffffffffffffffffffffffffffffffff167f8be0079c531659141344cd1fd0a4f28419497f9722a3daafe3b4186f6b6457e060405160405180910390a35050565b600080829050601f815111156103d057826040517f305a27a90000000000000000000000000000000000000000000000000000000081526004016103c79190610a89565b60405180910390fd5b8051816103dc90610adb565b60001c1760001b915050919050565b6000819050919050565b6000604051905090565b600080fd5b600080fd5b600073ffffffffffffffffffffffffffffffffffffffff82169050919050565b600061043482610409565b9050919050565b61044481610429565b811461044f57600080fd5b50565b6000815190506104618161043b565b92915050565b6000819050919050565b61047a81610467565b811461048557600080fd5b50565b60008151905061049781610471565b92915050565b600080fd5b600080fd5b6000601f19601f8301169050919050565b7f4e487b7100000000000000000000000000000000000000000000000000000000600052604160045260246000fd5b6104f0826104a7565b810181811067ffffffffffffffff8211171561050f5761050e6104b8565b5b80604052505050565b60006105226103f5565b905061052e82826104e7565b919050565b600067ffffffffffffffff82111561054e5761054d6104b8565b5b610557826104a7565b9050602081019050919050565b60005b83811015610582578082015181840152602081019050610567565b60008484015250505050565b60006105a161059c84610533565b610518565b9050828152602081018484840111156105bd576105bc6104a2565b5b6105c8848285610564565b509392505050565b600082601f8301126105e5576105e461049d565b5b81516105f584826020860161058e565b91505092915050565b600080600080600060a0868803121561061a576106196103ff565b5b600061062888828901610452565b955050602061063988828901610488565b945050604061064a88828901610488565b935050606086015167ffffffffffffffff81111561066b5761066a610404565b5b610677888289016105d0565b925050608086015167ffffffffffffffff81111561069857610697610404565b5b6106a4888289016105d0565b9150509295509295909350565b600081519050919050565b7f4e487b7100000000000000000000000000000000000000000000000000000000600052602260045260246000fd5b6000600282049050600182168061070357607f821691505b602082108103610716576107156106bc565b5b50919050565b60008190508160005260206000209050919050565b60006020601f8301049050919050565b600082821b905092915050565b60006008830261077e7fffffffffffffffffffffffffffffffffffffffffffffffffffffffffffffffff82610741565b6107888683610741565b95508019841693508086168417925050509392505050565b6000819050919050565b60006107c56107c06107bb84610467565b6107a0565b610467565b9050919050565b6000819050919050565b6107df836107aa565b6107f36107eb826107cc565b84845461074e565b825550505050565b600090565b6108086107fb565b6108138184846107d6565b505050565b5b818110156108375761082c600082610800565b600181019050610819565b5050565b601f82111561087c5761084d8161071c565b61085684610731565b81016020851015610865578190505b61087961087185610731565b830182610818565b50505b505050565b600082821c905092915050565b600061089f60001984600802610881565b1980831691505092915050565b60006108b8838361088e565b9150826002028217905092915050565b6108d1826106b1565b67ffffffffffffffff8111156108ea576108e96104b8565b5b6108f482546106eb565b6108ff82828561083b565b600060209050601f8311600181146109325760008415610920578287015190505b61092a85826108ac565b865550610992565b601f1984166109408661071c565b60005b8281101561096857848901518255600182019150602085019450602081019050610943565b868310156109855784890151610981601f89168261088e565b8355505b6001600288020188555050505b505050505050565b6109a381610429565b82525050565b60006020820190506109be600083018461099a565b92915050565b6000819050919050565b6109d7816109c4565b82525050565b6109e681610467565b82525050565b600060a082019050610a0160008301886109ce565b610a0e60208301876109ce565b610a1b60408301866109ce565b610a2860608301856109dd565b610a35608083018461099a565b9695505050505050565b600082825260208201905092915050565b6000610a5b826106b1565b610a658185610a3f565b9350610a75818560208601610564565b610a7e816104a7565b840191505092915050565b60006020820190508181036000830152610aa38184610a50565b905092915050565b600081519050919050565b6000819050602082019050919050565b6000610ad282516109c4565b80915050919050565b6000610ae682610aab565b82610af084610ab6565b9050610afb81610ac6565b92506020821015610b3b57610b367fffffffffffffffffffffffffffffffffffffffffffffffffffffffffffffffff83602003600802610741565b831692505b5050919050565b60805160a05160c05160e05161010051610120516101405161016051614b31610bae600039600081816111730152611c00015260006121870152600061214c015260006126f4015260006126d301526000611ce801526000611d3e01526000611d670152614b316000f3fe6080604052600436106102085760003560e01c806384b0196e11610118578063bdfc6c57116100a0578063d505accf1161006f578063d505accf146107c7578063dd62ed3e146107f0578063f1127ed81461082d578063f2fde38b1461086a578063fe248aea146108935761020f565b8063bdfc6c5714610740578063bef2a8971461076b578063c3cda52014610775578063cf88635d1461079e5761020f565b806395d89b41116100e757806395d89b41146106335780639ab24eb01461065e5780639e87a5cd1461069b578063a9059cbb146106c6578063abaf7360146107035761020f565b806384b0196e1461056f5780638da5cb5b146105a05780638e539e8c146105cb57806391ddadf4146106085761020f565b80633644e5151161019b5780635c19a95c1161016a5780635c19a95c146104785780636fcfff45146104a157806370a08231146104de578063715018a61461051b5780637ecebe00146105325761020f565b80633644e515146103a85780633a46b1a8146103d35780634bf5d7e914610410578063587cde1e1461043b5761020f565b806318160ddd116101d757806318160ddd146102d757806323b872dd1461030257806328ec44051461033f578063313ce5671461037d5761020f565b806306fdde031461021d578063095ea7b31461024857806309b7b224146102855780630da5fca9146102ae5761020f565b3661020f57005b34801561021b57600080fd5b005b34801561022957600080fd5b506102326108be565b60405161023f9190613a46565b60405180910390f35b34801561025457600080fd5b5061026f600480360381019061026a9190613b01565b610950565b60405161027c9190613b5c565b60405180910390f35b34801561029157600080fd5b506102ac60048036038101906102a79190613b77565b610973565b005b3480156102ba57600080fd5b506102d560048036038101906102d09190613b77565b610a04565b005b3480156102e357600080fd5b506102ec610b44565b6040516102f99190613bb3565b60405180910390f35b34801561030e57600080fd5b5061032960048036038101906103249190613bce565b610b4e565b6040516103369190613b5c565b60405180910390f35b34801561034b57600080fd5b5061036660048036038101906103619190613b77565b610b7d565b604051610374929190613c21565b60405180910390f35b34801561038957600080fd5b50610392610c6b565b60405161039f9190613c66565b60405180910390f35b3480156103b457600080fd5b506103bd610c74565b6040516103ca9190613c9a565b60405180910390f35b3480156103df57600080fd5b506103fa60048036038101906103f59190613b01565b610c83565b6040516104079190613bb3565b60405180910390f35b34801561041c57600080fd5b50610425610d5c565b6040516104329190613a46565b60405180910390f35b34801561044757600080fd5b50610462600480360381019061045d9190613cb5565b610df0565b60405161046f9190613cf1565b60405180910390f35b34801561048457600080fd5b5061049f600480360381019061049a9190613cb5565b610e59565b005b3480156104ad57600080fd5b506104c860048036038101906104c39190613cb5565b610e73565b6040516104d59190613d2b565b60405180910390f35b3480156104ea57600080fd5b5061050560048036038101906105009190613cb5565b610e85565b6040516105129190613bb3565b60405180910390f35b34801561052757600080fd5b50610530610ecd565b005b34801561053e57600080fd5b5061055960048036038101906105549190613cb5565b610ee1565b6040516105669190613bb3565b60405180910390f35b34801561057b57600080fd5b50610584610ef3565b6040516105979796959493929190613e3f565b60405180910390f35b3480156105ac57600080fd5b506105b5610f9d565b6040516105c29190613cf1565b60405180910390f35b3480156105d757600080fd5b506105f260048036038101906105ed9190613b77565b610fc7565b6040516105ff9190613bb3565b60405180910390f35b34801561061457600080fd5b5061061d611062565b60405161062a9190613ee4565b60405180910390f35b34801561063f57600080fd5b50610648611071565b6040516106559190613a46565b60405180910390f35b34801561066a57600080fd5b5061068560048036038101906106809190613cb5565b611103565b6040516106929190613bb3565b60405180910390f35b3480156106a757600080fd5b506106b061116f565b6040516106bd9190613f5e565b60405180910390f35b3480156106d257600080fd5b506106ed60048036038101906106e89190613b01565b611197565b6040516106fa9190613b5c565b60405180910390f35b34801561070f57600080fd5b5061072a60048036038101906107259190613b77565b6111ba565b6040516107379190613f92565b60405180910390f35b34801561074c57600080fd5b50610755611494565b6040516107629190613bb3565b60405180910390f35b61077361149e565b005b34801561078157600080fd5b5061079c60048036038101906107979190614005565b61157f565b005b3480156107aa57600080fd5b506107c560048036038101906107c09190613b77565b611645565b005b3480156107d357600080fd5b506107ee60048036038101906107e99190614092565b6116d7565b005b3480156107fc57600080fd5b5061081760048036038101906108129190614134565b61181f565b6040516108249190613bb3565b60405180910390f35b34801561083957600080fd5b50610854600480360381019061084f91906141a0565b6118a6565b6040516108619190614253565b60405180910390f35b34801561087657600080fd5b50610891600480360381019061088c9190613cb5565b6118c0565b005b34801561089f57600080fd5b506108a8611946565b6040516108b59190613bb3565b60405180910390f35b6060600380546108cd9061429d565b80601f01602080910402602001604051908101604052809291908181526020018280546108f99061429d565b80156109465780601f1061091b57610100808354040283529160200191610946565b820191906000526020600020905b81548152906001019060200180831161092957829003601f168201915b5050505050905090565b60008061095b611950565b9050610968818585611958565b600191505092915050565b61097b61196a565b60648111158061098c57506103e781115b156109c3576040517f6999308b00000000000000000000000000000000000000000000000000000000815260040160405180910390fd5b80600d819055507fa868599da234ae6a848e8b7c83c072f39e2366f56d5c3ea3c37fecd57b7ef8b6816040516109f99190613bb3565b60405180910390a150565b80610a0e33610e85565b1015610a46576040517f2c40243d00000000000000000000000000000000000000000000000000000000815260040160405180910390fd5b80610a4f610b44565b1015610a87576040517fdc588e4000000000000000000000000000000000000000000000000000000000815260040160405180910390fd5b6000610a92826111ba565b90506000819050610aa333846119f1565b47811115610af7573373ffffffffffffffffffffffffffffffffffffffff166108fc479081150290604051600060405180830381858888f19350505050158015610af1573d6000803e3d6000fd5b50610b3f565b3373ffffffffffffffffffffffffffffffffffffffff166108fc829081150290604051600060405180830381858888f19350505050158015610b3d573d6000803e3d6000fd5b505b505050565b6000600254905090565b600080610b59611950565b9050610b66858285611a73565b610b71858585611b07565b60019150509392505050565b6000806000610b8a611bfb565b90506000610b96610b44565b600d54610ba391906142fd565b85670de0b6b3a764000084610bb8919061436e565b6064610bc491906142fd565b610bce91906142fd565b11610bda576000610c5c565b6064600d54610be9919061439f565b670de0b6b3a764000083610bfd919061436e565b610c0791906142fd565b610c0f610b44565b600d54610c1c91906142fd565b86670de0b6b3a764000085610c31919061436e565b6064610c3d91906142fd565b610c4791906142fd565b610c51919061439f565b610c5b919061436e565b5b90508082935093505050915091565b60006012905090565b6000610c7e611ce4565b905090565b600080610c8e611062565b90508065ffffffffffff168310610cde5782816040517fecd3f81e000000000000000000000000000000000000000000000000000000008152600401610cd59291906143d3565b60405180910390fd5b610d37610cea84611d9b565b600960008773ffffffffffffffffffffffffffffffffffffffff1673ffffffffffffffffffffffffffffffffffffffff168152602001908152602001600020611df590919063ffffffff16565b79ffffffffffffffffffffffffffffffffffffffffffffffffffff1691505092915050565b6060610d66611eef565b65ffffffffffff16610d76611062565b65ffffffffffff1614610db5576040517f6ff0714000000000000000000000000000000000000000000000000000000000815260040160405180910390fd5b6040518060400160405280601d81526020017f6d6f64653d626c6f636b6e756d6265722666726f6d3d64656661756c74000000815250905090565b6000600860008373ffffffffffffffffffffffffffffffffffffffff1673ffffffffffffffffffffffffffffffffffffffff16815260200190815260200160002060009054906101000a900473ffffffffffffffffffffffffffffffffffffffff169050919050565b6000610e63611950565b9050610e6f8183611eff565b5050565b6000610e7e82612013565b9050919050565b60008060008373ffffffffffffffffffffffffffffffffffffffff1673ffffffffffffffffffffffffffffffffffffffff168152602001908152602001600020549050919050565b610ed561196a565b610edf600061206b565b565b6000610eec82612131565b9050919050565b600060608060008060006060610f07612143565b610f0f61217e565b46306000801b600067ffffffffffffffff811115610f3057610f2f6143fc565b5b604051908082528060200260200182016040528015610f5e5781602001602082028036833780820191505090505b507f0f00000000000000000000000000000000000000000000000000000000000000959493929190965096509650965096509650965090919293949596565b6000600c60009054906101000a900473ffffffffffffffffffffffffffffffffffffffff16905090565b600080610fd2611062565b90508065ffffffffffff1683106110225782816040517fecd3f81e0000000000000000000000000000000000000000000000000000000081526004016110199291906143d3565b60405180910390fd5b61103e61102e84611d9b565b600a611df590919063ffffffff16565b79ffffffffffffffffffffffffffffffffffffffffffffffffffff16915050919050565b600061106c611eef565b905090565b6060600480546110809061429d565b80601f01602080910402602001604051908101604052809291908181526020018280546110ac9061429d565b80156110f95780601f106110ce576101008083540402835291602001916110f9565b820191906000526020600020905b8154815290600101906020018083116110dc57829003601f168201915b5050505050905090565b600061114c600960008473ffffffffffffffffffffffffffffffffffffffff1673ffffffffffffffffffffffffffffffffffffffff1681526020019081526020016000206121b9565b79ffffffffffffffffffffffffffffffffffffffffffffffffffff169050919050565b60007f0000000000000000000000000000000000000000000000000000000000000000905090565b6000806111a2611950565b90506111af818585611b07565b600191505092915050565b6000806111c5611bfb565b905060008390506000829050600047905060006111e0610b44565b90506000600e549050600085836111f7919061442b565b136112285783670de0b6b3a764000086611211919061446e565b61121b91906144e6565b965050505050505061148f565b600068056bc75e2d631000008684611240919061442b565b61124a91906144e6565b670de0b6b3a76400008761125e91906144e6565b6ec097ce7bc90715b34b9f1000000000868861127a919061446e565b61128491906144e6565b61128e919061442b565b61129891906144e6565b90508181126112ce5784670de0b6b3a7640000876112b6919061446e565b6112c091906144e6565b97505050505050505061148f565b600068056bc75e2d6310000087856112e6919061442b565b846112f1919061446e565b6112fb91906144e6565b905060006ec097ce7bc90715b34b9f1000000000868861131a90614550565b611324919061446e565b61132e91906144e6565b82600461133b919061446e565b611345919061446e565b6ec097ce7bc90715b34b9f1000000000898a611361919061446e565b61136b91906144e6565b611375919061442b565b905060008112156113b2576040517fe33f304200000000000000000000000000000000000000000000000000000000815260040160405180910390fd5b600081905060006113c282612221565b90506000670de0b6b3a7640000826113da91906142fd565b90506000655af3107a40008660026113f2919061446e565b6113fc919061446e565b828d61140790614550565b6114119190614598565b61141b91906144e6565b905060008113611457576040517fedcfb83800000000000000000000000000000000000000000000000000000000815260040160405180910390fd5b8a655af3107a4000828e61146b919061446e565b611475919061446e565b61147f91906144e6565b9d50505050505050505050505050505b919050565b6000600d54905090565b6114a661229b565b600034476114b4919061439f565b90506000806114c283610b7d565b9150915034821015611500576040517feefae1b000000000000000000000000000000000000000000000000000000000815260040160405180910390fd5b6000670de0b6b3a7640000348361151791906142fd565b611521919061436e565b905061152d33826122e1565b803373ffffffffffffffffffffffffffffffffffffffff167f1ea579964f6721f0124b837446cbde54c2e1524c500a7a4d8cb98444acf55fb760405160405180910390a35050505061157d612363565b565b834211156115c457836040517f4683af0e0000000000000000000000000000000000000000000000000000000081526004016115bb9190613bb3565b60405180910390fd5b600061162661161e7fe48329057bfd03d55e49b547132e39cffd9c1820ad7b9d4c5307691425d15adf89898960405160200161160394939291906145dc565b6040516020818303038152906040528051906020012061236d565b858585612387565b905061163281876123b7565b61163c8188611eff565b50505050505050565b61164d61196a565b60008111158061165f57506103e78110155b15611696576040517f6999308b00000000000000000000000000000000000000000000000000000000815260040160405180910390fd5b80600e819055507fab65df97ef7cf2adb049c2c97d982c7d0c4f5e34917bcc4f2f9a1377165aa8a7816040516116cc9190613bb3565b60405180910390a150565b8342111561171c57836040517f627913020000000000000000000000000000000000000000000000000000000081526004016117139190613bb3565b60405180910390fd5b60007f6e71edae12b1b97f4d1f60370fef10105fa2faae0126114a169c64845d6126c988888861174b8c61240f565b8960405160200161176196959493929190614621565b60405160208183030381529060405280519060200120905060006117848261236d565b9050600061179482878787612387565b90508973ffffffffffffffffffffffffffffffffffffffff168173ffffffffffffffffffffffffffffffffffffffff161461180857808a6040517f4b800e460000000000000000000000000000000000000000000000000000000081526004016117ff929190614682565b60405180910390fd5b6118138a8a8a611958565b50505050505050505050565b6000600160008473ffffffffffffffffffffffffffffffffffffffff1673ffffffffffffffffffffffffffffffffffffffff16815260200190815260200160002060008373ffffffffffffffffffffffffffffffffffffffff1673ffffffffffffffffffffffffffffffffffffffff16815260200190815260200160002054905092915050565b6118ae613978565b6118b88383612466565b905092915050565b6118c861196a565b600073ffffffffffffffffffffffffffffffffffffffff168173ffffffffffffffffffffffffffffffffffffffff160361193a5760006040517f1e4fbdf70000000000000000000000000000000000000000000000000000000081526004016119319190613cf1565b60405180910390fd5b6119438161206b565b50565b6000600e54905090565b600033905090565b61196583838360016124c7565b505050565b611972611950565b73ffffffffffffffffffffffffffffffffffffffff16611990610f9d565b73ffffffffffffffffffffffffffffffffffffffff16146119ef576119b3611950565b6040517f118cdaa70000000000000000000000000000000000000000000000000000000081526004016119e69190613cf1565b60405180910390fd5b565b600073ffffffffffffffffffffffffffffffffffffffff168273ffffffffffffffffffffffffffffffffffffffff1603611a635760006040517f96c6fd1e000000000000000000000000000000000000000000000000000000008152600401611a5a9190613cf1565b60405180910390fd5b611a6f8260008361269e565b5050565b6000611a7f848461181f565b90507fffffffffffffffffffffffffffffffffffffffffffffffffffffffffffffffff8114611b015781811015611af1578281836040517ffb8f41b2000000000000000000000000000000000000000000000000000000008152600401611ae8939291906146ab565b60405180910390fd5b611b00848484840360006124c7565b5b50505050565b600073ffffffffffffffffffffffffffffffffffffffff168373ffffffffffffffffffffffffffffffffffffffff1603611b795760006040517f96c6fd1e000000000000000000000000000000000000000000000000000000008152600401611b709190613cf1565b60405180910390fd5b600073ffffffffffffffffffffffffffffffffffffffff168273ffffffffffffffffffffffffffffffffffffffff1603611beb5760006040517fec442f05000000000000000000000000000000000000000000000000000000008152600401611be29190613cf1565b60405180910390fd5b611bf683838361269e565b505050565b6000807f000000000000000000000000000000000000000000000000000000000000000073ffffffffffffffffffffffffffffffffffffffff1663feaf968c6040518163ffffffff1660e01b815260040160a060405180830381865afa158015611c69573d6000803e3d6000fd5b505050506040513d601f19601f82011682018060405250810190611c8d9190614765565b50505091505060008113611ccd576040517f0edd371800000000000000000000000000000000000000000000000000000000815260040160405180910390fd5b6402540be40081611cde919061446e565b91505090565b60007f000000000000000000000000000000000000000000000000000000000000000073ffffffffffffffffffffffffffffffffffffffff163073ffffffffffffffffffffffffffffffffffffffff16148015611d6057507f000000000000000000000000000000000000000000000000000000000000000046145b15611d8d577f00000000000000000000000000000000000000000000000000000000000000009050611d98565b611d956126ae565b90505b90565b600065ffffffffffff8016821115611ded576030826040517f6dfcc650000000000000000000000000000000000000000000000000000000008152600401611de492919061481b565b60405180910390fd5b819050919050565b600080836000018054905090506000808290506005831115611e7d576000611e1c84612744565b84611e27919061439f565b9050611e3687600001826128e1565b60000160009054906101000a900465ffffffffffff1665ffffffffffff168665ffffffffffff161015611e6b57809150611e7b565b600181611e789190614844565b92505b505b6000611e8e876000018785856128f6565b905060008114611ee057611eb187600001600183611eac919061439f565b6128e1565b60000160069054906101000a900479ffffffffffffffffffffffffffffffffffffffffffffffffffff16611ee3565b60005b94505050505092915050565b6000611efa43611d9b565b905090565b6000611f0a83610df0565b905081600860008573ffffffffffffffffffffffffffffffffffffffff1673ffffffffffffffffffffffffffffffffffffffff16815260200190815260200160002060006101000a81548173ffffffffffffffffffffffffffffffffffffffff021916908373ffffffffffffffffffffffffffffffffffffffff1602179055508173ffffffffffffffffffffffffffffffffffffffff168173ffffffffffffffffffffffffffffffffffffffff168473ffffffffffffffffffffffffffffffffffffffff167f3134e8a2e6d97e929a7e54011ea5485d7d196dd5f0ba4d4ef95803e8e3fc257f60405160405180910390a461200e81836120098661296f565b612981565b505050565b600061206461205f600960008573ffffffffffffffffffffffffffffffffffffffff1673ffffffffffffffffffffffffffffffffffffffff168152602001908152602001600020612bfa565b612c0b565b9050919050565b6000600c60009054906101000a900473ffffffffffffffffffffffffffffffffffffffff16905081600c60006101000a81548173ffffffffffffffffffffffffffffffffffffffff021916908373ffffffffffffffffffffffffffffffffffffffff1602179055508173ffffffffffffffffffffffffffffffffffffffff168173ffffffffffffffffffffffffffffffffffffffff167f8be0079c531659141344cd1fd0a4f28419497f9722a3daafe3b4186f6b6457e060405160405180910390a35050565b600061213c82612c63565b9050919050565b606061217960057f0000000000000000000000000000000000000000000000000000000000000000612cac90919063ffffffff16565b905090565b60606121b460067f0000000000000000000000000000000000000000000000000000000000000000612cac90919063ffffffff16565b905090565b6000808260000180549050905060008114612216576121e7836000016001836121e2919061439f565b6128e1565b60000160069054906101000a900479ffffffffffffffffffffffffffffffffffffffffffffffffffff16612219565b60005b915050919050565b600060038211156122885781905060006001600284612240919061436e565b61224a9190614844565b90505b81811015612282578091506002818285612267919061436e565b6122719190614844565b61227b919061436e565b905061224d565b50612296565b6000821461229557600190505b5b919050565b6002600b54036122d7576040517f3ee5aeb500000000000000000000000000000000000000000000000000000000815260040160405180910390fd5b6002600b81905550565b600073ffffffffffffffffffffffffffffffffffffffff168273ffffffffffffffffffffffffffffffffffffffff16036123535760006040517fec442f0500000000000000000000000000000000000000000000000000000000815260040161234a9190613cf1565b60405180910390fd5b61235f6000838361269e565b5050565b6001600b81905550565b600061238061237a611ce4565b83612d5c565b9050919050565b60008060008061239988888888612d9d565b9250925092506123a98282612e91565b829350505050949350505050565b60006123c28361240f565b905080821461240a5782816040517f752d88c0000000000000000000000000000000000000000000000000000000008152600401612401929190614878565b60405180910390fd5b505050565b6000600760008373ffffffffffffffffffffffffffffffffffffffff1673ffffffffffffffffffffffffffffffffffffffff1681526020019081526020016000206000815480929190600101919050559050919050565b61246e613978565b6124bf82600960008673ffffffffffffffffffffffffffffffffffffffff1673ffffffffffffffffffffffffffffffffffffffff168152602001908152602001600020612ff590919063ffffffff16565b905092915050565b600073ffffffffffffffffffffffffffffffffffffffff168473ffffffffffffffffffffffffffffffffffffffff16036125395760006040517fe602df050000000000000000000000000000000000000000000000000000000081526004016125309190613cf1565b60405180910390fd5b600073ffffffffffffffffffffffffffffffffffffffff168373ffffffffffffffffffffffffffffffffffffffff16036125ab5760006040517f94280d620000000000000000000000000000000000000000000000000000000081526004016125a29190613cf1565b60405180910390fd5b81600160008673ffffffffffffffffffffffffffffffffffffffff1673ffffffffffffffffffffffffffffffffffffffff16815260200190815260200160002060008573ffffffffffffffffffffffffffffffffffffffff1673ffffffffffffffffffffffffffffffffffffffff168152602001908152602001600020819055508015612698578273ffffffffffffffffffffffffffffffffffffffff168473ffffffffffffffffffffffffffffffffffffffff167f8c5be1e5ebec7d5bd14f71427d1e84f3dd0314c0f7b2291e5b200ac8c7c3b9258460405161268f9190613bb3565b60405180910390a35b50505050565b6126a98383836130ca565b505050565b60007f8b73c3c69bb8fe3d512ecc4cf759cc79239f7b179b0ffacaa9a75d522b39400f7f00000000000000000000000000000000000000000000000000000000000000007f000000000000000000000000000000000000000000000000000000000000000046306040516020016127299594939291906148a1565b60405160208183030381529060405280519060200120905090565b600060018211612756578190506128dc565b6000829050600060019050700100000000000000000000000000000000821061278857608082901c9150604081901b90505b6801000000000000000082106127a757604082901c9150602081901b90505b64010000000082106127c257602082901c9150601081901b90505b6201000082106127db57601082901c9150600881901b90505b61010082106127f357600882901c9150600481901b90505b6010821061280a57600482901c9150600281901b90505b6004821061281a57600181901b90505b600181600302901c905060018185816128365761283561433f565b5b048201901c9050600181858161284f5761284e61433f565b5b048201901c905060018185816128685761286761433f565b5b048201901c905060018185816128815761288061433f565b5b048201901c9050600181858161289a5761289961433f565b5b048201901c905060018185816128b3576128b261433f565b5b048201901c90506128d58185816128cd576128cc61433f565b5b04821161317b565b8103925050505b919050565b60008260005281602060002001905092915050565b60005b8183101561296457600061290d8484613187565b90508465ffffffffffff1661292287836128e1565b60000160009054906101000a900465ffffffffffff1665ffffffffffff16111561294e5780925061295e565b60018161295b9190614844565b93505b506128f9565b819050949350505050565b600061297a82610e85565b9050919050565b8173ffffffffffffffffffffffffffffffffffffffff168373ffffffffffffffffffffffffffffffffffffffff16141580156129bd5750600081115b15612bf557600073ffffffffffffffffffffffffffffffffffffffff168373ffffffffffffffffffffffffffffffffffffffff1614612adb57600080612a4c600960008773ffffffffffffffffffffffffffffffffffffffff1673ffffffffffffffffffffffffffffffffffffffff1681526020019081526020016000206131ad612a47866131c3565b613231565b79ffffffffffffffffffffffffffffffffffffffffffffffffffff16915079ffffffffffffffffffffffffffffffffffffffffffffffffffff1691508473ffffffffffffffffffffffffffffffffffffffff167fdec2bacdd2f05b59de34da9b523dff8be42e5e38e818c82fdb0bae774387a7248383604051612ad0929190613c21565b60405180910390a250505b600073ffffffffffffffffffffffffffffffffffffffff168273ffffffffffffffffffffffffffffffffffffffff1614612bf457600080612b65600960008673ffffffffffffffffffffffffffffffffffffffff1673ffffffffffffffffffffffffffffffffffffffff168152602001908152602001600020613271612b60866131c3565b613231565b79ffffffffffffffffffffffffffffffffffffffffffffffffffff16915079ffffffffffffffffffffffffffffffffffffffffffffffffffff1691508373ffffffffffffffffffffffffffffffffffffffff167fdec2bacdd2f05b59de34da9b523dff8be42e5e38e818c82fdb0bae774387a7248383604051612be9929190613c21565b60405180910390a250505b5b505050565b600081600001805490509050919050565b600063ffffffff8016821115612c5b576020826040517f6dfcc650000000000000000000000000000000000000000000000000000000008152600401612c5292919061492f565b60405180910390fd5b819050919050565b6000600760008373ffffffffffffffffffffffffffffffffffffffff1673ffffffffffffffffffffffffffffffffffffffff168152602001908152602001600020549050919050565b606060ff60001b8314612cc957612cc283613287565b9050612d56565b818054612cd59061429d565b80601f0160208091040260200160405190810160405280929190818152602001828054612d019061429d565b8015612d4e5780601f10612d2357610100808354040283529160200191612d4e565b820191906000526020600020905b815481529060010190602001808311612d3157829003601f168201915b505050505090505b92915050565b60006040517f190100000000000000000000000000000000000000000000000000000000000081528360028201528260228201526042812091505092915050565b60008060007f7fffffffffffffffffffffffffffffff5d576e7357a4501ddfe92f46681b20a08460001c1115612ddd576000600385925092509250612e87565b600060018888888860405160008152602001604052604051612e029493929190614958565b6020604051602081039080840390855afa158015612e24573d6000803e3d6000fd5b505050602060405103519050600073ffffffffffffffffffffffffffffffffffffffff168173ffffffffffffffffffffffffffffffffffffffff1603612e7857600060016000801b93509350935050612e87565b8060008060001b935093509350505b9450945094915050565b60006003811115612ea557612ea461499d565b5b826003811115612eb857612eb761499d565b5b0315612ff15760016003811115612ed257612ed161499d565b5b826003811115612ee557612ee461499d565b5b03612f1c576040517ff645eedf00000000000000000000000000000000000000000000000000000000815260040160405180910390fd5b60026003811115612f3057612f2f61499d565b5b826003811115612f4357612f4261499d565b5b03612f88578060001c6040517ffce698f7000000000000000000000000000000000000000000000000000000008152600401612f7f9190613bb3565b60405180910390fd5b600380811115612f9b57612f9a61499d565b5b826003811115612fae57612fad61499d565b5b03612ff057806040517fd78bce0c000000000000000000000000000000000000000000000000000000008152600401612fe79190613c9a565b60405180910390fd5b5b5050565b612ffd613978565b826000018263ffffffff1681548110613019576130186149cc565b5b906000526020600020016040518060400160405290816000820160009054906101000a900465ffffffffffff1665ffffffffffff1665ffffffffffff1681526020016000820160069054906101000a900479ffffffffffffffffffffffffffffffffffffffffffffffffffff1679ffffffffffffffffffffffffffffffffffffffffffffffffffff1679ffffffffffffffffffffffffffffffffffffffffffffffffffff1681525050905092915050565b6130d58383836132fb565b600073ffffffffffffffffffffffffffffffffffffffff168373ffffffffffffffffffffffffffffffffffffffff160361316b576000613113610b44565b9050600061311f613520565b9050808211156131685781816040517f1cb15d2600000000000000000000000000000000000000000000000000000000815260040161315f929190613c21565b60405180910390fd5b50505b613176838383613544565b505050565b60008115159050919050565b60006002828418613198919061436e565b8284166131a59190614844565b905092915050565b600081836131bb91906149fb565b905092915050565b600079ffffffffffffffffffffffffffffffffffffffffffffffffffff80168211156132295760d0826040517f6dfcc650000000000000000000000000000000000000000000000000000000008152600401613220929190614a84565b60405180910390fd5b819050919050565b60008061326561323f611062565b61325561324b886121b9565b868863ffffffff16565b876135fe9092919063ffffffff16565b91509150935093915050565b6000818361327f9190614aad565b905092915050565b606060006132948361361b565b90506000602067ffffffffffffffff8111156132b3576132b26143fc565b5b6040519080825280601f01601f1916602001820160405280156132e55781602001600182028036833780820191505090505b5090508181528360208201528092505050919050565b600073ffffffffffffffffffffffffffffffffffffffff168373ffffffffffffffffffffffffffffffffffffffff160361334d5780600260008282546133419190614844565b92505081905550613420565b60008060008573ffffffffffffffffffffffffffffffffffffffff1673ffffffffffffffffffffffffffffffffffffffff168152602001908152602001600020549050818110156133d9578381836040517fe450d38c0000000000000000000000000000000000000000000000000000000081526004016133d0939291906146ab565b60405180910390fd5b8181036000808673ffffffffffffffffffffffffffffffffffffffff1673ffffffffffffffffffffffffffffffffffffffff16815260200190815260200160002081905550505b600073ffffffffffffffffffffffffffffffffffffffff168273ffffffffffffffffffffffffffffffffffffffff160361346957806002600082825403925050819055506134b6565b806000808473ffffffffffffffffffffffffffffffffffffffff1673ffffffffffffffffffffffffffffffffffffffff168152602001908152602001600020600082825401925050819055505b8173ffffffffffffffffffffffffffffffffffffffff168373ffffffffffffffffffffffffffffffffffffffff167fddf252ad1be2c89b69c2b068fc378daa952ba7f163c4a11628f55a4df523b3ef836040516135139190613bb3565b60405180910390a3505050565b600079ffffffffffffffffffffffffffffffffffffffffffffffffffff8016905090565b600073ffffffffffffffffffffffffffffffffffffffff168373ffffffffffffffffffffffffffffffffffffffff16036135915761358e600a613271613589846131c3565b613231565b50505b600073ffffffffffffffffffffffffffffffffffffffff168273ffffffffffffffffffffffffffffffffffffffff16036135de576135db600a6131ad6135d6846131c3565b613231565b50505b6135f96135ea84610df0565b6135f384610df0565b83612981565b505050565b60008061360f85600001858561366b565b91509150935093915050565b60008060ff8360001c169050601f811115613662576040517fb3512b0c00000000000000000000000000000000000000000000000000000000815260040160405180910390fd5b80915050919050565b600080600085805490509050600081111561388857600061369887600184613693919061439f565b6128e1565b905060008160000160009054906101000a900465ffffffffffff16905060008260000160069054906101000a900479ffffffffffffffffffffffffffffffffffffffffffffffffffff1690508765ffffffffffff168265ffffffffffff16111561372e576040517f2520601d00000000000000000000000000000000000000000000000000000000815260040160405180910390fd5b8765ffffffffffff168265ffffffffffff160361379957868360000160066101000a81548179ffffffffffffffffffffffffffffffffffffffffffffffffffff021916908379ffffffffffffffffffffffffffffffffffffffffffffffffffff160217905550613879565b8860405180604001604052808a65ffffffffffff1681526020018979ffffffffffffffffffffffffffffffffffffffffffffffffffff168152509080600181540180825580915050600190039060005260206000200160009091909190915060008201518160000160006101000a81548165ffffffffffff021916908365ffffffffffff16021790555060208201518160000160066101000a81548179ffffffffffffffffffffffffffffffffffffffffffffffffffff021916908379ffffffffffffffffffffffffffffffffffffffffffffffffffff16021790555050505b80879550955050505050613970565b8560405180604001604052808765ffffffffffff1681526020018679ffffffffffffffffffffffffffffffffffffffffffffffffffff168152509080600181540180825580915050600190039060005260206000200160009091909190915060008201518160000160006101000a81548165ffffffffffff021916908365ffffffffffff16021790555060208201518160000160066101000a81548179ffffffffffffffffffffffffffffffffffffffffffffffffffff021916908379ffffffffffffffffffffffffffffffffffffffffffffffffffff160217905550505060008492509250505b935093915050565b6040518060400160405280600065ffffffffffff168152602001600079ffffffffffffffffffffffffffffffffffffffffffffffffffff1681525090565b600081519050919050565b600082825260208201905092915050565b60005b838110156139f05780820151818401526020810190506139d5565b60008484015250505050565b6000601f19601f8301169050919050565b6000613a18826139b6565b613a2281856139c1565b9350613a328185602086016139d2565b613a3b816139fc565b840191505092915050565b60006020820190508181036000830152613a608184613a0d565b905092915050565b600080fd5b600073ffffffffffffffffffffffffffffffffffffffff82169050919050565b6000613a9882613a6d565b9050919050565b613aa881613a8d565b8114613ab357600080fd5b50565b600081359050613ac581613a9f565b92915050565b6000819050919050565b613ade81613acb565b8114613ae957600080fd5b50565b600081359050613afb81613ad5565b92915050565b60008060408385031215613b1857613b17613a68565b5b6000613b2685828601613ab6565b9250506020613b3785828601613aec565b9150509250929050565b60008115159050919050565b613b5681613b41565b82525050565b6000602082019050613b716000830184613b4d565b92915050565b600060208284031215613b8d57613b8c613a68565b5b6000613b9b84828501613aec565b91505092915050565b613bad81613acb565b82525050565b6000602082019050613bc86000830184613ba4565b92915050565b600080600060608486031215613be757613be6613a68565b5b6000613bf586828701613ab6565b9350506020613c0686828701613ab6565b9250506040613c1786828701613aec565b9150509250925092565b6000604082019050613c366000830185613ba4565b613c436020830184613ba4565b9392505050565b600060ff82169050919050565b613c6081613c4a565b82525050565b6000602082019050613c7b6000830184613c57565b92915050565b6000819050919050565b613c9481613c81565b82525050565b6000602082019050613caf6000830184613c8b565b92915050565b600060208284031215613ccb57613cca613a68565b5b6000613cd984828501613ab6565b91505092915050565b613ceb81613a8d565b82525050565b6000602082019050613d066000830184613ce2565b92915050565b600063ffffffff82169050919050565b613d2581613d0c565b82525050565b6000602082019050613d406000830184613d1c565b92915050565b60007fff0000000000000000000000000000000000000000000000000000000000000082169050919050565b613d7b81613d46565b82525050565b600081519050919050565b600082825260208201905092915050565b6000819050602082019050919050565b613db681613acb565b82525050565b6000613dc88383613dad565b60208301905092915050565b6000602082019050919050565b6000613dec82613d81565b613df68185613d8c565b9350613e0183613d9d565b8060005b83811015613e32578151613e198882613dbc565b9750613e2483613dd4565b925050600181019050613e05565b5085935050505092915050565b600060e082019050613e54600083018a613d72565b8181036020830152613e668189613a0d565b90508181036040830152613e7a8188613a0d565b9050613e896060830187613ba4565b613e966080830186613ce2565b613ea360a0830185613c8b565b81810360c0830152613eb58184613de1565b905098975050505050505050565b600065ffffffffffff82169050919050565b613ede81613ec3565b82525050565b6000602082019050613ef96000830184613ed5565b92915050565b6000819050919050565b6000613f24613f1f613f1a84613a6d565b613eff565b613a6d565b9050919050565b6000613f3682613f09565b9050919050565b6000613f4882613f2b565b9050919050565b613f5881613f3d565b82525050565b6000602082019050613f736000830184613f4f565b92915050565b6000819050919050565b613f8c81613f79565b82525050565b6000602082019050613fa76000830184613f83565b92915050565b613fb681613c4a565b8114613fc157600080fd5b50565b600081359050613fd381613fad565b92915050565b613fe281613c81565b8114613fed57600080fd5b50565b600081359050613fff81613fd9565b92915050565b60008060008060008060c0878903121561402257614021613a68565b5b600061403089828a01613ab6565b965050602061404189828a01613aec565b955050604061405289828a01613aec565b945050606061406389828a01613fc4565b935050608061407489828a01613ff0565b92505060a061408589828a01613ff0565b9150509295509295509295565b600080600080600080600060e0888a0312156140b1576140b0613a68565b5b60006140bf8a828b01613ab6565b97505060206140d08a828b01613ab6565b96505060406140e18a828b01613aec565b95505060606140f28a828b01613aec565b94505060806141038a828b01613fc4565b93505060a06141148a828b01613ff0565b92505060c06141258a828b01613ff0565b91505092959891949750929550565b6000806040838503121561414b5761414a613a68565b5b600061415985828601613ab6565b925050602061416a85828601613ab6565b9150509250929050565b61417d81613d0c565b811461418857600080fd5b50565b60008135905061419a81614174565b92915050565b600080604083850312156141b7576141b6613a68565b5b60006141c585828601613ab6565b92505060206141d68582860161418b565b9150509250929050565b6141e981613ec3565b82525050565b600079ffffffffffffffffffffffffffffffffffffffffffffffffffff82169050919050565b61421e816141ef565b82525050565b60408201600082015161423a60008501826141e0565b50602082015161424d6020850182614215565b50505050565b60006040820190506142686000830184614224565b92915050565b7f4e487b7100000000000000000000000000000000000000000000000000000000600052602260045260246000fd5b600060028204905060018216806142b557607f821691505b6020821081036142c8576142c761426e565b5b50919050565b7f4e487b7100000000000000000000000000000000000000000000000000000000600052601160045260246000fd5b600061430882613acb565b915061431383613acb565b925082820261432181613acb565b91508282048414831517614338576143376142ce565b5b5092915050565b7f4e487b7100000000000000000000000000000000000000000000000000000000600052601260045260246000fd5b600061437982613acb565b915061438483613acb565b9250826143945761439361433f565b5b828204905092915050565b60006143aa82613acb565b91506143b583613acb565b92508282039050818111156143cd576143cc6142ce565b5b92915050565b60006040820190506143e86000830185613ba4565b6143f56020830184613ed5565b9392505050565b7f4e487b7100000000000000000000000000000000000000000000000000000000600052604160045260246000fd5b600061443682613f79565b915061444183613f79565b9250828203905081811260008412168282136000851215161715614468576144676142ce565b5b92915050565b600061447982613f79565b915061448483613f79565b925082820261449281613f79565b91507f800000000000000000000000000000000000000000000000000000000000000084146000841216156144ca576144c96142ce565b5b82820584148315176144df576144de6142ce565b5b5092915050565b60006144f182613f79565b91506144fc83613f79565b92508261450c5761450b61433f565b5b600160000383147f800000000000000000000000000000000000000000000000000000000000000083141615614545576145446142ce565b5b828205905092915050565b600061455b82613f79565b91507f8000000000000000000000000000000000000000000000000000000000000000820361458d5761458c6142ce565b5b816000039050919050565b60006145a382613f79565b91506145ae83613f79565b9250828201905082811215600083121683821260008412151617156145d6576145d56142ce565b5b92915050565b60006080820190506145f16000830187613c8b565b6145fe6020830186613ce2565b61460b6040830185613ba4565b6146186060830184613ba4565b95945050505050565b600060c0820190506146366000830189613c8b565b6146436020830188613ce2565b6146506040830187613ce2565b61465d6060830186613ba4565b61466a6080830185613ba4565b61467760a0830184613ba4565b979650505050505050565b60006040820190506146976000830185613ce2565b6146a46020830184613ce2565b9392505050565b60006060820190506146c06000830186613ce2565b6146cd6020830185613ba4565b6146da6040830184613ba4565b949350505050565b600069ffffffffffffffffffff82169050919050565b614701816146e2565b811461470c57600080fd5b50565b60008151905061471e816146f8565b92915050565b61472d81613f79565b811461473857600080fd5b50565b60008151905061474a81614724565b92915050565b60008151905061475f81613ad5565b92915050565b600080600080600060a0868803121561478157614780613a68565b5b600061478f8882890161470f565b95505060206147a08882890161473b565b94505060406147b188828901614750565b93505060606147c288828901614750565b92505060806147d38882890161470f565b9150509295509295909350565b6000819050919050565b60006148056148006147fb846147e0565b613eff565b613c4a565b9050919050565b614815816147ea565b82525050565b6000604082019050614830600083018561480c565b61483d6020830184613ba4565b9392505050565b600061484f82613acb565b915061485a83613acb565b9250828201905080821115614872576148716142ce565b5b92915050565b600060408201905061488d6000830185613ce2565b61489a6020830184613ba4565b9392505050565b600060a0820190506148b66000830188613c8b565b6148c36020830187613c8b565b6148d06040830186613c8b565b6148dd6060830185613ba4565b6148ea6080830184613ce2565b9695505050505050565b6000819050919050565b600061491961491461490f846148f4565b613eff565b613c4a565b9050919050565b614929816148fe565b82525050565b60006040820190506149446000830185614920565b6149516020830184613ba4565b9392505050565b600060808201905061496d6000830187613c8b565b61497a6020830186613c57565b6149876040830185613c8b565b6149946060830184613c8b565b95945050505050565b7f4e487b7100000000000000000000000000000000000000000000000000000000600052602160045260246000fd5b7f4e487b7100000000000000000000000000000000000000000000000000000000600052603260045260246000fd5b6000614a06826141ef565b9150614a11836141ef565b9250828203905079ffffffffffffffffffffffffffffffffffffffffffffffffffff811115614a4357614a426142ce565b5b92915050565b6000819050919050565b6000614a6e614a69614a6484614a49565b613eff565b613c4a565b9050919050565b614a7e81614a53565b82525050565b6000604082019050614a996000830185614a75565b614aa66020830184613ba4565b9392505050565b6000614ab8826141ef565b9150614ac3836141ef565b9250828201905079ffffffffffffffffffffffffffffffffffffffffffffffffffff811115614af557614af46142ce565b5b9291505056fea2646970667358221220ba72880e5a09a75fb6f54609b8dcdda38967240513c16ab2008c88987abf40e664736f6c634300081b0033",
  "devdoc": {
    "errors": {
      "CheckpointUnorderedInsertion()": [
        {
          "details": "A value was attempted to be inserted on a past checkpoint."
        }
      ],
      "ECDSAInvalidSignature()": [
        {
          "details": "The signature derives the `address(0)`."
        }
      ],
      "ECDSAInvalidSignatureLength(uint256)": [
        {
          "details": "The signature has an invalid length."
        }
      ],
      "ECDSAInvalidSignatureS(bytes32)": [
        {
          "details": "The signature has an S value that is in the upper half order."
        }
      ],
      "ERC20ExceededSafeSupply(uint256,uint256)": [
        {
          "details": "Total supply cap has been exceeded, introducing a risk of votes overflowing."
        }
      ],
      "ERC20InsufficientAllowance(address,uint256,uint256)": [
        {
          "details": "Indicates a failure with the `spender`s `allowance`. Used in transfers.",
          "params": {
            "allowance": "Amount of tokens a `spender` is allowed to operate with.",
            "needed": "Minimum amount required to perform a transfer.",
            "spender": "Address that may be allowed to operate on tokens without being their owner."
          }
        }
      ],
      "ERC20InsufficientBalance(address,uint256,uint256)": [
        {
          "details": "Indicates an error related to the current `balance` of a `sender`. Used in transfers.",
          "params": {
            "balance": "Current balance for the interacting account.",
            "needed": "Minimum amount required to perform a transfer.",
            "sender": "Address whose tokens are being transferred."
          }
        }
      ],
      "ERC20InvalidApprover(address)": [
        {
          "details": "Indicates a failure with the `approver` of a token to be approved. Used in approvals.",
          "params": {
            "approver": "Address initiating an approval operation."
          }
        }
      ],
      "ERC20InvalidReceiver(address)": [
        {
          "details": "Indicates a failure with the token `receiver`. Used in transfers.",
          "params": {
            "receiver": "Address to which tokens are being transferred."
          }
        }
      ],
      "ERC20InvalidSender(address)": [
        {
          "details": "Indicates a failure with the token `sender`. Used in transfers.",
          "params": {
            "sender": "Address whose tokens are being transferred."
          }
        }
      ],
      "ERC20InvalidSpender(address)": [
        {
          "details": "Indicates a failure with the `spender` to be approved. Used in approvals.",
          "params": {
            "spender": "Address that may be allowed to operate on tokens without being their owner."
          }
        }
      ],
      "ERC2612ExpiredSignature(uint256)": [
        {
          "details": "Permit deadline has expired."
        }
      ],
      "ERC2612InvalidSigner(address,address)": [
        {
          "details": "Mismatched signature."
        }
      ],
      "ERC5805FutureLookup(uint256,uint48)": [
        {
          "details": "Lookup to future votes is not available."
        }
      ],
      "ERC6372InconsistentClock()": [
        {
          "details": "The clock was incorrectly modified."
        }
      ],
      "InvalidAccountNonce(address,uint256)": [
        {
          "details": "The nonce used for an `account` is not the expected current nonce."
        }
      ],
      "OwnableInvalidOwner(address)": [
        {
          "details": "The owner is not a valid owner account. (eg. `address(0)`)"
        }
      ],
      "OwnableUnauthorizedAccount(address)": [
        {
          "details": "The caller account is not authorized to perform an operation."
        }
      ],
      "ReentrancyGuardReentrantCall()": [
        {
          "details": "Unauthorized reentrant call."
        }
      ],
      "SafeCastOverflowedUintDowncast(uint8,uint256)": [
        {
          "details": "Value doesn't fit in an uint of `bits` size."
        }
      ],
      "VotesExpiredSignature(uint256)": [
        {
          "details": "The signature used has expired."
        }
      ]
    },
    "events": {
      "Approval(address,address,uint256)": {
        "details": "Emitted when the allowance of a `spender` for an `owner` is set by a call to {approve}. `value` is the new allowance."
      },
      "DelegateChanged(address,address,address)": {
        "details": "Emitted when an account changes their delegate."
      },
      "DelegateVotesChanged(address,uint256,uint256)": {
        "details": "Emitted when a token transfer or delegate change results in changes to a delegate's number of voting units."
      },
      "EIP712DomainChanged()": {
        "details": "MAY be emitted to signal that the domain could have changed."
      },
      "Transfer(address,address,uint256)": {
        "details": "Emitted when `value` tokens are moved from one account (`from`) to another (`to`). Note that `value` may be zero."
      }
    },
    "kind": "dev",
    "methods": {
      "CLOCK_MODE()": {
        "details": "Machine-readable description of the clock as specified in ERC-6372."
      },
      "DOMAIN_SEPARATOR()": {
        "details": "Returns the domain separator used in the encoding of the signature for {permit}, as defined by {EIP712}."
      },
      "allowance(address,address)": {
        "details": "See {IERC20-allowance}."
      },
      "approve(address,uint256)": {
        "details": "See {IERC20-approve}. NOTE: If `value` is the maximum `uint256`, the allowance is not updated on `transferFrom`. This is semantically equivalent to an infinite approval. Requirements: - `spender` cannot be the zero address."
      },
      "balanceOf(address)": {
        "details": "See {IERC20-balanceOf}."
      },
      "calculateMaxMintable(uint256)": {
        "details": "essentially this works in the following wayA simple equation for plugging in values is as follows: (p * (b + m)) / (u + (m * p)) = r Consider the following values, plug them into the formula and see what you get: ethCollateralRatio (r): 4 ethPrice (p): $2,000 balance (b): 4 ETH totalSupply() (u): 0 The answer should be 1.3333 ETH. Consider: ($2,000 * (4 + 1.33333)) / (0 + (1.33333 * $2,000)) = 4",
        "params": {
          "_adjustedBalance": "ethBalance of contract not including any eth sent in the current transaction  Use the following variables: b: address(this).balance p: ethPrice * 1e10 m: maxMintable (in ETH) u: totalSupply() r: s_ethCollateralRatio  You take the current balance in USD (b * p) and add the additional max amount a user would add in USD (m * p) We'll factor out the `p`, divide by 1e18 and call this X: (p * (b + m)) / 1e18 Then you take the current amount of SDUSD minted (u) and add the max amount a user would add in USD (m * p) / 1e18 We'll call this Y: u + ((m * p) / 1e18) Then you have X / Y = ethCollateralRatio (r) But r must be divided by 100, because s_ethCollateralRatio is 3 digits long so it can be set to the hundredth decimal (3.33, for example), so if it's 4, then s_ethCollateralRatio is 400 When reconfigured to solve for maxAmountInUSD (m), the equation is below"
        },
        "returns": {
          "_0": "maxMintable maximum amount mintable in ETH including a new deposit",
          "_1": "ethPrice ethPrice with 8 decimal places (as implemented by Chainlink)"
        }
      },
      "checkpoints(address,uint32)": {
        "details": "Get the `pos`-th checkpoint for `account`."
      },
      "clock()": {
        "details": "Clock used for flagging checkpoints. Can be overridden to implement timestamp based checkpoints (and voting), in which case {CLOCK_MODE} should be overridden as well to match."
      },
      "decimals()": {
        "details": "Returns the number of decimals used to get its user representation. For example, if `decimals` equals `2`, a balance of `505` tokens should be displayed to a user as `5.05` (`505 / 10 ** 2`). Tokens usually opt for a value of 18, imitating the relationship between Ether and Wei. This is the default value returned by this function, unless it's overridden. NOTE: This information is only used for _display_ purposes: it in no way affects any of the arithmetic of the contract, including {IERC20-balanceOf} and {IERC20-transfer}."
      },
      "delegate(address)": {
        "details": "Delegates votes from the sender to `delegatee`."
      },
      "delegateBySig(address,uint256,uint256,uint8,bytes32,bytes32)": {
        "details": "Delegates votes from signer to `delegatee`."
      },
      "delegates(address)": {
        "details": "Returns the delegate that `account` has chosen."
      },
      "eip712Domain()": {
        "details": "See {IERC-5267}."
      },
      "getPastTotalSupply(uint256)": {
        "details": "Returns the total supply of votes available at a specific moment in the past. If the `clock()` is configured to use block numbers, this will return the value at the end of the corresponding block. NOTE: This value is the sum of all available votes, which is not necessarily the sum of all delegated votes. Votes that have not been delegated are still part of total supply, even though they would not participate in a vote. Requirements: - `timepoint` must be in the past. If operating using block numbers, the block must be already mined."
      },
      "getPastVotes(address,uint256)": {
        "details": "Returns the amount of votes that `account` had at a specific moment in the past. If the `clock()` is configured to use block numbers, this will return the value at the end of the corresponding block. Requirements: - `timepoint` must be in the past. If operating using block numbers, the block must be already mined."
      },
      "getVotes(address)": {
        "details": "Returns the current amount of votes that `account` has."
      },
      "name()": {
        "details": "Returns the name of the token."
      },
      "numCheckpoints(address)": {
        "details": "Get number of checkpoints for `account`."
      },
      "owner()": {
        "details": "Returns the address of the current owner."
      },
      "permit(address,address,uint256,uint256,uint8,bytes32,bytes32)": {
        "details": "Sets `value` as the allowance of `spender` over ``owner``'s tokens, given ``owner``'s signed approval. IMPORTANT: The same issues {IERC20-approve} has related to transaction ordering also apply here. Emits an {Approval} event. Requirements: - `spender` cannot be the zero address. - `deadline` must be a timestamp in the future. - `v`, `r` and `s` must be a valid `secp256k1` signature from `owner` over the EIP712-formatted function arguments. - the signature must use ``owner``'s current nonce (see {nonces}). For more information on the signature format, see the https://eips.ethereum.org/EIPS/eip-2612#specification[relevant EIP section]. CAUTION: See Security Considerations above."
      },
      "redeemSdusdForEth(uint256)": {
        "params": {
          "_amount": "amount of SDUSD being redeemed"
        }
      },
      "renounceOwnership()": {
        "details": "Leaves the contract without owner. It will not be possible to call `onlyOwner` functions. Can only be called by the current owner. NOTE: Renouncing ownership will leave the contract without an owner, thereby disabling any functionality that is only available to the owner."
      },
      "symbol()": {
        "details": "Returns the symbol of the token, usually a shorter version of the name."
      },
      "totalSupply()": {
        "details": "See {IERC20-totalSupply}."
      },
      "transfer(address,uint256)": {
        "details": "See {IERC20-transfer}. Requirements: - `to` cannot be the zero address. - the caller must have a balance of at least `value`."
      },
      "transferFrom(address,address,uint256)": {
        "details": "See {IERC20-transferFrom}. Skips emitting an {Approval} event indicating an allowance update. This is not required by the ERC. See {xref-ERC20-_approve-address-address-uint256-bool-}[_approve]. NOTE: Does not update the allowance if the current allowance is the maximum `uint256`. Requirements: - `from` and `to` cannot be the zero address. - `from` must have a balance of at least `value`. - the caller must have allowance for ``from``'s tokens of at least `value`."
      },
      "transferOwnership(address)": {
        "details": "Transfers ownership of the contract to a new account (`newOwner`). Can only be called by the current owner."
      }
    },
    "version": 1
  },
  "userdoc": {
    "kind": "user",
    "methods": {
      "calculateMaxMintable(uint256)": {
        "notice": "this function calculates the maximum amount of SDUSD mintable (including a new deposit)"
      },
      "calculateRedemption(uint256)": {
        "notice": "Utility functions "
      },
      "changeMintingThreshold(uint256)": {
        "notice": "The following functions can change the value of the formulas Can only be done by a vote of the DAO"
      },
      "getPriceFeed()": {
        "notice": "Getter functions "
      }
    },
    "version": 1
  },
  "storageLayout": {
    "storage": [
      {
        "astId": 5918,
        "contract": "contracts/SDUSD.sol:SDUSD",
        "label": "_balances",
        "offset": 0,
        "slot": "0",
        "type": "t_mapping(t_address,t_uint256)"
      },
      {
        "astId": 5924,
        "contract": "contracts/SDUSD.sol:SDUSD",
        "label": "_allowances",
        "offset": 0,
        "slot": "1",
        "type": "t_mapping(t_address,t_mapping(t_address,t_uint256))"
      },
      {
        "astId": 5926,
        "contract": "contracts/SDUSD.sol:SDUSD",
        "label": "_totalSupply",
        "offset": 0,
        "slot": "2",
        "type": "t_uint256"
      },
      {
        "astId": 5928,
        "contract": "contracts/SDUSD.sol:SDUSD",
        "label": "_name",
        "offset": 0,
        "slot": "3",
        "type": "t_string_storage"
      },
      {
        "astId": 5930,
        "contract": "contracts/SDUSD.sol:SDUSD",
        "label": "_symbol",
        "offset": 0,
        "slot": "4",
        "type": "t_string_storage"
      },
      {
        "astId": 9689,
        "contract": "contracts/SDUSD.sol:SDUSD",
        "label": "_nameFallback",
        "offset": 0,
        "slot": "5",
        "type": "t_string_storage"
      },
      {
        "astId": 9691,
        "contract": "contracts/SDUSD.sol:SDUSD",
        "label": "_versionFallback",
        "offset": 0,
        "slot": "6",
        "type": "t_string_storage"
      },
      {
        "astId": 8468,
        "contract": "contracts/SDUSD.sol:SDUSD",
        "label": "_nonces",
        "offset": 0,
        "slot": "7",
        "type": "t_mapping(t_address,t_uint256)"
      },
      {
        "astId": 5059,
        "contract": "contracts/SDUSD.sol:SDUSD",
        "label": "_delegatee",
        "offset": 0,
        "slot": "8",
        "type": "t_mapping(t_address,t_address)"
      },
      {
        "astId": 5064,
        "contract": "contracts/SDUSD.sol:SDUSD",
        "label": "_delegateCheckpoints",
        "offset": 0,
        "slot": "9",
        "type": "t_mapping(t_address,t_struct(Trace208)14149_storage)"
      },
      {
        "astId": 5067,
        "contract": "contracts/SDUSD.sol:SDUSD",
        "label": "_totalCheckpoints",
        "offset": 0,
        "slot": "10",
        "type": "t_struct(Trace208)14149_storage"
      },
      {
        "astId": 8585,
        "contract": "contracts/SDUSD.sol:SDUSD",
        "label": "_status",
        "offset": 0,
        "slot": "11",
        "type": "t_uint256"
      },
      {
        "astId": 433,
        "contract": "contracts/SDUSD.sol:SDUSD",
        "label": "_owner",
        "offset": 0,
        "slot": "12",
        "type": "t_address"
      },
      {
        "astId": 16758,
        "contract": "contracts/SDUSD.sol:SDUSD",
        "label": "s_ethCollateralRatio",
        "offset": 0,
        "slot": "13",
        "type": "t_uint256"
      },
      {
        "astId": 16760,
        "contract": "contracts/SDUSD.sol:SDUSD",
        "label": "s_degredationThreshold",
        "offset": 0,
        "slot": "14",
        "type": "t_uint256"
      }
    ],
    "types": {
      "t_address": {
        "encoding": "inplace",
        "label": "address",
        "numberOfBytes": "20"
      },
      "t_array(t_struct(Checkpoint208)14154_storage)dyn_storage": {
        "base": "t_struct(Checkpoint208)14154_storage",
        "encoding": "dynamic_array",
        "label": "struct Checkpoints.Checkpoint208[]",
        "numberOfBytes": "32"
      },
      "t_mapping(t_address,t_address)": {
        "encoding": "mapping",
        "key": "t_address",
        "label": "mapping(address => address)",
        "numberOfBytes": "32",
        "value": "t_address"
      },
      "t_mapping(t_address,t_mapping(t_address,t_uint256))": {
        "encoding": "mapping",
        "key": "t_address",
        "label": "mapping(address => mapping(address => uint256))",
        "numberOfBytes": "32",
        "value": "t_mapping(t_address,t_uint256)"
      },
      "t_mapping(t_address,t_struct(Trace208)14149_storage)": {
        "encoding": "mapping",
        "key": "t_address",
        "label": "mapping(address => struct Checkpoints.Trace208)",
        "numberOfBytes": "32",
        "value": "t_struct(Trace208)14149_storage"
      },
      "t_mapping(t_address,t_uint256)": {
        "encoding": "mapping",
        "key": "t_address",
        "label": "mapping(address => uint256)",
        "numberOfBytes": "32",
        "value": "t_uint256"
      },
      "t_string_storage": {
        "encoding": "bytes",
        "label": "string",
        "numberOfBytes": "32"
      },
      "t_struct(Checkpoint208)14154_storage": {
        "encoding": "inplace",
        "label": "struct Checkpoints.Checkpoint208",
        "members": [
          {
            "astId": 14151,
            "contract": "contracts/SDUSD.sol:SDUSD",
            "label": "_key",
            "offset": 0,
            "slot": "0",
            "type": "t_uint48"
          },
          {
            "astId": 14153,
            "contract": "contracts/SDUSD.sol:SDUSD",
            "label": "_value",
            "offset": 6,
            "slot": "0",
            "type": "t_uint208"
          }
        ],
        "numberOfBytes": "32"
      },
      "t_struct(Trace208)14149_storage": {
        "encoding": "inplace",
        "label": "struct Checkpoints.Trace208",
        "members": [
          {
            "astId": 14148,
            "contract": "contracts/SDUSD.sol:SDUSD",
            "label": "_checkpoints",
            "offset": 0,
            "slot": "0",
            "type": "t_array(t_struct(Checkpoint208)14154_storage)dyn_storage"
          }
        ],
        "numberOfBytes": "32"
      },
      "t_uint208": {
        "encoding": "inplace",
        "label": "uint208",
        "numberOfBytes": "26"
      },
      "t_uint256": {
        "encoding": "inplace",
        "label": "uint256",
        "numberOfBytes": "32"
      },
      "t_uint48": {
        "encoding": "inplace",
        "label": "uint48",
        "numberOfBytes": "6"
      }
    }
  }
}